:040000000200813247
:03000B000205CF1C
:0100130032BA
:01001B0032B2
:030023000227B6FB
:01002B0032A2
:01003300329A
:03003B00020608B2
:01004300328A
:01004B003282
:01005300327A
:01005B003272
:01006300326A
:01006B003262
:01007300325A
:03007B0002291740
:10009400753F007540009000B8E4F09000017402D0
:1000A400F0900002740CF09000037401F0E4A3F0EB
:1000B4009000057405F0900006E4F09000077408C1
:1000C400F09000087403F090001DE4F090001EF01E
:1000D40090001FF0900023F09000247404F090002E
:1000E4002574C9F07435A3F07480A3F090002874CB
:1000F400D6F07435A3F07480A3F090002B74E7F06D
:100104007435A3F07480A3F090002E74F4F0743569
:10011400A3F07480A3F0900031740AF07436A3F055
:100124007480A3F09000347460F07409A3F0E4A325
:10013400F0A3F09000387480F07470A3F0E4A3F09E
:10014400A3F090003CF07496A3F0E4A3F0A3F09025
:100154000040F074E1A3F0E4A3F0A3F0900044F0B5
:1001640074C2A3F07401A3F0E4A3F0900048F07407
:1001740084A3F07403A3F0E4A3F090004C74E0F0C3
:100184007493A3F07404A3F0E4A3F0900050F0740B
:1001940008A3F014A3F0E4A3F09000547420F074C6
:1001A400A1A3F07407A3F0E4A3F090005874C0F086
:1001B4007427A3F07409A3F0E4A3F090005C7460C6
:1001C400F074AEA3F0740AA3F0E4A3F0900060F01E
:1001D4007435A3F0740CA3F0E4A3F090006474A04D
:1001E400F074BBA3F0740DA3F0E4A3F0900068F0E6
:1001F4007410A3F0740EA3F0E4A3F0900094F0A3A1
:0B020400F0900096F0A3F0A3F0A3F030
:0304600002007E19
:03007E00020E056A
:10046300AF82C00774A3C0E07431C0E0122BD5156E
:10047300811581D007BF0002800ABF01028016BF29
:100483000233802274A6C0E07431C0E0122BD5156C
:10049300811581802074ACC0E07431C0E0122BD58B
:1004A30015811581800F74B2C0E07431C0E0122B46
:1004B300D515811581AE117F00C006C00774B8C081
:1004C300E07431C0E0122BD5E58124FCF58122AF25
:1004D30082BF0D028004BF1B112274D1C0E07431AE
:1004E300C0E0122BD515811581227E00C007C006FE
:1004F30074D4C0E07431C0E0122BD5E58124FCF53F
:100503008122AF82741BB5230280028079AE248ED0
:1005130011AC117D00C007C006C004C00574D7C06C
:10052300E07431C0E0122BD5E58124FCF581D006BF
:10053300D007BF0002800DBF01028021BF020280ED
:10054300350205CC7F018E11758201C00712046349
:10055300852511758201120463D007806C7F028E9A
:1005630011758202C0071204638525117582021278
:100573000463D00780537F008E11758200C0071279
:100583000463D0078043BF0002800ABF01028014C6
:10059300BF0236801E852411852382C0071204D230
:1005A300D0078025852511852382C0071204D2D068
:1005B300078016852411852382C0071204D285255E
:1005C300118523821204D2D0078F8222C0E0C08219
:1005D300C083C0D0758CFF758AF3900094E024012A
:1005E300F0A3E03400F0900096E02401F0A3E0349F
:1005F30000F0A3E03400F0A3E03400F0D0D0D083C7
:10060300D082D0E032C0E0E5EC75EC00D0E032AE51
:10061300875306107F00BE1041BF003EAF84AE85F6
:100623007D00EF2FFFED33FD5306017C00EE2FFF1E
:10063300EC3DFDEF24F1FFED34FFFD8F0653060182
:10064300EDC313CF13CFFD75C7AA75C7558F847537
:10065300C7AA75C7558E855387EF22AF82751100E0
:10066300BF310122BF320122BF33028032BF3401C6
:1006730022BF50028049BF5303020702BF540280C6
:100683005EBF5603020712BF70028023BF7302804E
:100693005EBF74028039BF76030207120207227419
:1006A300EEC0E07431C0E0122BD5158115812274A0
:1006B30005C0E07432C0E0122BD515811581227478
:1006C30018C0E07432C0E0122BD515811581227455
:1006D3002AC0E07432C0E0122BD515811581227433
:1006E3003FC0E07432C0E0122BD51581158122740E
:1006F30055C0E07432C0E0122BD5158115812274E8
:100703006DC0E07432C0E0122BD5158115812274BF
:1007130084C0E07432C0E0122BD515811581227498
:100723009EC0E07432C0E0122BD51581158174B5DB
:10073300C0E07432C0E0122BD51581158174CCC092
:10074300E07432C0E0122BD51581158174EDC0E041
:100753007432C0E0122BD5158115817408C0E07482
:1007630033C0E0122BD5158115817427C0E0743393
:10077300C0E0122BD5158115817448C0E07433C0D5
:10078300E0122BD5158115812275B10075B2007564
:10079300B30075B40075AC0075AD0043B32053B41A
:1007A300DF43B10453B2FB43B18053B27F53B3BFB2
:1007B30043B44053B3F743B40853B3EF43B41053B4
:1007C300B3FB43B40453B3FD43B40253B3FE43B486
:1007D3000153B1FE43B20153B1FD43B20253B1EF32
:1007E30043B21053B1F743B208D296D292D293D206
:1007F30094C280C281C284C28322E582FF6054EF27
:1008030030E002B294EF30E102B293EF30E202B291
:1008130092EF30E34890001DE0FF24FC4024EF2FCB
:10082300900827738006800A800E8012C281C280DE
:100833008010D281C280800AD281D2808004C2819A
:10084300D28090001DEF04F0E0FFBF041090001D64
:10085300E4F022D294D293D292C281C28022AF8298
:10086300E519C4540FFE53070FE4FDFCEEB507086A
:10087300ECB505047582012275820022AD82AE8338
:10088300AFF074012DFAE43EFB8F048A828B838CD4
:10089300F0123187FCBC0402800DBC050302092E53
:1008A300BC06030209842274052DF526E43EF527D0
:1008B3008F288526828527838528F0123187F8A320
:1008C300123187F9A3123187FC888289838CF01255
:1008D300318724FF92948526828527838528F01209
:1008E3003187FAA3123187FBA3123187FC0ABA00BE
:1008F300010B8A828B838CF012318724FF929385BC
:1009030026828527838528F0123187FAA31231873F
:10091300FBA3123187FC74022AFAE43BFB8A828B25
:10092300838CF012318724FF92922274052DFDE40B
:100933003EFE8D828E838FF0123187FAA3123187A8
:10094300FBA3123187FC0ABA00010B8A828B838CCA
:10095300F012318724FF92808D828E838FF01231C3
:1009630087FDA3123187FEA3123187FF74022DFD89
:10097300E43EFE8D828E838FF012318724FF9281B5
:1009830022AE227F00C006C0077475C0E07433C076
:10099300E0122BD5E58124FCF58122AF8290001E65
:1009A300EFF0AE29900023EEF07D00EF75F003A485
:1009B3002425F582740035F0F583E0FBA3E0FCA366
:1009C300E0FFC006C005C003C004C007748AC0E0CE
:1009D3007433C0E0122BD5E58124F9F58122AD8271
:1009E300AE83AFF074012DFAE43EFB8F048A828B51
:1009F300838CF0123187FCBC000122BC020122BCB3
:100A03000302800CBC0502805BBC0703020AAA2216
:100A13002095012274022DFAE43EFB8F048A828B17
:100A2300838CF0123187F87900C004C003C002C080
:100A330000C0017492C0E07433C0E0122BD5E5818D
:100A430024FCF581D002D003D0048A828B838CF0FE
:100A5300123187F522903700121D748522109037CA
:100A630000021D8890001DE0FC24FC500122EC2CA8
:100A7300900A77738006800F80188021C281C2801C
:100A830090001D7401F022C281D28090001D740277
:100A9300F022D281D28090001D7403F022D281C251
:100AA3008090001DE4F02275110074052DFDE43ED5
:100AB300FE8D828E838FF0123187F52AA312318740
:100AC300F52BA3123187F52C852A82852B83852C60
:100AD300F0123187F879007B007C008B30892F88F6
:100AE3002E8C2D7401252AFAE4352BFBAC2C8A823B
:100AF3008B838CF0123187F9E4FAFBFCE52D42017C
:100B0300E52E4202E52F4203E53042048B308A2F63
:100B1300892E752D007402252AF8E4352BFBAC2CA5
:100B230088828B838CF0123187F8E4FCFBFAE52D85
:100B33004200E52E4204E52F4203E5304202C0079E
:100B4300C006C005C004C003C002C000C000C0048A
:100B5300C003C00274A6C0E07433C0E0122BD5E515
:100B63008124FAF581D000D002D003D00488828C8E
:100B7300838BF0EA122736D005D006D0078D828EFC
:100B8300838FF0123187F52DA3123187F52EA3122F
:100B93003187F52F7402252DF8E4352EF9AC2F8813
:100BA3008289838CF0123187F87C007401252DF93A
:100BB300E4352EFAAB2F89828A838BF0123187F9C1
:100BC300892A8C2B852D82852E83852FF0123187E0
:100BD300FA7B00C007C006C005C000C004C02AC01D
:100BE3002BC002C00374B6C0E07433C0E0122BD52F
:100BF300E58124F8F581D005D006D0078D828E8358
:100C03008FF0123187FDA3123187FEA3123187FFC4
:100C130074032DFAE43EFB8F048A828B838CF012DB
:100C23003187FA74042DFDE43EFE8D828E838FF0AE
:100C3300123187F5298A8202099E02284A43B308A2
:100C430043B40843B31043B410C2C0439B01D2AFB3
:100C530022AF82C294C2937E007407C39EF5F0054F
:100C6300F0EF8002C313D5F0FB540124FF9294D21A
:100C730093C2930EBE080040E0D294D293A294E4B0
:100C830033F582C293227F00D294C2937E00D29323
:100C9300A294E433FD8E047407C39CFC8CF005F02E
:100CA300ED800225E0D5F0FB4207C2930EBE08009B
:100CB30040DCC294D293C293D2948F8222E58225E0
:100CC30082FFE5314FF582020C54753100120CC0DE
:100CD3007F00C3EF9532501FEF2533FCE43534FD1D
:100CE300AE358C828D838EF0123187F582C0071268
:100CF3000C54D0070F80DBD294D2932275310112AA
:100D03000CC07F00C3EF9536502CEF2537FCE4353C
:100D130038FDAE39C007C006C005C004120C89AB4C
:100D230082D004D005D006D0078C828D838EF0EB61
:100D33001230FE0F80CED294D29322753101120C61
:100D4300C0D29310930280FB7F00C3EF953A502CDF
:100D5300EF253BFCE4353CFDAE3DC007C006C005B6
:100D6300C004120C89AB82D004D005D006D0078C06
:100D7300828D838EF0EB1230FE0F80CED294D2930D
:100D830022AE827F00AC3E7D00EC2FFFED3EFE8F56
:100D930019EEF51A3395E0F51BF51C90445CE4F568
:100DA300F0123119AC82AD83AEF0FF7519FF751ADD
:100DB300FFE4F51BF51C8C828D838EF0EF12305609
:100DC300AC82AD83AEF0FF746C2CFC74EE3DFD740D
:100DD300FF3EFE74FF3F8C828D838EF022AE82AF86
:100DE300837C007D008C028D03C3EA9EEB9F501130
:100DF300000000000000000000000CBC00E70D80B4
:100E0300E422754200754301754402754503754636
:100E130004754705754809754900754A00754B0007
:100E2300754C0012078C12274F120C40900005E0FE
:100E330075F004A42434F582740035F0F583E0FAE8
:100E4300A3E0FBA3E0FCA3E08A828B838CF0122651
:100E5300EA120612538EF7D2A9D28C75110074C30D
:100E6300C0E07433C0E0122BD515811581751101D3
:100E730074D3C0E07433C0E0122BD5158115817C87
:100E8300307F750000000000EC24FFFAEF34FFFB15
:100E93008A048B07EA4B70EBF511A282A295E43327
:100EA300FF439B02D2AF208202D284903700E493A7
:100EB300F52290004175F040C007120C3DE582D049
:100EC300077003021743741BB54103021363742BAA
:100ED300B541030214ED742DB541030216187431A4
:100EE300B54103020F6C7432B54103020FA0743392
:100EF300B54103020FD47434B541030210087435AD
:100F0300B5410302103C7436B541030210527437E5
:100F1300B541030210867438B541030210BA745404
:100F2300B5410302116A7462B54103021320746967
:100F3300B54103021269746AB541030211F4746B7B
:100F4300B541030211B37470B541030212607472A8
:100F5300B541030211237473B5410302123474744F
:100F6300B541030210EE021743B296C00774E3C003
:100F7300E07433C0E0122BD515811581A296E433BA
:100F8300FB7C00C003C00474ECC0E07433C0E01207
:100F93002BD5E58124FCF581D007021743B294C019
:100FA3000774F1C0E07433C0E0122BD515811581AD
:100FB300A294E433FB7C00C003C00474ECC0E0746F
:100FC30033C0E0122BD5E58124FCF581D00702174D
:100FD30043B293C00774F8C0E07433C0E0122BD55A
:100FE30015811581A293E433FB7C00C003C0047414
:100FF300ECC0E07433C0E0122BD5E58124FCF5810D
:10100300D007021743B292C00774FFC0E07433C025
:10101300E0122BD515811581A292E433FB7C00C02D
:1010230003C00474ECC0E07433C0E0122BD5E58137
:1010330024FCF581D007021743C0077406C0E0748F
:1010430034C0E0122BD515811581D007021743B2A6
:1010530080C0077414C0E07434C0E0122BD515812E
:101063001581A280E433FB7C00C003C00474ECC090
:10107300E07433C0E0122BD5E58124FCF581D00761
:10108300021743B281C007741EC0E07434C0E0127B
:101093002BD515811581A281E433FB7C00C003C0ED
:1010A3000474ECC0E07433C0E0122BD5E58124FC5A
:1010B300F581D007021743B284C0077429C0E074D6
:1010C30034C0E0122BD515811581A284E433FB7C57
:1010D30000C003C00474ECC0E07433C0E0122BD52D
:1010E300E58124FCF581D007021743C007900096E1
:1010F300E0C0E0A3E0C0E0A3E0C0E0A3E0C0E07490
:1011030035C0E07434C0E0122BD5E58124FAF581B3
:10111300D007900096E4F0A3F0A3F0A3F0021743E6
:1011230090004175F040C007121EF7E582D00760BA
:1011330020AB417C00C007C003C0047441C0E0740D
:1011430034C0E0122BD5E58124FCF581D0070217CA
:1011530043C0077450C0E07434C0E0122BD515812E
:101163001581D007021743C007AB0F7C00AA107E7E
:1011730000850D4D8E4EAD0E7F00C007C003C00429
:10118300C002C006C04DC04EC005C0077458C0E0C1
:101193007434C0E0122BD5E58124F6F581D00775B0
:1011A3000E00750D00751000750F00D00702174370
:1011B300900024E02401F0E075F004A42434F582C7
:1011C300740035F0F583E0FBA3E0FCA3E0FDA3E0AE
:1011D300FEC007C003C004C005C0067466C0E07447
:1011E30034C0E0122BD5E58124FAF581D00702172C
:1011F30043900024E014F0E075F004A42434F58255
:10120300740035F0F583E0FBA3E0FCA3E0FDA3E06D
:10121300FEC007C003C004C005C0067466C0E07406
:1012230034C0E0122BD5E58124FAF581D0070217EB
:1012330043900024E075F004A42434F5827400354F
:10124300F0F583E0FBA3E0FCA3E0FDA3E08B828C3D
:10125300838DF0C0071226EAD00702174390001EC1
:101263007402F0021743900009742CF090000A7482
:1012730006F07533097534007535007532027582D1
:101283004AC007120CCD902710120DE0753709756F
:10129300380075390075360375824A120CFF9000C9
:1012A3000BE0FE751902751AFF90000975F000C076
:1012B3000612241DAD82D006D007EEB50549C0073E
:1012C300900009E0FE90000AE0F53E8E82C007120E
:1012D3000D84AB82AC83ADF0FED007AA3F053F7F00
:1012E30000C007C003C004C005C006C002C0077425
:1012F3006CC0E07434C0E0122BD5E58124F8F5818D
:10130300D007D007021743C007747DC0E07434C010
:10131300E0122BD515811581D0070217437E08757E
:1013230031008E82C007C006120CC0E582D006D001
:101333000770208E04FDC007C006C004C005748773
:10134300C0E07434C0E0122BD5E58124FCF581D0D4
:1013530006D007D293D2940EBE780040C202174340
:10136300900006E02401F0E0FE24FA50030214D2B8
:10137300EE2E90137973800A801E80328046805A45
:10138300806EC0077497C0E07434C0E0122BD5158B
:10139300811581D007021743C00774ABC0E07434D2
:1013A300C0E0122BD515811581D007021743C00762
:1013B30074BFC0E07434C0E0122BD515811581D001
:1013C30007021743C00774CFC0E07434C0E0122B88
:1013D300D515811581D007021743C00774E1C0E01A
:1013E3007434C0E0122BD515811581D00702174341
:1013F300C007C00774ECC0E07434C0E0122BD515ED
:10140300811581900001E0FE7D00C006C005740EC9
:10141300C0E07435C0E0122BD5E58124FCF5819042
:101423000002E0FE7D00C006C0057425C0E07435EF
:10143300C0E0122BD5E58124FCF581900003E0C0C8
:10144300E0A3E0C0E0743CC0E07435C0E0122BD5EB
:10145300E58124FCF581D007900005E0FEFC7D00CA
:10146300EE75F004A42434F582740035F0F583E0BE
:10147300FAA3E0FBA3E0FEA3E0FFC007C004C0059E
:10148300C002C003C006C007744FC0E07435C0E09B
:10149300122BD5E58124F8F581D007900007E0FFF2
:1014A3007E00C007C007C0067459C0E07435C0E0B1
:1014B300122BD5E58124FCF58174ECC0E07434C0B3
:1014C300E0122BD515811581D007D0070217439061
:1014D3000006E4F0C0077497C0E07434C0E0122B38
:1014E300D515811581D007021743900006E0FE242D
:1014F300FB5003021743EE2E2E9015007302150FB7
:1015030002153602155D02158B0215F1900001E0FC
:101513002401F0E0FE7D00C007C006C005740EC0C4
:10152300E07435C0E0122BD5E58124FCF581D007AA
:10153300021743900002E02401F0E0FE7D00C007A3
:10154300C006C0057425C0E07435C0E0122BD5E594
:101553008124FCF581D007021743900003E02401A6
:10156300F0A3E03400F0C007900003E0C0E0A3E084
:10157300C0E0743CC0E07435C0E0122BD5E5812493
:10158300FCF581D007021743900005E02401F0E049
:1015930075F004A42434F582740035F0F583E0FB80
:1015A300A3E0FCA3E0FDA3E0FEC007C003C004C0AA
:1015B30005C0067466C0E07434C0E0122BD5E58123
:1015C30024FAF581900005E075F004A42434F58233
:1015D300740035F0F583E0FBA3E0FCA3E0FDA3E09A
:1015E3008B828C838DF01226EAD00702174390007A
:1015F30007E02401F0E0FE7D00C007C006C00574CB
:1016030059C0E07435C0E0122BD5E58124FCF58187
:10161300D007021743900006E0FE24FB5003021795
:1016230043EE2E2E90162B7302163A021660021604
:10163300860216BC021720900001E014F0E0FE7D44
:1016430000C007C006C005740EC0E07435C0E012C8
:101653002BD5E58124FCF581D007021743900002C6
:10166300E014F0E0FE7D00C007C006C0057425C08D
:10167300E07435C0E0122BD5E58124FCF581D00759
:10168300021743900003E024FFFDA3E034FFFE9024
:101693000003EDF0EEA3F0C007900003E0C0E0A369
:1016A300E0C0E0743CC0E07435C0E0122BD5E581A6
:1016B30024FCF581D007021743900005E014F0E005
:1016C30075F004A42434F582740035F0F583E0FB4F
:1016D300A3E0FCA3E0FDA3E0FEC007C003C004C079
:1016E30005C0067466C0E07434C0E0122BD5E581F2
:1016F30024FAF581900005E075F004A42434F58202
:10170300740035F0F583E0FBA3E0FCA3E0FDA3E068
:101713008B828C838DF01226EAD0078023900007FA
:10172300E014F0E0FE7D00C007C006C0057459C098
:10173300E07435C0E0122BD5E58124FCF581D00798
:101743008F06A295E433FDEEB505028064751100A2
:10175300A295E433FD7E00C005C0067467C0E07443
:1017630035C0E0122BD5E58124FCF58130950D9031
:101773000021E4F0A3F0900020F0803090001FE4FB
:10178300F0F5110540E540540124FF9294E5400330
:101793005401FE24FF9293E54003035401FD24FF0B
:1017A3009292EE24FF9280ED24FF9281A295E4337E
:1017B300FF209503021866900021E0FDA3E0FE9050
:1017C3000003E0FBA3E0FCC3ED9BEE9C50171096D7
:1017D30002800302185FD29690002174012DF0E479
:1017E3003EA3F08077900020E0FE900001E0FDC36F
:1017F300EE9D50687511019000F0C00712273990D3
:1018030000F01227399000F01227399000F01227C8
:10181300399000F0122739D0077E00900007E0FDD1
:10182300C3EE9D501F8E047D009000B8E07A002C1B
:10183300F582EA3DF583C007C006122739D006D0EA
:10184300070E80D79000B8E02401F0900020E02438
:1018530001F0751100900021E4F0A3F090001EE464
:10186300F0804790001EE0FE24FC403EEE2E9018D0
:10187300757380368004800B8018C007122AE5D068
:10188300078027900023E0F582C007122AEED007D5
:101893008018751101900023E0FE7D008E828D83F8
:1018A300C007122739D007751100A282E4B542029E
:1018B30080127401B5420280357402B542030219E5
:1018C30071020EB590004175F040C007121EF7E596
:1018D30082D0077003020EB5900094E4F0A3F07574
:1018E3004B0190009AE541F0754201020EB590005C
:1018F3004175F040C007121EF7E582D0076052AE73
:101903004B1EC2D575F002EE30E704B2D5F404A441
:1019130030D50AF42401C5F0F43400C5F0246CFD7D
:10192300740035F0FE900094E0FBA3E0FC8D828E02
:1019330083EBF0ECA3F0900094E4F0A3F0AE4B053E
:101943004BEE249AF582E43400F583E541F0020E70
:10195300B5900094E0FDA3E0FEC374109D74279E30
:101963004003020EB5854B4C754202020EB5AD4CD9
:101973007E00C007C006C005C005C0067473C0E082
:101983007435C0E0122BD5E58124FCF581900094D9
:10199300E0C0E0A3E0C0E07482C0E07435C0E012B0
:1019A3002BD5E58124FCF581D005D006D007740141
:1019B300B54C4090009AE0F519758203C0071208F0
:1019C30061E582D0077003021BA090009AE0FC7BC4
:1019D30000C007C004C0037498C0E07435C0E012AF
:1019E3002BD5E58124FCF5818541821207FDD007C3
:1019F300021BA074F8254C5003021AB3C007C0059C
:101A0300C00674A0C0E07435C0E0122BD5E5812474
:101A1300FCF581D0077C00C3EC954C502EEC249A46
:101A2300F582E43400F583E0FB7A00C007C004C00C
:101A330003C00274AFC0E07435C0E0122BD5E5815A
:101A430024FCF581D004D0070C80CCC00774A3C05C
:101A5300E07431C0E0122BD515811581D0077C00CD
:101A6300C3EC954C5034EC75F002A4246CF58274ED
:101A73000035F0F583E0FAA3E0FBC007C004C00221
:101A8300C00374B5C0E07435C0E0122BD5E58124E2
:101A9300FCF581D004D0070C80C6C00774A3C0E056
:101AA3007431C0E0122BD515811581D007021BA01C
:101AB300C007C005C00674BAC0E07435C0E0122B7D
:101AC300D5E58124FCF581D0077E00C3EE954C500B
:101AD3002EEE249AF582E43400F583E0FD7C00C009
:101AE30007C006C005C00474AFC0E07435C0E0127F
:101AF3002BD5E58124FCF581D006D0070E80CCC020
:101B03000774A3C0E07431C0E0122BD51581158191
:101B1300D0077E00C3EE954C5034EE75F002A4243A
:101B23006CF582740035F0F583E0FCA3E0FDC0079B
:101B3300C006C004C00574B5C0E07435C0E0122B04
:101B4300D5E58124FCF581D006D0070E80C6C007F9
:101B530074A3C0E07431C0E0122BD51581158175D3
:101B6300519A755200755300755443755500755657
:101B730040854C8212205390004375F0401221E5BA
:101B830090004375F0401209E1D007E545B5220DF9
:101B930090004375F040C00712087FD007754200DC
:031BA300020EB57A
:1031A3000A0D0073656C66200063726F73730062AF
:1031B3006F74682000206F75747075743A54686971
:1031C30073206973205541525425640A0D000D0A7A
:1031D300002563000D0A696E7075743A546869734B
:1031E300206973205541525425640049646C65205D
:1031F300707265616D626C65206F6E2F6F66660D10
:103203000A004C696E65466920506F776572204FDE
:1032130066660D0A004C696E65466920506F7765D6
:1032230072204F6E0D0A004C696E65466920556128
:103233007274205478204C6F770D0A004C696E65C8
:103243004669205561727420547820486967680D77
:103253000A004C696E654669204353432072782007
:1032630046534D204F66660D0A004C696E654669EC
:10327300204353432072782046534D204F4E0D0A6E
:103283000056657273696F6E20312E34206F6E2085
:1032930032303233313032360D0A00313A20646F26
:1032A300776E6C696E6B207061636B657420310D92
:1032B3000A00323A20646F776E6C696E6B2070611E
:1032C300636B657420320D0A00333A2075706C69A4
:1032D3006E6B2069646C6520707265616D626C65EC
:1032E300206F6E2F6F66660D0A00702F503A204CC8
:1032F300696E65466920506F776572206F66662F29
:103303006F6E0D0A00742F543A204C696E6546693E
:103313002055617274205478204C6F772F48696769
:10332300680D0A00732F533A204C696E6546696530
:10333300204353432052782046534D206F66662F17
:103343006F6E0D0A00746573742070726F63656429
:103353007572653A2070202D3E2050202D3E20545A
:10336300202D3E2053202D3E2031206F7220320D20
:103373000A004D7920616464726573732069732058
:10338300307825780D0A0025733A25640D0A0073F9
:1033930065742061646472657373206173202564AE
:1033A3000D0A00756172742073706565643A202597
:1033B3006C75002825782C25782C2578290A0D0092
:1033C300546869732069732055415254300A0D00C3
:1033D300546869732069732055415254310A0D00B2
:1033E300554152545F54583D0025640A0D004C4525
:1033F300445F523D004C45445F473D004C45445FAC
:10340300423D006E6F204D4F544F525F454E0D0AA3
:10341300004D4F544F525F43573D004D4F544F5251
:103423005F4343573D0053454C5F52585F504F4CE9
:103433003D00636F756E743A256C750D0A007278E2
:103443002064617461203A2025780D0A006E6F2094
:1034530072780D0A002564202564202564202564E4
:103463000D0A00256C750D0A005B25645D74656D9E
:1034730070203A20256C750D0A0063726320626127
:10348300640D0A0069326320666F756E64202578C7
:103493003A0D0A006775385050616D626C6544756A
:1034A30072484E756D0D0A006775385050616D6234
:1034B3006C654475724C4E756D0D0A006775385016
:1034C30050616D626C654E756D0D0A006775384C01
:1034D300696E6546695570526174650D0A006775BA
:1034E300385478436E740D0A002D2D2D2D2D2D2D5E
:1034F3002D2D2D2D2D2D2D2D2D2D2D2D2D2D2D2DF9
:103503002D2D2D2D2D2D2D2D0D0A00677538505085
:10351300616D626C65447572484E756D3A25640D34
:103523000A006775385050616D626C654475724C62
:103533004E756D3A25640D0A006775385050616DFC
:10354300626C654E756D3A25640D0A00256C755BDA
:1035530025645D0D0A006775385478436E743A2507
:10356300640D0A005357495443483A25640A0D0031
:103573000D0A52782053495A453A25640A0D0064CE
:103583006F776E6C696E6B2074696D656F75743AD5
:1035930025640A0D0052783A25640A0D00313A5227
:1035A300782073697A653A25640A0D0030782578A6
:1035B30020002564202000323A52782073697A650E
:1035C3003A25640A0D00554C544D4F44455F494E0E
:1035D300495400554C544D4F44455F505245414D5D
:1035E300424C4500554C544D4F44455F4441544172
:1035F30000554C544D4F44455F4E4F5F4D414E4334
:1036030048455354455200554C544D4F44455F4E25
:043613004F4E4500D1
:1037000000000000000000000000000000000000B9
:1037100000000000000000000000000000000000A9
:103720000000000000000000000000000000000099
:103730000000000000000000000000000000000089
:103740000000000000000000000000000000000079
:103750000000000000000000000000000000000069
:103760000000000000000000000000000000000059
:103770000000000000000000000000000000000049
:101BA60075C7AA75C75575FD5A75C7AA75C7557500
:101BB600FDA575820022AC82AD83AEF0FF538EF791
:101BC600438901D28CEC4D4E4F601A758A76758C1E
:101BD600FF108D0280FB1CBCFF091DBDFF051EBE4C
:101BE600FF011F80E0C28C22AC82AD83AEF0FF53B2
:101BF6008EF7438901D28CEC4D4E4F601A758A9848
:101C0600758CFA108D0280FB1CBCFF091DBDFF05FB
:101C16001EBEFF011F80E0C28C22AC82AD83AEF0F7
:101C2600FF538EEF438910D28EEC4D4E4F601A75DE
:101C36008BF6758DC9108F0280FB1CBCFF091DBD7C
:101C4600FF051EBEFF011F80E0C28E22AC82AD835F
:101C5600AEF0FF53C9BF53C9DF43C910D2CAEC4D1A
:101C66004E4F601A75CCE575CDF710CF0280FB1C80
:101C7600BCFF091DBDFF051EBEFF011F80E0C2CAD5
:101C860022AC82AD83AEF0FF75C40743C408EC4DA9
:101C96004E4F602575C55775C6CDAAC45302107B35
:101CA60000BA10F6BB00F353C4EF1CBCFF091DBD00
:101CB600FF051EBEFF011F80D553C4F722AC82ADBF
:101CC60083AEF0FF75C40743C408EC4D4E4F602544
:101CD60075C5D775C6FFAAC45302107B00BA10F6A5
:101CE600BB00F353C4EF1CBCFF091DBDFF051EBEA0
:101CF600FF011F80D553C4F722AF82A2AF9200C264
:101D0600AF75C7AA75C755439F01A20092AFE51CE0
:101D16006013A2AF9200C2AF75C7AA75C75543A597
:101D260001A20092AF851AA68519A7851BAE8FAFB3
:101D3600A2AF9200C2AF75C7AA75C75543A401A248
:101D46000092AFE51C6026A2AF9200C2AF75C7AA8B
:101D560075C75553A5FEA20092AFA2AF9200C2AFBF
:101D660075C7AA75C755539FFEA20092AF22AE82D1
:101D7600AF838F198E1A751BFF751C01758222029F
:101D86001CFFAE82AF838F198E1A85101B751C013E
:101D9600758221021CFF751900751A0C751B0075DA
:101DA6001C00758204121CFFAFAE751900751A0D62
:101DB600751B00751C00758204C007121CFFD00736
:101DC600E5AE540FFEA2AF9200C2AF75C7AA75C7A3
:101DD60055539FFEA20092AFE4C454F0CFC4CF6F18
:101DE600CF54F0CF6FFD7C00EE2FF582EC3DF583EE
:101DF6002285821A751900751B00751C00758204F0
:101E0600121CFF85AE82A2AF9200C2AF75C7AA753B
:0A1E1600C755539FFEA20092AF22B1
:10020F00E4F54FF5509000B97417F07438A3F074FB
:10021F0080A3F09000BC7422F07438A3F07480A314
:10022F00F09000BF742DF07438A3F07480A3F09099
:10023F0000C27438F07438A3F07480A3F09000C536
:10024F007445F07438A3F07480A3F09000C8745113
:10025F00F07438A3F07480A3F09000CB7460F07446
:10026F0038A3F07480A3F09000CE746EF07438A3AE
:10027F00F07480A3F09000D1746EF07438A3F07412
:10028F0080A3F09000D4746EF07438A3F07480A340
:10029F00F09000D7746EF07438A3F07480A3F090D0
:1002AF0000DA746EF07438A3F07480A3F09000DD60
:1002BF00746EF07438A3F07480A3F09000E0746E45
:1002CF00F07438A3F07480A3F09000E3746EF074B0
:1002DF0038A3F07480A3F09000E6746EF07438A326
:1002EF00F07480A3F09000E9746EF07438A3F0748A
:1002FF0080A3F09000EC746EF07438A3F07480A3B8
:10030F00F09000EF746EF07438A3F07480A3F09047
:10031F0000F2746EF07438A3F07480A3F09000F5BF
:10032F00746EF07438A3F07480A3F09000F8746EBC
:10033F00F07438A3F07480A3F09000FB746EF07427
:10034F0038A3F07480A3F09000FE746EF07438A39D
:10035F00F07480A3F0900101746EF07438A3F07400
:10036F0080A3F0900104746EF07438A3F07480A32E
:10037F00F0900107746EF07438A3F07480A3F090BE
:0D038F00010A746EF07438A3F07480A3F0BE
:101E2000AD82AE83AFF074032DFDE43EFE8D828E55
:101E3000838FF01231872405F58222AD82AE83AF05
:101E4000F08D028E038F04751904751AFF8A828B38
:101E5000838CF0C007C006C00512241D85821AD0ED
:101E600005D006D00774052DFAE43EFB8F048A8264
:101E70008B838CF0123187FAA3123187FBA31231C6
:101E800087FC74032DFDE43EFE8D828E838FF0125D
:101E90003187F5198A828B838CF002241DAD82AEC6
:101EA00083AFF0C007C006C005121E3BAC82D00550
:101EB000D006D00774042DFDE43EFE8D828E838F04
:101EC000F0EC0230FEAD82AE83AFF0C007C006C0BA
:101ED00005121E3BAC82D005D006D00774042DFD40
:101EE000E43EFE8D828E838FF0123187B504047537
:101EF000820122758200220229AB022A85AD82AEC0
:101F000083AFF0C007C006C005121E3BAC82D005EF
:101F1000D006D0078D018E028F0389828A838BF0D1
:101F2000123187F58209B900010AC007C006C00551
:101F3000C004C003C002C001121EFAD001D002D0FA
:101F400003D004D005D006D00789828A838BF01293
:101F50003187F58209B900010AC007C006C005C073
:101F600004C003C002C001121EFAD001D002D00387
:101F7000D004D005D006D00789828A838BF0123135
:101F800087F809B900010A8882C007C006C005C0E9
:101F900004C003C002C001121EFAD001D002D00357
:101FA00089828A838BF0123187F582121EFAD0045F
:101FB0008C82121EFAD005D006D00774052DFAE4E3
:101FC0003EFB8F0474032DFDE43EFE7900C002C089
:101FD00003C0048D828E838FF01231877C0024FB36
:101FE000F8EC34FFFC89027B00C3EA98EB64808C38
:101FF000F063F08095F0D004D003D0025054C005B7
:10200000C006C0078A828B838CF0123187F8A31236
:102010003187FEA3123187FFE928F8E43EFE88826B
:102020008E838FF0123187F582C007C006C005C0CD
:1020300004C003C002C001121EFAD001D002D003B6
:10204000D004D005D006D00709D007D006D00502AD
:102050001FCD22AF82BF0500500475820322AD540C
:10206000AE55AF56AA51AB52AC538A828B838CF0DB
:10207000123187F974012AF551E43BF5528C538DE6
:10208000828E838FF0E91230FE0DBD00010EAA5141
:10209000AB52AC538A828B838CF0123187F9740176
:1020A0002AF551E43BF5528C538D828E838FF0E9F3
:1020B0001230FE0DBD00010EAA51AB52AC538A8204
:1020C0008B838CF0123187F974012AF551E43BF5CA
:1020D000528C538D828E838FF0E91230FE0DBD003D
:1020E000010EAA51AB52AC538A828B838CF0123111
:1020F00087F974012AF551E43BF5528C538D828E99
:10210000838FF0E91230FE0DBD00010EAA51AB52D3
:10211000AC538A828B838CF0123187F974012AF5D3
:1021200051E43BF5528C538D828E838FF0E912304F
:10213000FEAD54AE55AF5674032DFAE43EFB8F044A
:1021400085515885525985535A755700C005C006A8
:10215000C0078A828B838CF0123187790024FBF8C8
:10216000E934FFF9AE577F00C3EE98EF648089F041
:1021700063F08095F0D007D006D0055053C002C060
:1021800003C00474052DF8E43EF98F048882898326
:102190008CF0123187F8A3123187F9A3123187FC32
:1021A000E55728F8E439F9855882855983855AF02E
:1021B000123187FBA3858258858359888289838C55
:1021C000F0EB1230FE0557D004D003D00202214CB0
:1021D0008D828E838FF0121EC5E582700475820495
:1021E0002275820222AD82AE83AFF0C007C006C066
:1021F000057480C0E07437C0E0122BD515811581BD
:10220000D005D006D0078D828E838FF0123187FCE7
:102210007B00C007C006C005C004C00374A2C0E0B4
:102220007437C0E0122BD5E58124FCF581D005D0B0
:1022300006D00774012DFAE43EFB8F048A828B835B
:102240008CF0123187FA75F003A424B9F58274007A
:1022500035F0F583E0F9A3E0FBA3E0FC8A007A0007
:10226000C007C006C005C001C003C004C000C00252
:1022700074ADC0E07437C0E0122BD5E58124F9F5C8
:1022800081D005D006D00774022DFAE43EFB8F04FE
:102290008A828B838CF0123187FA7C00C007C006DB
:1022A000C005C002C00474BCC0E07437C0E0122B8B
:1022B000D5E58124FCF581D005D006D00774032D27
:1022C000FAE43EFB8F048A828B838CF0123187FA0A
:1022D0007C00C007C006C005C002C00474C7C0E0CF
:1022E0007437C0E0122BD5E58124FCF581D005D0F0
:1022F00006D0078D828E838FF0C007C006C00512FE
:102300001E3BAC82D005D006D0077B0074042DF8AC
:10231000E43EF98F02888289838AF0123187F87A45
:1023200000C007C006C005C004C003C000C00274DE
:10233000D2C0E07437C0E0122BD5E58124FAF581D4
:1023400074E5C0E07437C0E0122BD515811581D03B
:1023500005D006D00774052DFAE43EFB8F04740304
:102360002DFDE43EFE755B00C002C003C0048D82FB
:102370008E838FF0123187790024FBF8E934FFF95E
:10238000AB5B7C00C3EB98EC648089F063F08095D4
:10239000F0D004D003D0025065C005C006C0078A43
:1023A000828B838CF0123187F8A3123187F9A31244
:1023B0003187FFE55B28F8E439F9888289838FF05B
:1023C000123187F87F00C007C006C005C004C003F3
:1023D000C002C000C00774ECC0E07437C0E0122B2C
:1023E000D5E58124FCF581D002D003D004D005D0FE
:1023F00006D007055BD007D006D00502236874F22B
:10240000C0E07437C0E0122BD5158115817480C0EF
:10241000E07437C0E0122BD51581158122AD82AE54
:1024200083AFF0AC1AED4E60217B00C3EB951950E1
:10243000198D828E838FF0123187FAA3AD82AE831D
:10244000EC6A90255993FC0B80E18C8222AF82AD1F
:102450004FAE50054FE4B54F020550C007C005C050
:102460000674F5C0E07437C0E0122BD5E58124FC7A
:10247000F58174FBC0E07437C0E0122BD5158115CF
:1024800081D0077E00C3EE9F50248E047D00C007DC
:10249000C006C004C0057403C0E07438C0E0122B4D
:1024A000D5E58124FCF581D006D0070E80D7C00782
:1024B00074F2C0E07437C0E0122BD5158115817419
:1024C0000AC0E07438C0E0122BD515811581D00701
:1024D0007E00C3EE9F5072AB5CAC5DAD5E8B828CB8
:1024E000838DF0123187FABA100050308A017401DE
:1024F0002BF55CE43CF55D8D5E89007900C007C07A
:1025000006C000C0017410C0E07438C0E0122BD5C2
:10251000E58124FCF581D006D007802A74012BF5D3
:102520005CE43CF55D8D5E7D00C007C006C002C066
:102530000574ECC0E07437C0E0122BD5E58124FCB3
:10254000F581D006D0070E808974F2C0E07437C0E0
:09255000E0122BD5158115812242
:103780002D2D2D2D2D2D2D2D2D2D2D2D2D2D2D2D69
:103790002D2D2D2D2D2D2D2D2D2D2D2D2D2D2D0D79
:1037A0000A00566572203A2025640D0A005479708B
:1037B000653A202564282573290D0A004164647246
:1037C0003A2025640D0A0053697A653A2025640D74
:1037D0000A0043524320636F6D70203A2025642015
:1037E00025640D0A00444154413A20003078257880
:0537F00020000D0A009D
:1025590000316253C4F5A697B988DBEA7D4C1F2E7A
:102569004372211087B6E5D4FACB98A93E0F5C6D6A
:1025790086B7E4D5427320113F0E5D6CFBCA99A85A
:10258900C5F4A796013063527C4D1E2FB889DAEB4A
:102599003D0C5F6EF9C89BAA84B5E6D7407122133A
:1025A9007E4F1C2DBA8BD8E9C7F6A594033261502A
:1025B900BB8AD9E87F4E1D2C02336051C6F7A4951A
:1025C900F8C99AAB3C0D5E6F4170231285B4E7D60A
:1025D9007A4B1829BE8FDCEDC3F2A19007366554FA
:1025E90039085B6AFDCC9FAE80B1E2D344752617EA
:1025F900FCCD9EAF38095A6B4574271681B0E3D2DA
:10260900BF8EDDEC7B4A192806376455C2F3A091C9
:102619004776251483B2E1D0FECF9CAD3A0B5869B9
:1026290004356657C0F1A293BD8CDFEE79481B2AA9
:10263900C1F0A3920534675678491A2BBC8DDEEF99
:1026490082B3E0D1467724153B0A5968FFCE9DAC89
:1037F5002325640D0A00726177203A2020002532C6
:103805006420202000646174613A003078302578A6
:103815002000547970655F42636173740054797058
:10382500655F556361737400547970655F4D6361BD
:10383500737400547970655F5365744164647200F4
:10384500547970655F5365744C45440054797065CF
:103855005F4374726C4D6F746F7200547970655F5D
:10386500526561644164647200547970655F4E6F9E
:033875006E65007D
:10039C0090010DE4F090010EF090010FF09001101F
:1003AC00F0900111740AF090011214F09001137482
:1003BC0006F090011414F0900115740FF0900116D2
:1003CC00F0900117F0900118F0900119F090011ABB
:1003DC007403F090011B14F090011C740FF0900149
:1003EC001DF090011E7401F090011FE4F0900120AB
:1003FC00740FF0900121F0900122F0900123F09005
:10040C000124F0900125E4F0900135F0900145F0C5
:10041C00900155F0900165F0900166F0900167F045
:10042C00900168F0900169F090016AF090016BF016
:10043C0090016CF090016DF090016EF090016FF0F6
:10044C00900170F0900171F0900172F0900173F0D6
:04045C00900174F0A7
:10265900AC82AD83AEF0FF53B1BF53B2BF53B17F6C
:1026690053B27F759850438920438780438E105316
:10267900C4DF8C198D1A8E1B8F1C90D4BC75F00F7A
:10268900E4123056AC82C3E49CF58DD28ED29922E5
:10269900AC82AD83AEF0FF53B1BF53B2BF53B17F2C
:1026A90053B27F75985043878053C4F843C4208C34
:1026B900198D1A8E1B8F1C90D4BC75F00FE4123043
:1026C90056AC82AD83AEF0FFE4C39CE49DF974017E
:1026D9009EE49F89C6C3E49CFC8CC543C408D29977
:1026E90022AC82AD83AEF0FF53B1FB53B2FB53B3BF
:1026F900BF53B4BF75F85875C40853C4DF8C198D1E
:102709001A8E1B8F1C90D4BC75F00FE4123056AC96
:1027190082AD83AEF0FFE4C39CE49DF974019EE4AD
:102729009F89C6C3E49CFC8CC543C408220226EADF
:10273900AE82E51170078E82122A4C80058E8212B4
:102749002A859000002290C20075F001E4122659F2
:1027590090C20075F001E41226EAD2AC439C01D282
:10276900AF22C299900168E0FFE07001227D647E8A
:102779000000000000ED24FFFBEE34FFFC8B058C0C
:1027890006EB4C70EC900169E0FE04F0EE2435F59F
:1027990082E43401F583E0F599EF14900168F09033
:1027A9000169E0FFBF1005900169E4F022C021C072
:1027B900E0C0F0C082C083C007C006C005C004C025
:1027C90003C002C001C000C0D075D00830983B904A
:1027D9000171E02401F0900165E0FFBF100050286D
:1027E900900167E0FF04F0EF2425F582E43401F558
:1027F90083E599F0900165E02401F0900167E0FF1D
:10280900BF1005900167E4F0C298309910900172E9
:10281900E02401F075D00012276B75D008D0D0D014
:1028290000D001D002D003D004D005D006D007D003
:1028390083D082D0F0D0E0D02132900165E0F582DA
:1028490022AD82AE83AFF0900165E07003F582227C
:10285900C2AC900166E0FC04F0EC2425F582E43476
:1028690001F583E08D828E838FF01230FE90016531
:10287900E014F0900166E0FFBF1005900166E4F0F6
:10288900D2AC75820122AF82900165E0FE7003F53A
:102899008222C3EE9F50028E07AC19AD1AAE1B7B84
:1028A90000C3EB9F5030900166E0FA04F0EA24255A
:1028B900F582E43401F583E08C828D838EF0123049
:1028C900FEA3AC82AD83900166E0FABA10059001CF
:1028D90066E4F00B80CB900165E0C39FF08F822204
:1028E900C2F990016EE0FFE070012290016FE0FEF5
:1028F90004F0EE2455F582E43401F583E0F59AEF0E
:102909001490016EF090016FE053E00FF022C021A6
:10291900C0E0C0F0C082C083C007C006C005C004C3
:10292900C003C002C001C000C0D075D00830F83B58
:10293900900173E02401F090016BE0FFBF1000509B
:102949002890016DE0FF04F0EF2445F582E434019D
:10295900F583E59AF090016BE02401F090016DE0B8
:10296900FFBF100590016DE4F0C2F830F910900135
:1029790074E02401F075D0001228E975D008D0D090
:10298900D000D001D002D003D004D005D006D007A2
:10299900D083D082D0F0D0E0D0213290016BE0F525
:1029A9008222AD82AE83AFF090016BE07003F582B5
:1029B90022539CFE90016CE0FC04F0EC2445F58266
:1029C900E43401F583E08D828E838FF01230FE901E
:1029D900016BE014F090016CE0FFBF100590016CF1
:1029E900E4F0439C0175820122AF8290016BE0FE05
:1029F9007003F58222C3EE9F50028E07AC19AD1AFF
:102A0900AE1B7B00C3EB9F503090016CE0FA04F0E1
:102A1900EA2445F582E43401F583E08C828D838EC6
:102A2900F01230FEA3AC82AD8390016CE0FABA10CB
:102A39000590016CE4F00B80CB90016BE0C39FF033
:102A49008F8222AF82900168E0FEBE100040030031
:102A590080F390016AE0FE04F0EE2435F582E43457
:102A690001F583EFF0900168E02401F090016AE03C
:102A7900FFBF100590016AE4F0D29922AF8290015C
:102A89006EE0FEBE1000400A90010EE02401F00045
:102A990080EC90010DE02401F0539CFE900170E060
:102AA900FE04F0EE2455F582E43401F583EFF0904D
:102AB900016EE02401F0900170E053E00FF0900105
:102AC9006EE0FFBF010B900110E02401F0D2F98004
:102AD9000790010FE02401F0439C01227511019038
:102AE90000F0022739AF82751101EF23235403FE49
:102AF9005306037D00EE2411F582ED3401F583E0E0
:102B0900FEE4CEC4CE6ECE54F0CE6EFDEFC4540FAB
:102B1900FC5304037B00EC2411F582EB3401F583AB
:102B2900E07B004EF582EB4DF583C007122739D0C3
:102B390007EF0303543FFE5306037D00EE2411F50E
:102B490082ED3401F583E0FEE4CEC4CE6ECE54F0BE
:102B5900CE6EFD5307037C00EF2411F582EC34019E
:102B6900F583E07C004EF582EC4DF583022739E5CB
:102B790082FFC4540F2415F582E43401F583E0FE85
:102B8900BE0F047582002253070F7E00EF2415F54E
:102B990082EE3401F583E0FFBF0F047582002275D0
:102BA900820122E582FFC4540F2415F582E4340121
:102BB900F583E025E025E0FE53070F7D00EF24159E
:102BC900F582ED3401F583E04EF58222C018858146
:102BD90018E51824FDF8868318868218E493A3B4AF
:102BE9002577C201C202C203C204C205C206791214
:102BF9007700C207E493A324C64017240A5015702E
:102C090005B51202D206D205FAE775F00AA42AF729
:102C190080E2240A2430B46C04D20180D7B4680459
:102C2900D20280D0B47303022C6DB46406122F470C
:102C3900022CC9B47506122F47022CE9B463051892
:102C4900E6188017B47803022CA8B46603022DFD98
:102C5900B42E0679137700809B6006123039022B57
:102C6900E5023053C083C08286F0188683188682B5
:102C790018300519C206C082C0831231876007A3C4
:102C89001512E51270F4123024D083D082123187E4
:102C99006006A312303980F5D082D083022BE51269
:102CA9002CC020020C122CC0300106122CC0122C90
:102CB900C012304B022BE5E6123029E61802302A01
:102CC900ED30E71CD204E9F42401F9200212EAF4F8
:102CD9003400FA30010AEBF43400FBECF43400FC64
:102CE900200210300108EB7024EC7021C201EA7057
:102CF9001CD202E97017200714300509E512600596
:102D090015121230247430123039022BE5C082C0FA
:102D190083122F61300560790A30011DEB54F07080
:102D29003619EB540F703019EA54F0702A19EA5425
:102D39000F702419EF54F0701E790520020BEF541F
:102D49000F701419EE54F0700E7903EE540F7007DA
:102D590019ED54F0700119E512A204994019F51200
:102D6900C003C002C007C006C005123024D005D078
:102D790006D007D002D003300419C003C002C0072F
:102D8900C006C005742D123039D005D006D007D041
:102D990002D00320024030012CC005C006C0078ABA
:102DA90082EBF583123029E58312302AE58212304D
:102DB90029E58212302AD0E0F582123029E582D045
:102DC90083D08280058D828E83EF12302AE58312AB
:102DD9003029E58380038D82EE12302AE582123094
:102DE90029E58212302A12304BD083D08230070174
:102DF90022022BE530050EE512D39513F512502862
:102E09007512008023E6547FFA18860308AE82AF54
:102E190083903A447D07E4932BA3E4933A5003A3A8
:102E2900DDF48D138E828F83C000122F29C082C0DA
:102E390083EFB47E02801940112482FDC3EA33FA7C
:102E4900EB33FBEC33FCDDF48006F4247F1230BB5A
:102E590075F01BE4F8FFFEFD9039D8E933F9EA3340
:102E6900FAEB33FBEC33FC5017E4932DD4FD7401DA
:102E7900933ED4FE7402933FD4FF74039338D4F87D
:102E8900A3A3A3A3D5F0D4E47C50FBFAF9E513235B
:102E99002354FC88831230BBED29D4F517EE3AD4BC
:102EA900F516EF3BD4F515E5833CD4F51492D5D04E
:102EB90083D082D000122F29C000C3749E9F500571
:102EC900D000022BFDC0821230BBD08230D50FE971
:102ED9002401F9E43AFAE43BFBE43CFC40E2D20782
:102EE900122CE920050CE5136008122F197003D57F
:102EF90013F4E5136015742E1230397800D20308E3
:102F0900E8122F1912302AE8B513F4D000022BE584
:102F190014C31392D52414F9E720D501C4540F2200
:102F2900E618F9E618FC33E9339204FF6003430419
:102F390080E618FBE618FA7900C202D20122E6F906
:102F4900FD18200212AA01E6F91830010AAC02ABF9
:102F590001E6FA18E6F91822E975F06484FE740AA4
:102F6900C5F084C445F0FD30020122EA540FF990FE
:102F79003878932DD4FDE94410933ED4FEEAC45425
:102F89000FF9903898932DD4FDE94410933ED4FE5F
:102F9900E94420933400D4FF20010122EB540FF9B6
:102FA9009038C8932DD4FDE94410933ED4FEE944EA
:102FB90020933FD4FFE43400FAEBC4540FF990385E
:102FC900F8932DD4FDE94410933ED4FEE9442093AF
:102FD9003FD4FFE94430933AD4FAEC540FF99039CD
:102FE900387B00122FF7ECC4540FF9903988932DD0
:102FF900D4FDE94410933ED4FEE94420933FD4FF25
:10300900E94430933AD4FAE94440933BD4FB22741F
:103019002030060274301230391512E51270F02290
:10302900C4540F7003300319D2032490D43440D40C
:10303900C083C082C000F582122739D000D082D067
:0D30490083222003FC7430023039D018229D
:1038780000561268248036924804601672288440E4
:103888000002050710121517202325283033353874
:1038980000969288848076726864605652484440E4
:1038A80000408122630445862768095091327314C9
:1038B80000000001010202020303040404050506D6
:1038C8000036720844801652882460963268044094
:1038D800005510662176328742985308641975306E
:1038E8000006131926323945525865727885919821
:1038F8000076522804805632088460361288644064
:10390800008571574328140086715743291400868F
:103918000004091419242934384348535863687239
:1039280000010203040506070809101112131415F3
:103938000016324864809612284460769208244023
:1039480000724416886032057749219365381082E1
:10395800007755331088664421997754321088656A
:1039680000163350678300173450678401183451A8
:103978000000000000000101010101010202020231
:1039880000561268248036924804601672288440D3
:103998000054096318722781369145005409631849
:1039A80000438730741761044891357922660953BA
:1039B80000683605734210794715845221895826C4
:1039C800000205081013161821242629323437401E
:1039D80000000050000000250000501200002506DD
:1039E80000501203002556015012780025063900B0
:1039F800125319005676090028880400144402005E
:103A08000722010004610000523000002615000062
:103A18006307000081030000910100009500000089
:103A2800480000002400000012000000060000000A
:103A38000300000001000000010000007DC5DDC397
:0A3A480034C2E0BE38BD86BBE4B90D
:10305600FB7A20E4FCFDFEFFE5822582F582E5830E
:1030660033F583E5F033F5F0EB33FB4017DAE9800F
:1030760042E5822582F582E58333F583E5F033F573
:10308600F0EB33FBEC33FCED33FDEE33FEEF33FFB9
:10309600EC9519ED951AEE951BEF951C4013EC95E2
:1030A60019FCED951AFDEE951BFEEF951CFF43826C
:0530B60001DABEEB226F
:06008E00E478FFF6D8FD46
:1030BB006040F82582500274FFF582E824F8501E18
:1030CB00CCCBCAF9E4CC24F85014CBCAF9E4CB240A
:1030DB00F8500BCAF9E4CA24F850037900222408EB
:1030EB006010F8C3EC13FCEB13FBEA13FAE913F9CA
:1030FB00D8F12220F71130F6138883A88220F50926
:10310B00F6A8837583002280FEF280F5F022AAF0E8
:10311B00FBE5828519F0A4FCADF0E5838519F0A4DD
:10312B002DFDE435F0FEE582851AF0A42DFDE5F0CA
:10313B003EFEE433FFEA8519F0A42EFEE5F03FFFD7
:10314B00E583851AF0A42EFEE5F03FFFE582851B93
:10315B00F0A42EFEE5F03FFFEB8519F0A42FFFEA5C
:10316B00851AF0A42FFFE583851BF0A42FFFE582C2
:0C317B00851CF0A42F8EF08D838C822226
:0D00810075815E121BA6E582600302007E01
:1031870020F71430F6148883A88220F507E6A88371
:0C31970075830022E280F7E49322E0221E
:00000001FF
