:040000000200813247
:03000B0002067773
:0100130032BA
:01001B0032B2
:03002300022C5B51
:01002B0032A2
:01003300329A
:03003B000206A614
:01004300328A
:01004B003282
:01005300327A
:01005B003272
:01006300326A
:01006B003262
:01007300325A
:03007B00022DD47F
:10009400900095E4F0900096E4F0900097E4F090DE
:1000A4000098E4F09000017494F07443A3F0748019
:1000B400A3F090000474B6F07443A3F07480A3F02A
:1000C40090000774D5F07443A3F07480A3F09000FB
:1000D4000A74FCF07443A3F07480A3F090000D74D0
:1000E4001BF07444A3F07480A3F0900010743FF0EC
:1000F4007444A3F07480A3F0900013745DF074440E
:10010400A3F07480A3F0900016747DF07444A3F0FF
:100114007480A3F0900019749CF07444A3F074806C
:10012400A3F090001C23F090001DF090001EF090AE
:10013400001FF090002004F0900021F0900022F0C5
:10014400900023F090002404F0900025F090002605
:10015400F0900027F090002804F0900029F090001F
:100164002AF090002BF090002C04F090002DF090D9
:10017400002EF090002FF09000307402F0900031C7
:10018400F0900032F0900033F090003414F09000BE
:1001940035F0900036F0900037F09000387404F099
:1001A400900039F090003AF090003BF090003C143D
:1001B400F090003DF090003EF090003FF090004041
:1001C4007405F0900041F0900042F0900043F090EC
:1001D400005CE4F090005D7460F07409A3F0E4A3A3
:1001E400F0A3F09000617480F07470A3F0E4A3F0C5
:1001F400A3F0900065F07496A3F0E4A3F0A3F0904C
:100204000069F074E1A3F0E4A3F0A3F090006DF0B2
:1002140074C2A3F07401A3F0E4A3F0900071F0742D
:1002240084A3F07403A3F0E4A3F090007574E0F0E9
:100234007493A3F07404A3F0E4A3F0900079F07431
:1002440008A3F014A3F0E4A3F090007D7420F074EC
:10025400A1A3F07407A3F0E4A3F090008174C0F0AC
:100264007427A3F07409A3F0E4A3F09000857460EC
:10027400F074AEA3F0740AA3F0E4A3F0900089F044
:100284007435A3F0740CA3F0E4A3F090008D74A073
:10029400F074BBA3F0740DA3F0E4A3F0900091F00C
:0B02A4007410A3F0740EA3F0E4A3F0AC
:0305000002007E78
:03007E000212C0AB
:10050300AF82C00774FDC0E0743EC0E012309215A4
:10051300811581D007BF0002800ABF01028016BF88
:10052300023380227400C0E0743FC0E012309215A1
:1005330081158180207406C0E0743FC0E0123092C0
:1005430015811581800F740CC0E0743FC0E0123038
:100553009215811581AE117F00C006C0077412C0C9
:10056300E0743FC0E0123092E58124FCF58122AFB4
:1005730082BF0D02800CBF1B0122BF1C0122BF1DC5
:100583001122742BC0E0743FC0E012309215811524
:1005930081227E00C007C006742EC0E0743FC0E015
:1005A300123092E58124FCF58122AF82741BB522BF
:1005B3000280028079AE238E11AC117D00C007C08A
:1005C30006C004C0057431C0E0743FC0E01230922D
:1005D300E58124FCF581D006D007BF0002800DBF62
:1005E30001028021BF020280350206747F018E1151
:1005F300758201C007120503852411758201120556
:1006030003D007806C7F028E11758202C00712052A
:1006130003852411758202120503D00780537F00DE
:100623008E11758200C007120503D0078043BF00F7
:1006330002800ABF01028014BF0236801E85231187
:10064300852282C007120572D00780258524118573
:100653002282C007120572D00780168523118522D6
:1006630082C007120572852411852282120572D079
:10067300078F8222C0E0C082C083C0D0758CD4753E
:100683008A13900058E02401F0A3E03400F09000B6
:100693005AE02401F0A3E03400F0D0D0D083D0821C
:1006A300D0E032C0E0E5EC75EC00D0E032AE875329
:1006B30006107F00BE1041BF003EAF84AE857D00B3
:1006C300EF2FFFED33FD5306017C00EE2FFFEC3DD2
:1006D300FDEF24F1FFED34FFFD8F06530601EDC35B
:1006E30013CF13CFFD75C7AA75C7558F8475C7AAD6
:1006F30075C7558E855387EF22AF82751101BF31C0
:100703000122BF320122BF33028032BF340122BF34
:1007130050028049BF53030207A0BF5402805EBF4B
:1007230056030207B0BF70028023BF7302805EBF0F
:1007330074028039BF76030207B00207C07448C051
:10074300E0743FC0E01230921581158122745FC0BE
:10075300E0743FC0E012309215811581227472C09B
:10076300E0743FC0E012309215811581227484C079
:10077300E0743FC0E012309215811581227499C054
:10078300E0743FC0E0123092158115812274AFC02E
:10079300E0743FC0E0123092158115812274C7C006
:1007A300E0743FC0E0123092158115812274DEC0DF
:1007B300E0743FC0E0123092158115812274F8C0B5
:1007C300E0743FC0E012309215811581740FC0E0D0
:1007D3007440C0E0123092158115817426C0E07414
:1007E30040C0E0123092158115817447C0E0744017
:1007F300C0E0123092158115817462C0E07440C06C
:10080300E0123092158115817481C0E07440C0E01C
:100813001230921581158174A2C0E07440C0E012B9
:100823003092158115812275B10075B20075B30040
:1008330075B40075AC0075AD0043B30853B4F7430A
:10084300AC0153ADFE43B38053B47F43B10153B204
:10085300FE43B32053B4DF43B12053B2DF43B1109F
:1008630053B2EF53B3FE43B40153B3FD43B4025346
:10087300B3FB43B404C290C291C29222AF827E04FE
:10088300900095E0B50714AB1AAC1BAD1C8B828CA2
:10089300838DF0E41235BB75820422AB1AAC1BAD19
:1008A3001C8B828C838DF0E41235BB7A009000950B
:1008B300E08AF005F08002C313D5F0FBF853000182
:1008C3007900B80140B9003D8AF005F0EF8002C31A
:1008D30013D5F0FB20E02E900095EFF08B828C83F4
:1008E3008DF0123EE1F98A0088F005F07401800270
:1008F30025E0D5F0FBF8E942008B828C838DF0E88C
:100903001235BB7E00900095E08AF005F08002C3AB
:1009130013D5F0FB20E0468AF005F0EF8002C31305
:10092300D5F0FBF85300017900B80131B9002E90DE
:100933000095EFF08B828C838DF0123EE1F98A00F3
:1009430088F005F07401800225E0D5F0FBF8E94258
:10095300008B828C838DF0E81235BB7E010ABA05C9
:100963000050030208B08E8222AF82AC25AD26AEC2
:10097300277B00C3EB9F503F8C828D838EF0123E0A
:10098300E1FAA3AC82AD838A017A00C007C006C036
:1009930005C004C003C001C002742EC0E0743FC090
:1009A300E0123092E58124FCF581D003D004D00518
:1009B300D006D0070B80BC742BC0E0743FC0E0129C
:1009C3003092158115812274CFC0E07440C0E012CB
:1009D30030921581158174DAC0E07440C0E01230A2
:1009E300921581158174F2C0E07440C0E012309218
:1009F300158115817406C0E07441C0E01230921570
:100A0300811581740BC0E07441C0E01230921581EE
:100A130015817410C0E07441C0E012309215811545
:100A2300817415C0E07441C0E012309215811581C4
:100A3300741AC0E07441C0E01230921581158174BC
:100A43001FC0E07441C0E0123092158115817424F7
:100A5300C0E07441C0E0123092158115817430C03A
:100A6300E07441C0E012309215811581743BC0E0FF
:100A73007441C0E0123092158115817446C0E07450
:100A830041C0E0123092158115817452C0E0744167
:100A9300C0E01230921581158122AF82BF2B030271
:100AA300104ABF2D0302106FBF3003020B52BF3138
:100AB30003020B6BBF3203020B80BF3303020B95A0
:100AC300BF3403020BAABF3503020BCCBF360302AC
:100AD3000C02BF3703020C30BF48030209CABF52DE
:100AE300030210A5BF5303021020BF61030210933A
:100AF300BF6203021099BF630302109FBF68030222
:100B03000C5EBF6A03020CEABF6B03020D1DBF6CD0
:100B130003020D50BF72030210EEBF7303020DDC1C
:100B2300BF74028007BF7503020FA922900058E02B
:100B3300C0E0A3E0C0E0745FC0E07441C0E01230E5
:100B430092E58124FCF581900058E4F0A3F022752E
:100B53001100C290C291C2927464C0E07441C0E0BB
:100B63001230921581158122751100D2907473C0D1
:100B7300E07441C0E0123092158115812275110095
:100B8300C2967482C0E07441C0E0123092158115A0
:100B93008122751100D2967490C0E07441C0E012B6
:100BA30030921581158122751100B296A296E43315
:100BB300FE7F00C006C007749EC0E07441C0E0120F
:100BC3003092E58124FCF58122751100209002D238
:100BD30096B29074ADC0E07441C0E01230921581BA
:100BE3001581A290E433FE7F00C006C00774B9C02C
:100BF300E07441C0E0123092E58124FCF58122B219
:100C03009174BEC0E07441C0E01230921581158129
:100C1300A291E433FE7F00C006C00774B9C0E0743C
:100C230041C0E0123092E58124FCF58122B2927436
:100C3300CAC0E07441C0E012309215811581A292BE
:100C4300E433FE7F00C006C00774B9C0E07441C03E
:100C5300E0123092E58124FCF58122AD2BAE2CAF5E
:100C63002D8D828E838FF0123EE1FC1C8D828E834C
:100C73008FF0EC1235BBAA28AB29AC2A8A828B836E
:100C83008CF0123EE1FABA013C8D828E838FF01212
:100C93003EE175F004A4245DF582740035F0F5831C
:100CA300E0F9A3E0FAA3E0FBA3E0FCC001C002C0AB
:100CB30003C00474D6C0E07441C0E0123092E581F1
:100CC30024FAF581228D828E838FF0123EE1FD7F1F
:100CD30000C005C00774E9C0E07441C0E01230925F
:100CE300E58124FCF58122AD28AE29AF2A8D828EC1
:100CF300838FF0123EE1FC1C8D828E838FF0EC1209
:100D030035BB7F00C004C00774F7C0E07441C0E086
:100D1300123092E58124FCF58122AD28AE29AF2A59
:100D23008D828E838FF0123EE1FC0C8D828E838F39
:100D3300F0EC1235BB7F00C004C00774F7C0E07449
:100D430041C0E0123092E58124FCF58122AD2BAE47
:100D53002CAF2D8D828E838FF0123EE1FC0C8D82A1
:100D63008E838FF0EC1235BBAA28AB29AC2A8A827A
:100D73008B838CF0123EE1FABA013C8D828E838F15
:100D8300F0123EE175F004A4245DF582740035F0A1
:100D9300F583E0F9A3E0FAA3E0FBA3E0FCC001C004
:100DA30002C003C00474D6C0E07441C0E0123092A4
:100DB300E58124FAF581228D828E838FF0123EE144
:100DC300FD7F00C005C00774E9C0E07441C0E012B4
:100DD3003092E58124FCF58122AD28AE29AF2A8D1E
:100DE300828E838FF0123EE1FC6009BC0103020E88
:100DF3008A020F37852B2E852C2F852D30852E8249
:100E0300852F838530F0123EE1C454F0F85300F08F
:100E1300740F5C48F582C007C006C00512239FD03B
:100E230005D006D007852E82852F838530F0123EAC
:100E3300E1F8E4C8C4C868C854F0C868FB8D828E62
:100E4300838FF0123EE17A004200EA4203C000C001
:100E5300037405C0E07442C0E0123092E58124FCC3
:100E6300F581852E82852F838530F0123EE1FB7A52
:100E730000C003C002741DC0E07442C0E01230928F
:100E8300E58124FCF58122852B2E852C2F852D30A1
:100E9300852E82852F838530F0123EE1C454F0F80D
:100EA3005300F0740F5C48F582C007C006C00512FA
:100EB300239FD005D006D007852E82852F838530CA
:100EC300F0123EE1F8E4C8C4C868C854F0C868FB2F
:100ED3008D828E838FF0123EE17A004200EA420354
:100EE300C000C0037405C0E07442C0E0123092E554
:100EF3008124FCF581852E82852F838530F0123E77
:100F0300E175F004A4245DF582740035F0F583E007
:100F1300F8A3E0F9A3E0FAA3E0FBC000C001C0021C
:100F2300C00374D6C0E07441C0E0123092E581245E
:100F3300FAF58122A92BAA2CAB2D89828A838BF007
:100F4300123EE1C454F0F85300F0740F5C48F5828C
:100F5300C007C006C005C003C002C00112239FD052
:100F630001D002D003D005D006D00789828A838BB3
:100F7300F0123EE1F9E4C9C4C969C954F0C969FC76
:100F83008D828E838FF0123EE17F004201EF420497
:100F9300C001C0047405C0E07442C0E0123092E5A1
:100FA3008124FCF58122AD2BAE2CAF2D8D828E8357
:100FB3008FF0123EE175F004A4245DF582740035D0
:100FC300F0F583E0F9A3E0FAA3E0FBA3E0FCC0079C
:100FD300C006C005C001C002C003C00474D6C0E08F
:100FE3007441C0E0123092E58124FAF581D005D036
:100FF30006D0078D828E838FF0123EE175F004A434
:10100300245DF582740035F0F583E0FCA3E0FDA3D5
:10101300E0FEA3E08C828D838EF0022B8F900096EE
:10102300E0F58212239F900096E0FF7E00C007C088
:1010330006C007C006742EC0E07442C0E0123092AE
:10104300E58124FAF58122900096E02401F0E0FF87
:101053007E00C007C006C007C0067449C0E07442E2
:10106300C0E0123092E58124FAF58122900096E0E7
:1010730014F0E0FF7E00C007C006C007C006744935
:10108300C0E07442C0E0123092E58124FAF5812277
:1010930075821102239F75821202239F75821302A8
:1010A300239FAD2BAE2CAF2D8D828E838FF0123EFE
:1010B300E1C454F0FC74014CF582C007C006C005BE
:1010C30012239FD005D006D0078D828E838FF01216
:1010D3003EE1FD7F00C005C007745EC0E07442C0FE
:1010E300E0123092E58124FCF58122AD2BAE2CAFCA
:1010F3002D8D828E838FF0123EE1C454F0F582C0B1
:1011030007C006C00512239FD005D006D0078D82E5
:101113008E838FF0123EE1FD7F00C005C007746D22
:10112300C0E07442C0E0123092E58124FCF58122D4
:10113300AD82AE83AFF0900097E0FC04F07B00C07B
:1011430007C006C005C004C003747CC0E07442C07D
:10115300E0123092E58124FCF581D005D006D0075A
:10116300C005C006C0077481C0E07442C0E01230FD
:1011730092E58124FBF5812285823685833785F0CC
:1011830038F539A933AA34AB35A83889828A838BD9
:10119300F0E81235BB740129FDE43AFE8B07AC3746
:1011A3008D828E838FF0EC1235BB740229F53AE4FD
:1011B3003AF53B8B3CAF36853A82853B83853CF0E1
:1011C300EF1235BB7E008C3A8E3B7D00C003C0021C
:1011D300C001C007C006C03AC03BC000C005C0364E
:1011E300C037C038C0397486C0E07442C0E01230E2
:1011F30092E58124F4F581D001D002D00374032950
:10120300FDE43AFE8B078D828E838FF0E531123534
:10121300BB740429F9E43AFA89828A838BF0E532B4
:101223000235BBAF82900098E0FE04F07D00C0075A
:10123300C006C0057498C0E07442C0E0123092E565
:101243008124FCF581AD417E00AB407C00C005C02C
:1012530006C003C00474B4C0E07442C0E01230920C
:10126300E58124FAF581D0077E00C3EE9F503EEE60
:10127300253DFBE4353EFCAD3F8B828C838DF01224
:101283003EE1FB7D008E027C00C007C006C003C0A8
:1012930005C002C00474BCC0E07442C0E0123092C6
:1012A300E58124FAF581D006D0070E80BD74C6C04F
:1012B300E07442C0E0123092158115812290009BA8
:1012C3007401F090009C7405F090009D7401F090FF
:1012D300009EF09000A0E4F09000A1F09000A274B2
:1012E30008F09000D5E4F09000D6F09000D7F0908D
:1012F30000D8F09000D9F09000DAF09000DBF09085
:1013030000DCF09000DDF09000DEF09000DFF09064
:1013130000E0F09000E104F09000E204F09000E3BC
:1013230014F09000E4740AF09000E503F09000E6F6
:10133300741CF07400A3F0E4A3F09000E904F090AF
:1013430000EA04F09000EBF09000EC740AF09000D7
:10135300ED03F09000EE741CF07400A3F0E4A3F02E
:101363009000F104F09000F204F09000F304F09088
:1013730000F4740AF09000F503F09000F6741CF08A
:101383007400A3F0E4A3F09000F904F09000FA04D1
:10139300F09000FB23F09000FC740AF09000FD0332
:1013A300F09000FE741CF07400A3F0E4A3F090012D
:1013B3000104F090010204F09001037405F0900120
:1013C3000423F090010503F0900106741CF07400EF
:1013D300A3F0E4A3F090010904F090010A04F09053
:1013E300010B04F090010C740AF090010D03F090CE
:1013F300010E741CF07400A3F0E4A3F012082A1287
:101403002BF41206B0538EF7D2A9D28C7511007447
:10141300E0C0E07442C0E01230921581158174F08F
:10142300C0E07442C0E0123092158115817511013C
:101433007400C0E07443C0E0123092158115817EC0
:10144300307F7500000000001EBEFF011FEE4F70CD
:10145300F2D2967511007E307F7500000000001EE9
:10146300BEFF011FEE4F70F2900071E0FCA3E0FDA0
:10147300A3E0FEA3E08C828D838EF0122B8F7E304F
:101483007F7500000000001EBEFF011FEE4F70F2CB
:10149300D296900019E0FDA3E0FEA3E0FFC005C0D3
:1014A30006C0077481C0E07442C0E07480C0E012DB
:1014B30035FEE58124FAF581D290C291C292900063
:1014C3009975F000122CEFE5827003021ADC90008C
:1014D30099E0FFBF1B02800DBF1C028051BF1D029C
:1014E300804C02157A9000A2E02401F0E0FEBE09D0
:1014F300059000A2E4F09000A2E075F003A424019B
:10150300F582740035F0F583E0FCA3E0FDA3E0FE73
:10151300C004C005C0067481C0E07442C0E074809A
:10152300C0E01235FEE58124FAF581021B2090000C
:10153300A2E014F0E0FEBEFF069000A27408F09053
:1015430000A2E075F003A42401F582740035F0F5E0
:1015530083E0FCA3E0FDA3E0FEC004C005C0067465
:1015630081C0E07442C0E07480C0E01235FEE581C2
:1015730024FAF581021B209000A2E0FE24F7500319
:10158300021B20EE240A83F582EE240D83F583E407
:1015930073A6C0DDD8BBF485A12015151516171742
:1015A3001A1A1B75289D752900752A00752B9B75C2
:1015B3002C00752D008F82120A9D021B209000586B
:1015C300E4F0A3F09000E0E0FE04F0EE24A3F58243
:1015D300E43400F583EFF0021B20BF66028018BFDE
:1015E30067028028BF68028038BF6A02804BBF6BE6
:1015F3000302166C02169A90009BE014F0E060035D
:1016030002169A90009B7401F002169A90009DE0D6
:1016130014F0E0600302169A90009D7401F0021624
:101623009A90010E74D5F07400A3F0E4A3F0900136
:101633000975F0001223A2805E90009DE02401F062
:10164300E0FEBE650690009D7464F090009DE0FE90
:101653007D00C006C00574F7C0E07441C0E01230DD
:1016630092E58124FCF581802E90009BE02401F01B
:10167300E0FEBE100690009B740FF090009BE0FE0E
:101683007D00C006C00574E9C0E07441C0E01230BB
:1016930092E58124FCF581900099E0FEBE6602800C
:1016A30018BE67028013BE6803021B20BE6A028055
:1016B30008BE6B028003021B2090009BE090010B8D
:1016C300F090009DE090010AF090010975F000127E
:1016D300268A021B20BF6802800FBF6A02801CBFDC
:1016E3006B028031BF6C5A80469000DFE014F0E05B
:1016F300FEBEFF4D9000DFE4F080469000DFE02463
:10170300D5FEE43400FD8E828D83E0FC1C8E828D39
:1017130083ECF0802C9000DFE024D5FEE43400FD60
:101723008E828D83E0FC0C8E828D83ECF080129090
:1017330000DFE02401F0E0FEBE0A06EE149000DFB5
:10174300F0900099E0FEBE6802800DBE6A0280261A
:10175300BE6B028021BE6C609000DFE0FE7D00C0A6
:1017630006C0057410C0E07443C0E0123092E581F6
:1017730024FCF58180427E00EE24D5F582E434001A
:10178300F583E0FD7C00C006C005C004741DC0E005
:101793007443C0E07480C0E01235FEE58124FBF59C
:1017A30081D0060EBE0A0040CF742BC0E0743FC048
:1017B300E012309215811581900099E0FEBE65021A
:1017C300801ABE732C7423C0E07443C0E0123092BD
:1017D300158115819000A17403F080157448C0E051
:1017E3007443C0E0123092158115819000A17404F6
:1017F300F0900099E0FEBE3002802CBE3102806082
:10180300BE320302189CBE33030218D5BE34030252
:10181300190EBE3503021947BE6A030219C8BE6B0F
:1018230003021980021A0C90009CE075F004A424B2
:101833005DF582740035F0F583E0FBA3E0FCA3E0E3
:10184300FDA3E0FE7533D5753400753500753100A1
:101853007532008B828C838DF0EE12117B021A0C91
:1018630090009CE075F004A4245DF582740035F0CB
:10187300F583E0FBA3E0FCA3E0FDA3E0FE7533D515
:101883007534007535007531017532008B828C8398
:101893008DF0EE12117B021A0C90009CE075F0049F
:1018A300A4245DF582740035F0F583E0FBA3E0FC2E
:1018B300A3E0FDA3E0FE7533D575340075350075DF
:1018C30031027532008B828C838DF0EE12117B0214
:1018D3001A0C90009CE075F004A4245DF58274005A
:1018E30035F0F583E0FBA3E0FCA3E0FDA3E0FE7588
:1018F30033D57534007535007531027532FF8B822F
:101903008C838DF0EE12117B021A0C90009CE07513
:10191300F004A4245DF582740035F0F583E0FBA3A5
:10192300E0FCA3E0FDA3E0FE7533D5753400753507
:10193300007531037532008B828C838DF0EE1211AA
:101943007B021A0C90009CE075F004A4245DF582E0
:10195300740035F0F583E0FBA3E0FCA3E0FDA3E016
:10196300FE7533D57534007535007531037532FF57
:101973008B828C838DF0EE12117B021A0C90009CEB
:10198300E0FEBE0D00500690009CEE04F090009C1B
:10199300E075F004A4245DF582740035F0F583E06E
:1019A300FBA3E0FCA3E0FDA3E0FEC003C004C0056D
:1019B300C00674D6C0E07441C0E0123092E58124C1
:1019C300FAF581804490009CE0FEE06006EE1490FE
:1019D300009CF090009CE075F004A4245DF58274F3
:1019E3000035F0F583E0FBA3E0FCA3E0FDA3E0FEFC
:1019F300C003C004C005C00674D6C0E07441C0E093
:101A0300123092E58124FAF581900099E0FEBE3010
:101A130002801CBE31028017BE32028012BE330226
:101A2300800DBE34028008BE35028003021B209065
:101A3300010A7407F090010C740AF090010E74D53A
:101A4300F07400A3F0E4A3F090010975F0001223F1
:101A5300A290010975F00012268A90009CE075F0AF
:101A630004A4245DF582740035F0F583E0FBA3E064
:101A7300FCA3E0FDA3E08B828C838DF0122B8F02FD
:101A83001B208F057E00C005C006742EC0E0743F86
:101A9300C0E0123092E58124FCF581021B20EFC4E3
:101AA300540F701FEFFE24FC5003021B20EE2E90F8
:101AB3001AB6738006800880648062C290805ED20A
:101AC30090805A8F8212239F746DC0E07443C0E0EC
:101AD3001230921581158180449000A2E0FF24FB0F
:101AE300403BEF2F901AEB7380338006802F802DBD
:101AF300802B900058E0FEA3E0FFC3740A9EE49F8E
:101B0300501B9000E0E0FFE060137525A3752600ED
:101B13007527008F8212096C9000E0E4F090009E1C
:101B2300E0FF7003021C29A295E433FEA2B0E43364
:101B330025E04206A280E43325E025E04206A29395
:101B4300E433C40354F84206A297E433C454F04E7A
:101B5300F582751A9F751B00751C00C00712087F5C
:101B6300AE82D007BE01028003021E80EFFE24FA7C
:101B73005003021E80EE2E2E901B7F73021E8002E6
:101B83001B91021BA2021C0E021C17021C20D296E0
:101B9300C290D291C29290009EEF04F0021E8090F8
:101BA300005DE0FBA3E0FCA3E0FDA3E08B828C835C
:101BB3008DF0122B8F75825112239F900071E0FBE1
:101BC300A3E0FCA3E0FDA3E0FEC003C004C005C086
:101BD3000674D6C0E07441C0E0123092E58124FA65
:101BE300F581900071E0FBA3E0FCA3E0FDA3E08B93
:101BF300828C838DF0122B8F90009D7402F09000E5
:101C03009B14F090009EE4F0021E8090009EEF046F
:101C1300F0021E8090009EEF04F0021E8090009E52
:101C2300EF04F0021E80A295E433FFA2B0E4332553
:101C3300E04207A280E43325E025E04207A293E4D3
:101C430033C40354F84207A297E433C454F04FF566
:101C530082751A9F751B00751C0012087FAF82BF27
:101C630001028003021E8090009FE0FFFEBE01037D
:101C7300021E1FBF0203021CF4BF0403021DBCBFEC
:101C830008028009BF1003021D58021E8090010A3A
:101C93007407F090009CE075F004A4245DF5827451
:101CA3000035F0F583E0FCA3E0FDA3E0FEA3E0FF35
:101CB3007533D57534007535007531007532008C78
:101CC300828D838EF0EF12117B90010C740AF090D9
:101CD300010E74D5F07400A3F0E4A3F0900109752C
:101CE300F0001223A290010975F00012268A021E49
:101CF3008090010A7407F090009CE075F004A4241E
:101D03005DF582740035F0F583E0FCA3E0FDA3E00C
:101D1300FEA3E0FF7533D5753400753500753101C9
:101D23007532008C828D838EF0EF12117B90010C43
:101D3300740AF090010E74D5F07400A3F0E4A3F0DC
:101D430090010975F0001223A290010975F00012A9
:101D5300268A021E8090010A7407F090009CE075A9
:101D6300F004A4245DF582740035F0F583E0FCA350
:101D7300E0FDA3E0FEA3E0FF7533D57534007535B0
:101D8300007531027532008C828D838EF0EF121153
:101D93007B90010C740AF090010E74D5F07400A3CB
:101DA300F0E4A3F090010975F0001223A290010959
:101DB30075F00012268A021E8090010A7407F090C3
:101DC300009CE075F004A4245DF582740035F0F501
:101DD30083E0FCA3E0FDA3E0FEA3E0FF7533D5752C
:101DE30034007535007531027532FF8C828D838E18
:101DF300F0EF12117B90010C740AF090010E74D570
:101E0300F07400A3F0E4A3F090010975F00012232D
:101E1300A290010975F00012268A806190010A746C
:101E230005F090009CE075F004A4245DF582740035
:101E330035F0F583E0FCA3E0FDA3E0FEA3E0FF752E
:101E430033D57534007535007531027532FF8C82D8
:101E53008D838EF0EF12117B90010C740AF09001C8
:101E63000E74D5F07400A3F0E4A3F090010975F0AB
:101E7300001223A290010975F00012268A9000A097
:101E8300E0FF6005BF015980209000A1E0FFBF0380
:101E93004F9000A07401F090005AE4F0A3F0904337
:101EA3007075F080121133803790005AE0FEA3E082
:101EB300FFC374E89E74039F501090005AE4F0A38C
:101EC300F090437C75F0801211339000A1E0FFBFC6
:101ED300040E9000A0E4F090438875F08012113353
:101EE3009000A2E0FFBF080280030214C190009A91
:101EF30075F000122E68E58270030214C190005C35
:101F0300E0FF24F950030214C1EF2F2F901F137326
:101F1300021F28021F3E021F5E021F84021FCC0203
:101F230020190214C190009AE060030214C19000CA
:101F33005C7401F0900056F00214C190009AE0FF27
:101F4300BFF00E90005C7402F090005714F002147E
:101F5300C1900056E02401F00214C190009AE0FF02
:101F6300BFF00A900057E02401F00214C190005C16
:101F73007403F09000547401F0900044EFF00214E5
:101F8300C1900054E0FF04F0EF2444FFE43400FE6A
:101F930090009AE0FD8F828E83F0900054E0FFBFA3
:101FA300080280030214C1753D44753E00753F006D
:101FB300900056E0F540900057E0F5418F821212F1
:101FC3002690005CE4F00214C190009AE0F58212BE
:101FD3003035AF82BF0137900054E0FF04F0EF24A7
:101FE30044FFE43400FE90009AE0F582C007C00687
:101FF300123069AD82D006D007900055E042058FBC
:10200300828E83EDF090005C7405F00214C19000A1
:102013005CE4F00214C190009AE0F582123035AF0F
:1020230082BF011C90005C7404F090009AE0F5827A
:10203300123069E582C454F0FF900055F00214C1D8
:0820430090005CE4F00214C1FE
:103EFD000A0D0073656C66200063726F7373006248
:103F0D006F74682000206F75747075743A54686909
:103F1D0073206973205541525425640A0D000D0A12
:103F2D00002563000D0A696E7075743A54686973E3
:103F3D00206973205541525425640049646C6520F5
:103F4D00707265616D626C65206F6E2F6F66660DA8
:103F5D000A004C696E65466920506F776572204F77
:103F6D0066660D0A004C696E65466920506F77656F
:103F7D0072204F6E0D0A004C696E654669205561C1
:103F8D007274205478204C6F770D0A004C696E6561
:103F9D004669205561727420547820486967680D10
:103FAD000A004C696E6546692043534320727820A0
:103FBD0046534D204F66660D0A004C696E65466985
:103FCD00204353432072782046534D204F4E0D0A07
:103FDD000056657273696F6E20312E34206F6E201E
:103FED0032303233313032360D0A00313A20646FBF
:103FFD00776E6C696E6B207061636B657420310D2B
:10400D000A00323A20646F776E6C696E6B207061B6
:10401D00636B657420320D0A00333A2075706C693C
:10402D006E6B2069646C6520707265616D626C6584
:10403D00206F6E2F6F66660D0A00702F503A204C60
:10404D00696E65466920506F776572206F66662FC1
:10405D006F6E0D0A00742F543A204C696E654669D7
:10406D002055617274205478204C6F772F48696702
:10407D00680D0A00732F533A204C696E65466965C9
:10408D00204353432052782046534D206F66662FB0
:10409D006F6E0D0A00746573742070726F636564C2
:1040AD007572653A2070202D3E2050202D3E2054F3
:1040BD00202D3E2053202D3E2031206F7220320DB9
:1040CD000A00743A2074696D65720D0A00303A2049
:1040DD004C696E65466920454E302C312C32206F6F
:1040ED0066660D0A00313A204C696E6546692045B9
:1040FD004E30203D20310D0A00323A0D0A00333A80
:10410D000D0A00343A0D0A00353A0D0A00363A0D03
:10411D000A00373A0D0A00683A20416464722D2D69
:10412D000D0A006A3A20436D642D2D0D0A006B3A7D
:10413D0020436D642B2B0D0A006C3A204164647290
:10414D002B2B0D0A00733A2073656E64696E670D33
:10415D000A0025750A0D004C494E4546495F454EEE
:10416D00303D300A0D004C494E4546495F454E30B5
:10417D003D310A0D004C494E4546495F54583D307E
:10418D000A0D004C494E4546495F54583D310A0DC4
:10419D00004C494E4546495F54583D25640A0D0073
:1041AD004C494E4546495F454E303D0025640A0D4C
:1041BD00004C494E4546495F454E313D004C494EF8
:1041CD004546495F454E323D0075617274207370EE
:1041DD006565643A20256C753A0A0D006164647258
:1041ED006573733A2025640A0D00636F6D6D616E02
:1041FD00643A2025640A0D004C696E6546692053AA
:10420D00656E64696E673A20307825783A0A0D003C
:10421D00616464726573733A20307825643A0A0DCF
:10422D00004C696E6546692053656E64696E673A28
:10423D002025642830782578290A0D0073656E6471
:10424D0020646174612025642830782578290A0D51
:10425D0000526F7461746521213A2564200A0D00A6
:10426D0053746F70202020203A2564200A0D0025FC
:10427D00640D0A0025730D0A00256C752825782C10
:10428D002025782C202578290D0A0025642D2D2D2B
:10429D002D2D2D2D2D2D2D2D2D2D2D2D2D2D2D2D41
:1042AD002D2D2D2D0D0A0025642C25640D0A0025BC
:1042BD00643A307825780D0A002D2D2D2D2D2D2DBC
:1042CD002D2D2D2D2D2D2D2D2D2D2D2D2D2D2D2D11
:1042DD000D0A00546869732069732055415254309A
:1042ED000A0D004C696E654669204D6173746572E7
:1042FD000A0D005468697320697320554152543179
:10430D000A0D00446174614964783A25640D0A0010
:10431D0030782578200053544152542070657269CD
:10432D006F646963207061636B65742067656E658A
:10433D00726174696E672E2E0D0A0053544F502012
:10434D0020706572696F646963207061636B657459
:10435D002067656E65726174696E672E2E0D0A0099
:10436D004F4B007374617274696E672E2E2E007040
:10437D006572696F6469632E2E2E0073746F707091
:10438D00696E672E2E2E0055415254305F494E50A6
:10439D0055545F4D4F4445303A6F6E65206B6579CE
:1043AD0020636F6E74726F6C0055415254305F49CB
:1043BD004E5055545F4D4F4445313A737472696E8A
:1043CD006720696E7075740055415254305F494EC7
:1043DD005055545F4D4F4445323A6D696D696320B8
:1043ED00356B657973206F6E20626F617264005555
:1043FD00415254305F494E5055545F4D4F444533F3
:10440D003A646174612073657474696E6700554117
:10441D005254305F494E5055545F4D4F4445343AD8
:10442D00706572696F6469632066756E6374696F18
:10443D006E0055415254305F494E5055545F4D4FAB
:10444D004445353A75706C696E6B207465737400F4
:10445D0055415254305F494E5055545F4D4F444570
:10446D00363A6C6F6F706261636B207465737400A4
:10447D0055415254305F494E5055545F4D4F444550
:10448D00373A70617373207468726F756768005581
:10449D00415254305F494E5055545F4D4F4445384D
:0C44AD003A2075706C696E6B207278000C
:10204B0075C7AA75C75575FD5A75C7AA75C7557556
:10205B00FDA575820022AC82AD83AEF0FF538EF7E7
:10206B00438901D28CEC4D4E4F601A758A76758C74
:10207B00FF108D0280FB1CBCFF091DBDFF051EBEA2
:10208B00FF011F80E0C28C22AC82AD83AEF0FF5308
:10209B008EF7438901D28CEC4D4E4F601A758A989E
:1020AB00758CFA108D0280FB1CBCFF091DBDFF0552
:1020BB001EBEFF011F80E0C28C22AC82AD83AEF04E
:1020CB00FF538EEF438910D28EEC4D4E4F601A7535
:1020DB008BF6758DC9108F0280FB1CBCFF091DBDD3
:1020EB00FF051EBEFF011F80E0C28E22AC82AD83B6
:1020FB00AEF0FF53C9BF53C9DF43C910D2CAEC4D71
:10210B004E4F601A75CCE575CDF710CF0280FB1CD6
:10211B00BCFF091DBDFF051EBEFF011F80E0C2CA2B
:10212B0022AC82AD83AEF0FF75C40743C408EC4DFF
:10213B004E4F602575C55775C6CDAAC45302107B8B
:10214B0000BA10F6BB00F353C4EF1CBCFF091DBD56
:10215B00FF051EBEFF011F80D553C4F722AC82AD15
:10216B0083AEF0FF75C40743C408EC4D4E4F60259A
:10217B0075C5D775C6FFAAC45302107B00BA10F6FB
:10218B00BB00F353C4EF1CBCFF091DBDFF051EBEF6
:10219B00FF011F80D553C4F722AF82A2AF9200C2BA
:1021AB00AF75C7AA75C755439F01A20092AFE51D36
:1021BB006013A2AF9200C2AF75C7AA75C75543A5EE
:1021CB0001A20092AF851BA6851AA7851CAE8FAF07
:1021DB00A2AF9200C2AF75C7AA75C75543A401A29F
:1021EB000092AFE51D6026A2AF9200C2AF75C7AAE1
:1021FB0075C75553A5FEA20092AFA2AF9200C2AF16
:10220B0075C7AA75C755539FFEA20092AF22AE8227
:10221B00AF838F1A8E1B751CFF751D0175822202F1
:10222B0021A4AE82AF838F1A8E1B85101C751D01E6
:10223B007582210221A4751A00751B0C751C007583
:10224B001D007582041221A4AFAE751A00751B0D0B
:10225B00751C00751D00758204C0071221A4D007E0
:10226B00E5AE540FFEA2AF9200C2AF75C7AA75C7F9
:10227B0055539FFEA20092AFE4C454F0CFC4CF6F6E
:10228B00CF54F0CF6FFD7C00EE2FF582EC3DF58344
:10229B002285821B751A00751C00751D0075820442
:1022AB001221A485AE82A2AF9200C2AF75C7AA75E8
:0A22BB00C755539FFEA20092AF2208
:1002AF00E4F542F5439001117450F07445A3F074D6
:1002BF0080A3F0900114745BF07445A3F07480A3D5
:1002CF00F09001177466F07445A3F07480A3F0905A
:1002DF00011A7471F07445A3F07480A3F090011D9E
:1002EF00747EF07445A3F07480A3F0900120748A9B
:1002FF00F07445A3F07480A3F09001237499F07407
:10030F0045A3F07480A3F090012674A7F07445A361
:10031F00F07480A3F090012974A7F07445A3F074D2
:10032F0080A3F090012C74A7F07445A3F07480A300
:10033F00F090012F74A7F07445A3F07480A3F09090
:10034F00013274A7F07445A3F07480A3F0900135C7
:10035F0074A7F07445A3F07480A3F090013874A7CC
:10036F00F07445A3F07480A3F090013B74A7F07470
:10037F0045A3F07480A3F090013E74A7F07445A3D9
:10038F00F07480A3F090014174A7F07445A3F0744A
:10039F0080A3F090014474A7F07445A3F07480A378
:1003AF00F090014774A7F07445A3F07480A3F09008
:1003BF00014A74A7F07445A3F07480A3F090014D27
:1003CF0074A7F07445A3F07480A3F090015074A744
:1003DF00F07445A3F07480A3F090015374A7F074E8
:1003EF0045A3F07480A3F090015674A7F07445A351
:1003FF00F07480A3F090015974A7F07445A3F074C2
:10040F0080A3F090015C74A7F07445A3F07480A3EF
:10041F00F090015F74A7F07445A3F07480A3F0907F
:0D042F00016274A7F07445A3F07480A3F07F
:1022C500AD82AE83AFF074032DFDE43EFE8D828EAC
:1022D500838FF0123EE12405F58222AD82AE83AFF5
:1022E500F08D028E038F04751A04751BFF8A828B8D
:1022F500838CF0C007C006C0051228C285821BD09A
:1023050005D006D00774052DFAE43EFB8F048A82BA
:102315008B838CF0123EE1FAA3123EE1FBA3123E41
:10232500E1FC74032DFDE43EFE8D828E838FF01259
:102335003EE1F51A8A828B838CF00228C2AD82AE0B
:1023450083AFF0C007C006C0051222E0AC82D005FD
:10235500D006D00774042DFDE43EFE8D828E838F5A
:10236500F0EC0235BBAD82AE83AFF0C007C006C04E
:10237500051222E0AC82D005D006D00774042DFDED
:10238500E43EFE8D828E838FF0123EE1B504047526
:1023950082012275820022022E68022F42AD82AE92
:1023A50083AFF0C007C006C0051222E0AC82D0059D
:1023B500D006D0078D018E028F0389828A838BF028
:1023C500123EE1F58209B900010AC007C006C00541
:1023D500C004C003C002C00112239FD001D002D0A7
:1023E50003D004D005D006D00789828A838BF012EA
:1023F5003EE1F58209B900010AC007C006C005C063
:1024050004C003C002C00112239FD001D002D00333
:10241500D004D005D006D00789828A838BF0123E7E
:10242500E1F809B900010A8882C007C006C005C0E5
:1024350004C003C002C00112239FD001D002D00303
:1024450089828A838BF0123EE1F58212239FD004A4
:102455008C8212239FD005D006D00774052DFAE48F
:102465003EFB8F0474032DFDE43EFE7900C002C0DF
:1024750003C0048D828E838FF0123EE17C0024FB25
:10248500F8EC34FFFC89027B00C3EA98EB64808C8E
:10249500F063F08095F0D004D003D0025054C0050D
:1024A500C006C0078A828B838CF0123EE1F8A31226
:1024B5003EE1FEA3123EE1FFE928F8E43EFE8882F4
:1024C5008E838FF0123EE1F582C007C006C005C0BD
:1024D50004C003C002C00112239FD001D002D00363
:1024E500D004D005D006D00709D007D006D0050204
:1024F500247222AF82BF0500500475820322AD47C6
:10250500AE48AF49AA44AB45AC468A828B838CF072
:10251500123EE1F974012AF544E43BF5458C468DFC
:10252500828E838FF0E91235BB0DBD00010EAA44E2
:10253500AB45AC468A828B838CF0123EE1F974017F
:102545002AF544E43BF5458C468D828E838FF0E970
:102555001235BB0DBD00010EAA44AB45AC468A82BF
:102565008B838CF0123EE1F974012AF544E43BF5C6
:10257500458C468D828E838FF0E91235BB0DBD00EB
:10258500010EAA44AB45AC468A828B838CF0123E81
:10259500E1F974012AF544E43BF5458C468D828EBC
:1025A500838FF0E91235BB0DBD00010EAA44AB4582
:1025B500AC468A828B838CF0123EE1F974012AF5D0
:1025C50044E43BF5458C468D828E838FF0E91235C8
:1025D500BBAD47AE48AF4974032DFAE43EFB8F040B
:1025E50085444B85454C85464D754A00C005C0065A
:1025F500C0078A828B838CF0123EE1790024FBF8B8
:10260500E934FFF9AE4A7F00C3EE98EF648089F0A4
:1026150063F08095F0D007D006D0055053C002C0B6
:1026250003C00474052DF8E43EF98F04888289837C
:102635008CF0123EE1F8A3123EE1F9A3123EE1FC53
:10264500E54A28F8E439F9854B82854C83854DF0B8
:10265500123EE1FBA385824B85834C888289838C5E
:10266500F0EB1235BB054AD004D003D0020225F1A8
:102675008D828E838FF012236AE582700475820441
:102685002275820222AD82AE83AFF0C007C006C0BC
:102695000574B9C0E07444C0E0123092158115810B
:1026A500D005D006D0078D828E838FF0123EE1FCD7
:1026B5007B00C007C006C005C004C00374DBC0E0D2
:1026C5007444C0E0123092E58124FCF581D005D038
:1026D50006D00774012DFAE43EFB8F048A828B83B2
:1026E5008CF0123EE1FA75F003A42411F582740111
:1026F50035F0F583E0F9A3E0FBA3E0FC8A007A005E
:10270500C007C006C005C001C003C004C000C002A8
:1027150074E6C0E07444C0E0123092E58124F9F516
:1027250081D005D006D00774022DFAE43EFB8F0454
:102735008A828B838CF0123EE1FA7C00C007C006CA
:10274500C005C002C00474F5C0E07444C0E0123096
:1027550092E58124FCF581D005D006D00774032DC0
:10276500FAE43EFB8F048A828B838CF0123EE1FAF9
:102775007C00C007C006C005C002C0047400C0E0EC
:102785007445C0E0123092E58124FCF581D005D076
:1027950006D0078D828E838FF0C007C006C0051254
:1027A50022E0AC82D005D006D0077B0074042DF85A
:1027B500E43EF98F02888289838AF0123EE1F87A35
:1027C50000C007C006C005C004C003C000C0027435
:1027D5000BC0E07445C0E0123092E58124FAF58122
:1027E500741EC0E07445C0E012309215811581D089
:1027F50005D006D00774052DFAE43EFB8F0474035B
:102805002DFDE43EFE754E00C002C003C0048D825E
:102815008E838FF0123EE1790024FBF8E934FFF94D
:10282500AB4E7C00C3EB98EC648089F063F0809537
:10283500F0D004D003D0025065C005C006C0078A99
:10284500828B838CF0123EE1F8A3123EE1F9A312CC
:102855003EE1FFE54E28F8E439F9888289838FF057
:10286500123EE1F87F00C007C006C005C004C003E2
:10287500C002C000C0077425C0E07445C0E0123036
:1028850092E58124FCF581D002D003D004D005D097
:1028950006D007054ED007D006D00502280D742BAB
:1028A500C0E07445C0E01230921581158174B9C03D
:1028B500E07444C0E01230921581158122AD82AEDC
:1028C50083AFF0AC1BED4E60217B00C3EB951A5036
:1028D500198D828E838FF0123EE1FAA3AD82AE830D
:1028E500EC6A9029FE93FC0B80E18C8222AF82ADCD
:1028F50042AE430542E4B542020543C007C005C0E8
:1029050006742EC0E07445C0E0123092E58124FCC7
:10291500F5817434C0E07445C0E01230921581151C
:1029250081D0077E00C3EE9F50248E047D00C00732
:10293500C006C004C005743CC0E07445C0E0123058
:1029450092E58124FCF581D006D0070E80D7C0071B
:10295500742BC0E07445C0E0123092158115817466
:1029650043C0E07445C0E012309215811581D0074F
:102975007E00C3EE9F5072AB4FAC50AD518B828C35
:10298500838DF0123EE1FABA100050308A017401CD
:102995002BF54FE43CF5508D5189007900C007C0F7
:1029A50006C000C0017449C0E07445C0E012309211
:1029B500E58124FCF581D006D007802A74012BF52A
:1029C5004FE43CF5508D517D00C007C006C002C0E4
:1029D500057425C0E07445C0E0123092E58124FC01
:1029E500F581D006D0070E8089742BC0E07445C0F0
:0929F500E01230921581158122D7
:1044B9002D2D2D2D2D2D2D2D2D2D2D2D2D2D2D2D23
:1044C9002D2D2D2D2D2D2D2D2D2D2D2D2D2D2D0D33
:1044D9000A00566572203A2025640D0A0054797045
:1044E900653A202564282573290D0A004164647200
:1044F9003A2025640D0A0053697A653A2025640D2E
:104509000A0043524320636F6D70203A20256420CE
:1045190025640D0A00444154413A20003078257839
:0545290020000D0A0056
:1029FE0000316253C4F5A697B988DBEA7D4C1F2ED1
:102A0E004372211087B6E5D4FACB98A93E0F5C6DC0
:102A1E0086B7E4D5427320113F0E5D6CFBCA99A8B0
:102A2E00C5F4A796013063527C4D1E2FB889DAEBA0
:102A3E003D0C5F6EF9C89BAA84B5E6D74071221390
:102A4E007E4F1C2DBA8BD8E9C7F6A5940332615080
:102A5E00BB8AD9E87F4E1D2C02336051C6F7A49570
:102A6E00F8C99AAB3C0D5E6F4170231285B4E7D660
:102A7E007A4B1829BE8FDCEDC3F2A1900736655450
:102A8E0039085B6AFDCC9FAE80B1E2D34475261740
:102A9E00FCCD9EAF38095A6B4574271681B0E3D230
:102AAE00BF8EDDEC7B4A192806376455C2F3A09120
:102ABE004776251483B2E1D0FECF9CAD3A0B586910
:102ACE0004356657C0F1A293BD8CDFEE79481B2A00
:102ADE00C1F0A3920534675678491A2BBC8DDEEFF0
:102AEE0082B3E0D1467724153B0A5968FFCE9DACE0
:10452E002325640D0A00726177203A20200025327F
:10453E006420202000646174613A00307830257860
:10454E002000547970655F42636173740054797012
:10455E00655F556361737400547970655F4D636177
:10456E00737400547970655F5365744164647200AE
:10457E00547970655F5365744C4544005479706589
:10458E005F4374726C4D6F746F7200547970655F17
:10459E00526561644164647200547970655F4E6F58
:0345AE006E650037
:10043C00900165E4F0900166F0900167F09001681E
:10044C00F0900169740AF090016A14F090016B74D9
:10045C0006F090016C14F090016D740FF090016E29
:10046C00F090016FF0900170F0900171F0900172BA
:10047C007403F090017314F0900174740FF09001F8
:10048C0075F09001767401F0900177E4F0900178AA
:10049C00740FF0900179F090017AF090017BF0905C
:1004AC00017CF090017DE4F090018DF090019DF0C5
:1004BC009001ADF09001BDF09001BEF09001BFF045
:1004CC009001C0F09001C1F09001C2F09001C3F016
:1004DC009001C4F09001C5F09001C6F09001C7F0F6
:1004EC009001C8F09001C9F09001CAF09001CBF0D6
:0404FC009001CCF0AF
:102AFE00AC82AD83AEF0FF53B1BF53B2BF53B17FC3
:102B0E0053B27F759850438920438780438E10536C
:102B1E00C4DF8C1A8D1B8E1C8F1D90D4BC75F00FCC
:102B2E00E4123513AC82C3E49CF58DD28ED2992279
:102B3E00AC82AD83AEF0FF53B1BF53B2BF53B17F82
:102B4E0053B27F75985043878053C4F843C4208C8A
:102B5E001A8D1B8E1C8F1D90D4BC75F00FE4123590
:102B6E0013AC82AD83AEF0FFE4C39CE49DF9740117
:102B7E009EE49F89C6C3E49CFC8CC543C408D299CD
:102B8E0022AC82AD83AEF0FF53B1FB53B2FB53B315
:102B9E00BF53B4BF75F85875C40853C4DF8C1A8D73
:102BAE001B8E1C8F1D90D4BC75F00FE4123513AC28
:102BBE0082AD83AEF0FFE4C39CE49DF974019EE404
:102BCE009F89C6C3E49CFC8CC543C40822022B8F8C
:102BDE00AE82E51170078E82122F0980058E821249
:102BEE002F429000002290C20075F001E4122AFEDE
:102BFE0090C20075F001E4122B8FD2AC439C01D22F
:102C0E00AF22C2999001C0E0FFE07001227D647E88
:102C1E000000000000ED24FFFBEE34FFFC8B058C62
:102C2E0006EB4C70EC9001C1E0FE04F0EE248DF545
:102C3E0082E43401F583E0F599EF149001C0F09031
:102C4E0001C1E0FFBF10059001C1E4F022C021C018
:102C5E00E0C0F0C082C083C007C006C005C004C07B
:102C6E0003C002C001C000C0D075D00830983B90A0
:102C7E0001C9E02401F09001BDE0FFBF1000502813
:102C8E009001BFE0FF04F0EF247DF582E43401F5FE
:102C9E0083E599F09001BDE02401F09001BFE0FFC3
:102CAE00BF10059001BFE4F0C2983099109001CA90
:102CBE00E02401F075D000122C1075D008D0D0D0C1
:102CCE0000D001D002D003D004D005D006D007D05A
:102CDE0083D082D0F0D0E0D021329001BDE0F582D9
:102CEE0022AD82AE83AFF09001BDE07003F582227B
:102CFE00C2AC9001BEE0FC04F0EC247DF582E4341D
:102D0E0001F583E08D828E838FF01235BB9001BD6D
:102D1E00E014F09001BEE0FFBF10059001BEE4F09C
:102D2E00D2AC75820122AF829001BDE0FE7003F538
:102D3E008222C3EE9F50028E07AC1AAD1BAE1C7BD7
:102D4E0000C3EB9F50309001BEE0FA04F0EA247D00
:102D5E00F582E43401F583E08C828D838EF012359A
:102D6E00BBA3AC82AD839001BEE0FABA1005900110
:102D7E00BEE4F00B80CB9001BDE0C39FF08F8222AA
:102D8E00C2F99001C6E0FFE07001227DC87E00000E
:102D9E00000000ED24FFFBEE34FFFC8B058C06EBF0
:102DAE004C70EC9001C7E0FE04F0EE24ADF582E429
:102DBE003401F583E0F59AEF149001C6F09001C747
:102DCE00E053E00FF022C021C0E0C0F0C082C0830B
:102DDE00C007C006C005C004C003C002C001C000C9
:102DEE00C0D075D00830F83B9001CBE02401F090B4
:102DFE0001C3E0FFBF100050289001C5E0FF04F0B2
:102E0E00EF249DF582E43401F583E59AF09001C339
:102E1E00E02401F09001C5E0FFBF10059001C5E46C
:102E2E00F0C2F830F9109001CCE02401F075D0001A
:102E3E00122D8E75D008D0D0D000D001D002D00384
:102E4E00D004D005D006D007D083D082D0F0D0E009
:102E5E00D021329001C3E0F58222AD82AE83AFF075
:102E6E009001C3E07003F58222539CFE9001C4E0F2
:102E7E00FC04F0EC249DF582E43401F583E08D82B0
:102E8E008E838FF01235BB9001C3E014F09001C415
:102E9E00E0FFBF10059001C4E4F0439C0175820170
:102EAE0022AF829001C3E0FE7003F58222C3EE9F33
:102EBE0050028E07AC1AAD1BAE1C7B00C3EB9F50AD
:102ECE00309001C4E0FA04F0EA249DF582E4340166
:102EDE00F583E08C828D838EF01235BBA3AC82AD70
:102EEE00839001C4E0FABA10059001C4E4F00B809F
:102EFE00CB9001C3E0C39FF08F8222AF829001C0BE
:102F0E00E0FEBE100040030080F39001C2E0FE041C
:102F1E00F0EE248DF582E43401F583EFF09001C0DC
:102F2E00E02401F09001C2E0FFBF10059001C2E461
:102F3E00F0D29922AF829001C6E0FEBE1000400A88
:102F4E00900166E02401F00080EC900165E0240120
:102F5E00F0539CFE9001C8E0FE04F0EE24ADF58225
:102F6E00E43401F583EFF09001C6E02401F0900106
:102F7E00C8E053E00FF09001C6E0FFBF010B9001D7
:102F8E0068E02401F0D2F98007900167E02401F097
:102F9E00439C01227511019000F0022BDEAF827569
:102FAE001101EF23235403FE5306037D00EE246923
:102FBE00F582ED3401F583E0FEE4CEC4CE6ECE5440
:102FCE00F0CE6EFDEFC4540FFC5304037B00EC24D3
:102FDE0069F582EB3401F583E07B004EF582EB4D13
:102FEE00F583C007122BDED007EF0303543FFE53C9
:102FFE0006037D00EE2469F582ED3401F583E0FED3
:10300E00E4CEC4CE6ECE54F0CE6EFD5307037C00DC
:10301E00EF2469F582EC3401F583E07C004EF582F5
:10302E00EC4DF583022BDEE582FFC4540F246DF5C3
:10303E0082E43401F583E0FEBE0F04758200225354
:10304E00070F7E00EF246DF582EE3401F583E0FF6D
:10305E00BF0F047582002275820122E582FFC454DF
:10306E000F246DF582E43401F583E025E025E0FEC2
:10307E0053070F7D00EF246DF582ED3401F583E0EB
:10308E004EF58222C018858118E51824FDF8868336
:10309E0018868218E493A3B42577C201C202C20334
:1030AE00C204C205C20679127700C207E493A324B4
:1030BE00C64017240A50157005B51202D206D20565
:1030CE00FAE775F00AA42AF780E2240A2430B46CD9
:1030DE0004D20180D7B46804D20280D0B473030244
:1030EE00312AB46406123404023186B475061234E1
:1030FE00040231A6B4630518E6188017B4780302EB
:10310E003165B466030232BAB42E067913770080A5
:10311E009B60061234F60230A2023510C083C082C4
:10312E0086F018868318868218300519C206C0826A
:10313E00C083123EE16007A31512E51270F412343B
:10314E00E1D083D082123EE16006A31234F680F500
:10315E00D082D0830230A212317D20020C12317D3A
:10316E0030010612317D12317D1235080230A2E691
:10317E001234E6E6180234E7ED30E71CD204E9F427
:10318E002401F9200212EAF43400FA30010AEBF4B9
:10319E003400FBECF43400FC200210300108EB701C
:1031AE0024EC7021C201EA701CD202E970172007CC
:1031BE0014300509E512600515121234E17430124F
:1031CE0034F60230A2C082C08312341E30056079FC
:1031DE000A30011DEB54F0703619EB540F70301994
:1031EE00EA54F0702A19EA540F702419EF54F07053
:1031FE001E790520020BEF540F701419EE54F07067
:10320E000E7903EE540F700719ED54F0700119E5A5
:10321E0012A204994019F512C003C002C007C006DD
:10322E00C0051234E1D005D006D007D002D003304D
:10323E000419C003C002C007C006C005742D1234A5
:10324E00F6D005D006D007D002D0032002403001C0
:10325E002CC005C006C0078A82EBF5831234E6E562
:10326E00831234E7E5821234E6E5821234E7D0E0C9
:10327E00F5821234E6E582D083D08280058D828E6F
:10328E0083EF1234E7E5831234E6E58380038D8203
:10329E00EE1234E7E5821234E6E5821234E7123597
:1032AE0008D083D082300701220230A230050EE50D
:1032BE0012D39513F51250287512008023E6547F11
:1032CE00FA18860308AE82AF8390477D7D07E4939C
:1032DE002BA3E4933A5003A3DDF48D138E828F83D8
:1032EE00C0001233E6C082C083EFB47E0280194064
:1032FE00112482FDC3EA33FAEB33FBEC33FCDDF42D
:10330E008006F4247F12357875F01BE4F8FFFEFD7D
:10331E00904711E933F9EA33FAEB33FBEC33FC5007
:10332E0017E4932DD4FD7401933ED4FE7402933FA3
:10333E00D4FF74039338D4F8A3A3A3A3D5F0D4E495
:10334E007C50FBFAF9E513232354FC88831235785D
:10335E00ED29D4F517EE3AD4F516EF3BD4F515E575
:10336E00833CD4F51492D5D083D082D0001233E6AC
:10337E00C000C3749E9F5005D0000230BAC08212A6
:10338E003578D08230D50FE92401F9E43AFAE43BDE
:10339E00FBE43CFC40E2D2071231A620050CE513FB
:1033AE0060081233D67003D513F4E5136015742E2E
:1033BE001234F67800D20308E81233D61234E7E856
:1033CE00B513F4D0000230A214C31392D52414F90D
:1033DE00E720D501C4540F22E618F9E618FC33E9AC
:1033EE00339204FF6003430480E618FBE618FA7973
:1033FE0000C202D20122E6F9FD18200212AA01E64D
:10340E00F91830010AAC02AB01E6FA18E6F91822F7
:10341E00E975F06484FE740AC5F084C445F0FD308D
:10342E00020122EA540FF99045B1932DD4FDE944DF
:10343E0010933ED4FEEAC4540FF99045D1932DD487
:10344E00FDE94410933ED4FEE94420933400D4FFAA
:10345E0020010122EB540FF9904601932DD4FDE982
:10346E004410933ED4FEE94420933FD4FFE434004D
:10347E00FAEBC4540FF9904631932DD4FDE9441064
:10348E00933ED4FEE94420933FD4FFE94430933A6F
:10349E00D4FAEC540FF99046717B001234B4ECC49C
:1034AE00540FF99046C1932DD4FDE94410933ED4A8
:1034BE00FEE94420933FD4FFE94430933AD4FAE92D
:1034CE004440933BD4FB22742030060274301234F5
:1034DE00F61512E51270F022C4540F700330031962
:1034EE00D2032490D43440D4C083C082C000F5826D
:1034FE00122BDED000D082D083222003FC74300247
:05350E0034F6D0182284
:1045B100005612682480369248046016722884409E
:1045C100000205071012151720232528303335382E
:1045D100009692888480767268646056524844409E
:1045E1000040812263044586276809509132731483
:1045F1000000000101020202030304040405050690
:10460100003672084480165288246096326804404D
:104611000055106621763287429853086419753027
:1046210000061319263239455258657278859198DA
:10463100007652280480563208846036128864401D
:104641000085715743281400867157432914008649
:1046510000040914192429343843485358636872F3
:1046610000010203040506070809101112131415AD
:1046710000163248648096122844607692082440DD
:10468100007244168860320577492193653810829B
:104691000077553310886644219977543210886524
:1046A1000016335067830017345067840118345162
:1046B10000000000000001010101010102020202EB
:1046C100005612682480369248046016722884408D
:1046D1000054096318722781369145005409631803
:1046E1000043873074176104489135792266095374
:1046F100006836057342107947158452218958267E
:1047010000020508101316182124262932343740D7
:104711000000005000000025000050120000250696
:104721000050120300255601501278002506390069
:104731001253190056760900288804001444020017
:10474100072201000461000052300000261500001C
:104751006307000081030000910100009500000043
:1047610048000000240000001200000006000000C4
:104771000300000001000000010000007DC5DDC351
:0A47810034C2E0BE38BD86BBE4B9C7
:10351300FB7A20E4FCFDFEFFE5822582F582E5834C
:1035230033F583E5F033F5F0EB33FB4017DAE9804D
:1035330042E5822582F582E58333F583E5F033F5B1
:10354300F0EB33FBEC33FCED33FDEE33FEEF33FFF7
:10355300EC951AED951BEE951CEF951D4013EC951C
:103563001AFCED951BFDEE951CFEEF951DFF4382A6
:0535730001DABEEB22AD
:06008E00E478FFF6D8FD46
:103578006040F82582500274FFF582E824F8501E56
:10358800CCCBCAF9E4CC24F85014CBCAF9E4CB2448
:10359800F8500BCAF9E4CA24F85003790022240829
:1035A8006010F8C3EC13FCEB13FBEA13FAE913F908
:1035B800D8F12220F71130F6138883A88220F50964
:1035C800F6A8837583002280FEF280F5F022C018E9
:1035D8008581187E008E83122BDED01822858262A8
:1035E80085836385F064E4F55FF560F561851965A9
:1035F8009035D60236C4C018E581F51824FBFF8F34
:1036080065E4F55FF560F561E51824FBF886620866
:1036180086630886649035D61236C4D01822AF82E5
:10362800C055C056C0571236338007C053C0548F98
:103638008222158115811581055DE4B55D02055E5F
:1036480022AF8274302FFF24C6500B74072FFFE57A
:103658005260034307208F82023626E582FFC45456
:103668000FF582C007123649D007740F5FF5820242
:10367800364985821AAB58AC59AD5AAE5BAA5C750F
:103688001C208A07EF2FF51BEE235401451BFAEB8C
:103698002BFBEC33FCED33FDEE33FEC3EA951A4009
:1036A80008EAC3951AFA430301E51C14FF8F1C703E
:1036B800D18B588C598D5A8E5B8A5C2285825385B2
:1036C8008354855F55856056856157E4F55DF55EE1
:1036D800AD62AE63AF648D828E838FF0123EE1FCE3
:1036E80074012DF562E43EF5638F64ECFF7003020C
:1036F8003EA5BF25028003023E9D7E007D008E66AA
:103708008E677A007B008E687C008E69E4F571F51F
:1037180072756AFF756BFF8562738563748564755E
:103728008573828574838575F0123EE1F576A385ED
:103738008273858374857362857463857564742563
:10374800B57608857682123626808574D02576402F
:1037580003023806E57624C6500302380674FFB51E
:103768006A55B56B5285711A85721B90000AC0069E
:10377800C005C004C003C002123EC4858277858399
:1037880078D002D003D004D005D006857679757A32
:1037980000E5792577F579E57A3578F57AE57924BC
:1037A800D0F571E57A34FFF572E571457260030270
:1037B80037287D01023728856A1A856B1B90000A15
:1037C800C006C005C004C003C002123EC485827989
:1037D80085837AD002D003D004D005D006857677C9
:1037E800757800E5772579F579E578357AF57AE51C
:1037F8007924D0F56AE57A34FFF56B023728742E00
:10380800B5761574FFB56A05B56B028003023728D3
:10381800E4F56AF56B023728749F2576500EE57635
:10382800248540085376DF75520180037552007471
:1038380020B576030238D2742BB576030238CC74DF
:103848002DB5760280797442B576030238D8744370
:10385800B576030238E37444B57603023B30744608
:10386800B57603023B467448B57603023728744997
:10387800B57603023B30744AB57603023728744C98
:10388800B576028050744FB57603023B377450B555
:103898007603023A7B7453B5760280767454B57613
:1038A800030237287455B57603023B3C7458B57645
:1038B80003023B41745AB57603023728023B4A7E1D
:1038C8000102372875660102372875670102372813
:1038D8007B01023728756801023728EB600AE56525
:1038E80014F989658779800DE56524FEF577857774
:1038F80065A9778779857982C006C005C004C003A9
:10390800C002123626D002D003D004D005D0060259
:103918003B6CE56524FDF579857965A97987730997
:103928008774098775191985735885745985755A67
:103938008573828574838575F0C006C005C004C090
:1039480003C002123EAC85827985837AD002D00307
:10395800D004D005D00674FFB56A09B56B06857921
:103968006A857A6BEE704FC3E5799571E57A957241
:103978005044E571C39579F577E572957AF57885C0
:103988007773857874157774FFB577021578E573C2
:103998004574601C758220C006C005C004C003C001
:1039A80002123626D002D003D004D005D00680CF2C
:1039B800857771857872856A77856B788558828571
:1039C8005983855AF0123EE1F57385736E604FC3D3
:1039D800E4957774808578F063F08095F0503F1512
:1039E8007774FFB577021578856E82C006C005C06A
:1039F80004C003C002123626D002D003D004D0057A
:103A0800D006855873855974855A750573E4B5735E
:103A180002057485735885745985755A809EEE70B1
:103A280003023B6CC3E5799571E57A957240030210
:103A38003B6CE571C39579F579E572957AF57A85E8
:103A48007977857A78157974FFB57902157AE577EB
:103A580045787003023B66758220C006C005C00425
:103A6800C003C002123626D002D003D004D005D03D
:103A78000680CCE56524FDF577857765A97787739A
:103A88000987740987751919857358857459857557
:103A98005A855A6F7480256F50057577438019745D
:103AA800A0256F5005757750800E74C0256F50059E
:103AB8007577498003757758857782C006C005C039
:103AC80004C003C00212362675823A123626758261
:103AD80030123626758278123626D002D003D004EA
:103AE800D005D0067449B5770280217450B57702A5
:103AF800801A855982C006C005C004C003C00212DE
:103B08003663D002D003D004D005D006855882C0D1
:103B180006C005C004C003C002123663D002D00339
:103B2800D004D005D006803C7A0175690A803575C5
:103B38006908803075690A802B75691080267C01B8
:103B48008022857682C006C005C004C003C0021268
:103B58003626D002D003D004D005D0068006857959
:103B680071857A72EC6068E56524FCFC8C658C01D3
:103B7800877B09877C09877D09877E191919857BC9
:103B880058857C59857D5A857E5B75588B75594754
:103B9800755A8085587B85597C855A7D7401257BAB
:103BA800F573E4357CF574857D758573588574598E
:103BB80085755A857B82857C83857DF0123EE1FC84
:103BC8008C7B70030236D8857B8212362680C4E54A
:103BD8006970030236D8EB603FE56514F98965879B
:103BE800048C7B757C00757D00757E00857B58850F
:103BF8007C59857D5A857E5BEA6003023C8985583D
:103C08007B757C00757D00757E00857B58857C59A9
:103C1800857D5A857E5B8069E5686025E56524FCBD
:103C2800FC8C658C01877B09877C09877D09877EE9
:103C3800191919857B58857C59857D5A857E5B8045
:103C480040E56524FEFC8C658C018703098704190F
:103C58008B7BECF57C3395E0F57DF57E857B58858F
:103C68007C59857D5A857E5BEA701685587B855917
:103C78007CF57DF57E857B58857C59857D5A857ECA
:103C88005BEA602AE55B30E723C3E49558F57BE4FB
:103C98009559F57CE4955AF57DE4955BF57E857B31
:103CA80058857C59857D5A857E5B80027A007C0127
:103CB8007984E4F57BF57C755C00856982C006C073
:103CC80005C004C002C00112367AD001D002D00467
:103CD800D005D006EC700DE55CC4F579E7FB4579B5
:103CE800F7198002A75C057BE4B57B02057CECB480
:103CF8000100E433FCE5584559455A455B70B889DD
:103D080070857B6C857C6DE57145727005757101F8
:103D1800F572ED7043EE704085717B85727CAB6CFB
:103D28000B8B79757A00C3E579957BE57A957C509C
:103D380021758220C006C005C004C002123626D0F4
:103D480002D004D005D006157B74FFB57B02157C24
:103D580080CC857B71857C72EA601D75822DC006DA
:103D6800C005C004123626D004D005D006157174DB
:103D7800FFB5710215728046E56C456D6040E566D9
:103D8800601D75822BC006C005C004123626D004FB
:103D9800D005D006157174FFB571021572801FE544
:103DA80067601B758220C006C005C004123626D085
:103DB80004D005D006157174FFB571021572EE7046
:103DC8003C85717B85727CAA7BAB7C157B74FFB5C7
:103DD8007B02157CC3E56C9AE56D9B5041ED60064E
:103DE8007A307B0080047A207B008A82C006C00576
:103DF800C004123626D004D005D00680CAC3E56CAC
:103E08009571E56D9572500FE571C3956CF579E57F
:103E180072956DF57A800DE4F579F57A8006857BE3
:103E280079857C7AA970856C7B856D7CAA7BAD7C55
:103E3800157B74FFB57B02157CEA4D602EECB4014E
:103E480000E433FC700A09E7C4540FFD8D5C800759
:103E58008705740F5DF55C855C82C006C004C001EF
:103E6800123649D001D004D00680C1EE7003023664
:103E7800D8AD79AE7A8D038E041DBDFF011EEB4CC3
:103E880070030236D8758220C006C005123626D0C7
:103E980005D00680E08F821236260236D8855D82EC
:043EA800855E83228E
:0B478B003C4E4F20464C4F41543E0076
:103EAC00AA82AB83123EE16003A380F8C3E5829A39
:103EBC00F582E5839BF58322E582851AF0A4C58201
:103ECC00C0F0851BF0A4D0F025F0C583851AF0A4B2
:053EDC002583F583229F
:0D00810075818412204BE582600302007E31
:103EE10020F71430F6148883A88220F507E6A8830A
:0C3EF10075830022E280F7E49322E022B7
:00000001FF
