:040000000200AF3219
:03000B0002066D7D
:0100130032BA
:01001B0032B2
:03002300022D416A
:01002B0032A2
:01003300329A
:03003B000206A614
:01004300328A
:01004B003282
:01005300327A
:01005B003272
:01006300326A
:01006B003262
:01007300325A
:03007B00022EA2B0
:1000C2009000D47401F0753F007540009000D5E4B3
:1000D200F090000104F0900002740CF090000374A0
:1000E20001F0E4A3F09000057405F0900006E4F03E
:1000F2009000077408F09000087403F090001DE46B
:10010200F090001EF090001FF0900023F090002469
:100112007404F09000257401F090002604F0900021
:100122002704F090002804F090002904F090002A9F
:1001320004F090002B04F090002C04F090002D03AA
:10014200F090002EF090002FF0900030F0900031EF
:1001520014F0900032F0900033F0900034F09000F0
:10016200357405F0900036F0900037F0900038F0CA
:1001720090003974A3F0743CA3F07480A3F0900053
:100182003C74B0F0743CA3F07480A3F090003F7410
:10019200C1F0743CA3F07480A3F090004274CEF0DE
:1001A200743CA3F07480A3F090004574E4F0743CB6
:1001B200A3F07480A3F09000487460F07409A3F077
:1001C200E4A3F0A3F090004C7480F07470A3F0E408
:1001D200A3F0A3F0900050F07496A3F0E4A3F0A370
:1001E200F0900054F074E1A3F0E4A3F0A3F09000C7
:1001F20058F074C2A3F07401A3F0E4A3F090005C81
:10020200F07484A3F07403A3F0E4A3F0900060748C
:10021200E0F07493A3F07404A3F0E4A3F0900064FC
:10022200F07408A3F014A3F0E4A3F0900068742023
:10023200F074A1A3F07407A3F0E4A3F090006C742F
:10024200C0F07427A3F07409A3F0E4A3F090007047
:100252007460F074AEA3F0740AA3F0E4A3F090000B
:1002620074F07435A3F0740CA3F0E4A3F09000785A
:1002720074A0F074BBA3F0740DA3F0E4A3F090009B
:100282007CF07410A3F0740EA3F0E4A3F09000A825
:0D029200F0A3F09000AAF0A3F0A3F0A3F0F9
:0304FE0002007E7B
:03007E00020EA3CC
:10050100AF82C007740AC0E07438C0E012316015D0
:10051100811581D007BF0002800ABF01028016BF8A
:1005210002338022740DC0E07438C0E012316015CE
:1005310081158180207413C0E07438C0E0123160ED
:1005410015811581800F7419C0E07438C0E0123133
:100551006015811581AE117F00C006C007741FC0F0
:10056100E07438C0E0123160E58124FCF58122AFEE
:1005710082BF0D028004BF1B11227438C0E07438A1
:10058100C0E012316015811581227E00C007C006CE
:10059100743BC0E07438C0E0123160E58124FCF5A1
:1005A1008122AF82741BB5230280028079AE248E32
:1005B10011AC117D00C007C006C004C005743EC067
:1005C100E07438C0E0123160E58124FCF581D00689
:1005D100D007BF0002800DBF01028021BF0202804F
:1005E1003502066A7F018E11758201C0071205016D
:1005F100852511758201120501D007806C7F028E5D
:1006010011758202C007120501852511758202123A
:100611000501D00780537F008E11758200C007123B
:100621000501D0078043BF0002800ABF0102801488
:10063100BF0236801E852411852382C007120570F2
:10064100D0078025852511852382C007120570D02A
:10065100078016852411852382C007120570852520
:1006610011852382120570D0078F8222C0E0C082DB
:10067100C083C0D0758CFF758AF39000A8E0240177
:10068100F0A3E03400F09000AAE02401F0A3E034EC
:1006910000F0A3E03400F0A3E03400F0D0D0D08328
:1006A100D082D0E032C0E0E5EC75EC00D0E032AEB3
:1006B100875306107F00BE1041BF003EAF84AE8558
:1006C1007D00EF2FFFED33FD5306017C00EE2FFF80
:1006D100EC3DFDEF24F1FFED34FFFD8F06530601E4
:1006E100EDC313CF13CFFD75C7AA75C7558F847599
:1006F100C7AA75C7558E855387EF22AF8275110042
:10070100BF310122BF320122BF33028032BF340127
:1007110022BF50028049BF53030207A0BF54028089
:100721005EBF56030207B0BF70028023BF73028011
:100731005EBF74028039BF76030207B00207C0743E
:1007410055C0E07438C0E012316015811581227402
:100751006CC0E07438C0E0123160158115812274DB
:100761007FC0E07438C0E0123160158115812274B8
:1007710091C0E07438C0E012316015811581227496
:10078100A6C0E07438C0E012316015811581227471
:10079100BCC0E07438C0E01231601581158122744B
:1007A100D4C0E07438C0E012316015811581227423
:1007B100EBC0E07438C0E0123160158115812274FC
:1007C10005C0E07439C0E012316015811581741CD7
:1007D100C0E07439C0E0123160158115817433C0F5
:1007E100E07439C0E0123160158115817454C0E0A4
:1007F1007439C0E012316015811581746FC0E074E5
:1008010039C0E012316015811581748EC0E07439F0
:10081100C0E01231601581158174AFC0E07439C038
:10082100E0123160158115812275B10075B2007534
:10083100B30075B40075AC0075AD0043B32053B47B
:10084100DF43B10453B2FB43B18053B27F53B3BF13
:1008510043B44053B3F743B40853B3EF43B4105315
:10086100B3FB43B40453B3FD43B40253B3FE43B4E7
:100871000153B1FE43B20153B1FD43B20253B1EF93
:1008810043B21053B1F743B208D296D292D293D267
:1008910094C280C281C284C28322E582FF6054EF88
:1008A10030E002B294EF30E102B293EF30E202B2F3
:1008B10092EF30E34890001DE0FF24FC4024EF2F2D
:1008C1009008C5738006800A800E8012C281C280A2
:1008D1008010D281C280800AD281D2808004C281FC
:1008E100D28090001DEF04F0E0FFBF041090001DC6
:1008F100E4F022D294D293D292C281C28022AF82FA
:10090100E519C4540FFE53070FE4FDFCEEB50708CB
:10091100ECB505047582012275820022AD82AE8399
:10092100AFF074012DFAE43EFB8F048A828B838C35
:10093100F01237EEFCBC0402800DBC05030209CCA9
:10094100BC0603020A222274052DF526E43EF52792
:100951008F288526828527838528F01237EEF8A314
:100961001237EEF9A31237EEFC888289838CF012DC
:1009710037EE24FF92948526828527838528F012FD
:1009810037EEFAA31237EEFBA31237EEFC0ABA00D8
:10099100010B8A828B838CF01237EE24FF929385B0
:1009A10026828527838528F01237EEFAA31237EEC7
:1009B100FBA31237EEFC74022AFAE43BFB8A828B1A
:1009C100838CF01237EE24FF92922274052DFDE400
:1009D1003EFE8D828E838FF01237EEFAA31237EE30
:1009E100FBA31237EEFC0ABA00010B8A828B838CBF
:1009F100F01237EE24FF92808D828E838FF01237B2
:100A0100EEFDA31237EEFEA31237EEFF74022DFDA9
:100A1100E43EFE8D828E838FF01237EE24FF9281A9
:100A210022AE227F00C006C00774DCC0E07439C06A
:100A3100E0123160E58124FCF58122AF8290001E35
:100A4100EFF0AE29900023EEF07D00EF75F003A4E6
:100A51002439F582740035F0F583E0FBA3E0FCA3B3
:100A6100E0FFC006C005C003C004C00774F1C0E0C8
:100A71007439C0E0123160E58124F9F58122AD823B
:100A8100AE83AFF074012DFAE43EFB8F048A828BB2
:100A9100838CF01237EEFCBC000122BC020122BCA7
:100AA1000302800CBC0502805BBC0703020B4822D9
:100AB1002095012274022DFAE43EFB8F048A828B79
:100AC100838CF01237EEF87900C004C003C002C075
:100AD10000C00174F9C0E07439C0E0123160E581F1
:100AE10024FCF581D002D003D0048A828B838CF060
:100AF1001237EEF5229037001221718522109037BE
:100B01000002218590001DE0FC24FC500122EC2C08
:100B1100900B15738006800F80188021C281C280DE
:100B210090001D7401F022C281D28090001D7402D8
:100B3100F022D281D28090001D7403F022D281C2B2
:100B41008090001DE4F02275110074052DFDE43E36
:100B5100FE8D828E838FF01237EEF52AA31237EEC7
:100B6100F52BA31237EEF52C852A82852B83852C54
:100B7100F01237EEF879007B007C008B30892F88EA
:100B81002E8C2D7401252AFAE4352BFBAC2C8A829C
:100B91008B838CF01237EEF9E4FAFBFCE52D420170
:100BA100E52E4202E52F4203E53042048B308A2FC5
:100BB100892E752D007402252AF8E4352BFBAC2C07
:100BC10088828B838CF01237EEF8E4FCFBFAE52D7A
:100BD1004200E52E4204E52F4203E5304202C00700
:100BE100C006C005C004C003C002C000C000C004EC
:100BF100C003C002740DC0E0743AC0E0123160E578
:100C01008124FAF581D000D002D003D00488828CEF
:100C1100838BF0EA122CC1D005D006D0078D828ECD
:100C2100838FF01237EEF52DA31237EEF52EA312B6
:100C310037EEF52F7402252DF8E4352EF9AC2F8807
:100C41008289838CF01237EEF87C007401252DF92E
:100C5100E4352EFAAB2F89828A838BF01237EEF9B5
:100C6100892A8C2B852D82852E83852FF01237EED4
:100C7100FA7B00C007C006C005C000C004C02AC07E
:100C81002BC002C003741DC0E0743AC0E012316091
:100C9100E58124F8F581D005D006D0078D828E83B9
:100CA1008FF01237EEFDA31237EEFEA31237EEFFDF
:100CB10074032DFAE43EFB8F048A828B838CF0123D
:100CC10037EEFA74042DFDE43EFE8D828E838FF0A3
:100CD1001237EEF5298A82020A3C022DD543B30868
:100CE10043B40843B31043B410C2C0439B01D2AF15
:100CF10022AF82C294C2937E007407C39EF5F005B1
:100D0100F0EF8002C313D5F0FB540124FF9294D27B
:100D110093C2930EBE080040E0D294D293A294E411
:100D210033F582C293227F00D294C2937E00D29384
:100D3100A294E433FD8E047407C39CFC8CF005F08F
:100D4100ED800225E0D5F0FB4207C2930EBE0800FC
:100D510040DCC294D293C293D2948F8222E5822541
:100D610082FFE5314FF582020CF2753100120D5E02
:100D71007F00C3EF9532501FEF2533FCE43534FD7E
:100D8100AE358C828D838EF01237EEF582C007125C
:100D91000CF2D0070F80DBD294D29322753101126D
:100DA1000D5E7F00C3EF9536502CEF2537FCE435FF
:100DB10038FDAE39C007C006C005C004120D27AB0F
:100DC10082D004D005D006D0078C828D838EF0EBC3
:100DD1001236890F80CED294D29322753101120D31
:100DE1005ED29310930280FB7F00C3EF953A502CA3
:100DF100EF253BFCE4353CFDAE3DC007C006C00518
:100E0100C004120D27AB82D004D005D006D0078CC8
:100E1100828D838EF0EB1236890F80CED294D293DD
:100E210022AE827F00AC3E7D00EC2FFFED3EFE8FB7
:100E310019EEF51A3395E0F51BF51C90445CE4F5C9
:100E4100F0123780AC82AD83AEF0FF7519FF751AD1
:100E5100FFE4F51BF51C8C828D838EF0EF1235E1DA
:100E6100AC82AD83AEF0FF746C2CFC74EE3DFD746E
:100E7100FF3EFE74FF3F8C828D838EF022AE82AFE7
:100E8100837C007D008C028D03C3EA9EEB9F501191
:100E9100000000000000000000000CBC00E70D8015
:100EA100E4227542009000CCE4F0A3F0A3F0A3F09B
:100EB1009000D0F0A3F0A3F0A3F0754301754402B4
:100EC100754503754604754705754809754900F56B
:100ED1004A754B01754C02754D03754E04754F05EE
:100EE100755025755100F5527553017554037555AB
:100EF1000375560B7557FF755825755900F55AF549
:100F01005BF55C12082A122CDA120CDE900005E067
:100F110075F004A42448F582740035F0F583E0FAF5
:100F2100A3E0FBA3E0FCA3E08A828B838CF0122C6C
:100F3100751206B0538EF7D2A9D28C751100742A9E
:100F4100C0E0743AC0E0123160158115817511015C
:100F5100743AC0E0743AC0E0123160158115817CA9
:100F6100307F750000000000EC24FFFAEF34FFFB36
:100F71008A048B07EA4B70EBF511A282A295E43348
:100F8100FF439B02D2AF208202D284903700E493C8
:100F9100F52290004175F040C007120CDBE582D0CC
:100FA100077003021821741BB54103021441742B0D
:100FB100B541030215CB742DB541030216F6743108
:100FC100B5410302104A7432B5410302107E7433F5
:100FD100B541030210B27434B541030210E6743511
:100FE100B5410302111A7436B54103021130743749
:100FF100B541030211647438B54103021198745468
:10100100B541030212487462B541030213FE7469CB
:10101100B54103021347746AB541030212D2746BDE
:10102100B541030212917470B5410302133E74720B
:10103100B541030212017473B541030213127474B2
:10104100B541030211CC021821B296C007744AC0FF
:10105100E0743AC0E012316015811581A296E43343
:10106100FB7C00C003C0047453C0E0743AC0E012BA
:101071003160E58124FCF581D007021821B294C0CA
:10108100077458C0E0743AC0E012316015811581CF
:10109100A294E433FB7C00C003C0047453C0E07429
:1010A1003AC0E0123160E58124FCF581D0070218D5
:1010B10021B293C007745FC0E0743AC0E01231609E
:1010C10015811581A293E433FB7C00C003C0047435
:1010D10053C0E0743AC0E0123160E58124FCF5812F
:1010E100D007021821B292C0077466C0E0743AC0FA
:1010F100E012316015811581A292E433FB7C00C0BE
:1011010003C0047453C0E0743AC0E0123160E58159
:1011110024FCF581D007021821C007746DC0E0746A
:101121003AC0E012316015811581D007021821B251
:1011310080C007747BC0E0743AC0E0123160158151
:101141001581A280E433FB7C00C003C0047453C04A
:10115100E0743AC0E0123160E58124FCF581D007EA
:10116100021821B281C0077485C0E0743AC0E01250
:10117100316015811581A281E433FB7C00C003C07D
:10118100047453C0E0743AC0E0123160E58124FC7C
:10119100F581D007021821B284C0077490C0E074B1
:1011A1003AC0E012316015811581A284E433FB7CE1
:1011B10000C003C0047453C0E0743AC0E01231604F
:1011C100E58124FCF581D007021821C0079000AA0F
:1011D100E0C0E0A3E0C0E0A3E0C0E0A3E0C0E074B1
:1011E1009CC0E0743AC0E0123160E58124FAF581D7
:1011F100D0079000AAE4F0A3F0A3F0A3F002182115
:1012010090004175F040C0071222F6E582D00760D8
:1012110020AB417C00C007C003C00474A8C0E074C7
:101221003AC0E0123160E58124FCF581D007021853
:1012310021C00774B7C0E0743AC0E0123160158173
:101241001581D007021821C007AB2C7C00AA2D7E86
:1012510000852A5D8E5EAD2B7F00C007C003C004F0
:10126100C002C006C05DC05EC005C00774BFC0E05B
:10127100743AC0E0123160E58124F6F581D007753A
:101281002B00752A00752D00752C00D0070218213E
:10129100900024E02401F0E075F004A42448F582D4
:1012A100740035F0F583E0FBA3E0FCA3E0FDA3E0CF
:1012B100FEC007C003C004C005C00674CDC0E07401
:1012C1003AC0E0123160E58124FAF581D0070218B5
:1012D10021900024E014F0E075F004A42448F58284
:1012E100740035F0F583E0FBA3E0FCA3E0FDA3E08F
:1012F100FEC007C003C004C005C00674CDC0E074C1
:101301003AC0E0123160E58124FAF581D007021874
:1013110021900024E075F004A42448F5827400357E
:10132100F0F583E0FBA3E0FCA3E0FDA3E08B828C5E
:10133100838DF0C007122C75D00702182190001E72
:101341007402F0021821900009742CF090000A74C4
:1013510006F07533097534007535007532027582F2
:101361004AC007120D6B902710120E7E7537097552
:10137100380075390075360375824A120D9D90004B
:101381000BE0FE751902751AFF90000975F000C097
:10139100061228E0AD82D006D007EEB50549C00798
:1013A100900009E0FE90000AE0F53E8E82C007122F
:1013B1000E22AB82AC83ADF0FED007AA3F053F7F82
:1013C10000C007C003C004C005C006C002C0077446
:1013D100D3C0E0743AC0E0123160E58124F8F581B0
:1013E100D007D007021821C00774E4C0E0743AC0E6
:1013F100E012316015811581D0070218217E087530
:1014010031008E82C007C006120D5EE582D006D083
:101411000770208E04FDC007C006C004C00574EE2D
:10142100C0E0743AC0E0123160E58124FCF581D05E
:1014310006D007D293D2940EBE780040C202182182
:10144100900006E02401F0E0FE24FA50030215B0FA
:10145100EE2E90145773800A801E80328046805A87
:10146100806EC00774FEC0E0743AC0E012316015AE
:10147100811581D007021821C0077412C0E0743BA6
:10148100C0E012316015811581D007021821C00713
:101491007426C0E0743BC0E012316015811581D023
:1014A10007021821C0077436C0E0743BC0E0123156
:1014B1006015811581D007021821C0077448C0E06A
:1014C100743BC0E012316015811581D007021821EB
:1014D100C007C0077453C0E0743BC0E0123160150F
:1014E100811581900001E0FE7D00C006C005747584
:1014F100C0E0743BC0E0123160E58124FCF58190CD
:101501000002E0FE7D00C006C005748CC0E0743BA3
:10151100C0E0123160E58124FCF581900003E0C058
:10152100E0A3E0C0E074A3C0E0743BC0E01231600E
:10153100E58124FCF581D007900005E0FEFC7D00EB
:10154100EE75F004A42448F582740035F0F583E0CB
:10155100FAA3E0FBA3E0FEA3E0FFC007C004C005BF
:10156100C002C003C006C00774B6C0E0743BC0E04F
:10157100123160E58124F8F581D007900007E0FF82
:101581007E00C007C007C00674C0C0E0743BC0E065
:10159100123160E58124FCF5817453C0E0743BC0D5
:1015A100E012316015811581D007D0070218219012
:1015B1000006E4F0C00774FEC0E0743AC0E01231E6
:1015C1006015811581D007021821900006E0FE24E4
:1015D100FB5003021821EE2E2E9015DE730215ED3D
:1015E10002161402163B0216690216CF900001E0A2
:1015F1002401F0E0FE7D00C007C006C0057475C07F
:10160100E0743BC0E0123160E58124FCF581D00734
:10161100021821900002E02401F0E0FE7D00C007E5
:10162100C006C005748CC0E0743BC0E0123160E5B7
:101631008124FCF581D007021821900003E02401E8
:10164100F0A3E03400F0C007900003E0C0E0A3E0A5
:10165100C0E074A3C0E0743BC0E0123160E58124B6
:10166100FCF581D007021821900005E02401F0E08B
:1016710075F004A42448F582740035F0F583E0FB8D
:10168100A3E0FCA3E0FDA3E0FEC007C003C004C0CB
:1016910005C00674CDC0E0743AC0E0123160E58146
:1016A10024FAF581900005E075F004A42448F58240
:1016B100740035F0F583E0FBA3E0FCA3E0FDA3E0BB
:1016C1008B828C838DF0122C75D00702182190002B
:1016D10007E02401F0E0FE7D00C007C006C00574EC
:1016E100C0C0E0743BC0E0123160E58124FCF581AB
:1016F100D007021821900006E0FE24FB50030218D7
:1017010021EE2E2E9017097302171802173E0217A9
:101711006402179A0217FE900001E014F0E0FE7DCA
:1017210000C007C006C0057475C0E0743BC0E0127C
:101731003160E58124FCF581D00702182190000277
:10174100E014F0E0FE7D00C007C006C005748CC047
:10175100E0743BC0E0123160E58124FCF581D007E3
:10176100021821900003E024FFFDA3E034FFFE9066
:101771000003EDF0EEA3F0C007900003E0C0E0A38A
:10178100E0C0E074A3C0E0743BC0E0123160E581C9
:1017910024FCF581D007021821900005E014F0E047
:1017A10075F004A42448F582740035F0F583E0FB5C
:1017B100A3E0FCA3E0FDA3E0FEC007C003C004C09A
:1017C10005C00674CDC0E0743AC0E0123160E58115
:1017D10024FAF581900005E075F004A42448F5820F
:1017E100740035F0F583E0FBA3E0FCA3E0FDA3E08A
:1017F1008B828C838DF0122C75D00780239000078B
:10180100E014F0E0FE7D00C007C006C00574C0C052
:10181100E0743BC0E0123160E58124FCF581D00722
:101821008F06A295E433FDEEB505028064751100C3
:10183100A295E433FD7E00C005C00674CEC0E074FD
:101841003BC0E0123160E58124FCF58130950D90BB
:101851000021E4F0A3F0900020F0803090001FE41C
:10186100F0F5110540E540540124FF9294E5400351
:101871005401FE24FF9293E54003035401FD24FF2C
:101881009292EE24FF9280ED24FF9281A295E4339F
:10189100FF209503021958900021E0FDA3E0FE907E
:1018A1000003E0FBA3E0FCC3ED9BEE9C50181096F7
:1018B100028003021951D29690002174012DF0E4A7
:1018C1003EA3F0021951900020E0FE900001E0FDDE
:1018D100C3EE9D507B7511019000F0C007122CC41E
:1018E1009000F0122CC49000F0122CC49000F01261
:1018F1002CC49000F0122CC4D0077E00900007E0A9
:10190100FDC3EE9D5032BE0210900003C007C00619
:10191100122CC4D006D007801C8E047D009000D507
:10192100E07A002CF582EA3DF583C007C006122C4F
:10193100C4D006D0070E80C49000D5E02401F090F9
:101941000020E02401F0751100900021E4F0A3F0E3
:1019510090001EE4F0804790001EE0FE24FC403E13
:10196100EE2E9019677380368004800B8018C007B3
:10197100123070D0078027900023E0F582C0071253
:101981003079D0078018751101900023E0FE7D00A9
:101991008E828D83C007122CC4D007751100A282DC
:1019A100E54224F85003020F93E542240B83F582AC
:1019B100E542240C83F583E473CA022682C628A972
:1019C100ED191A1E1A1A1B1C1C90004175F040C01B
:1019D100071222F6E582D0077003020F939000A848
:1019E100E4F0A3F0755B019000AEE541F0751100E4
:1019F100900021E4F0A3F0900020F0754201020F65
:101A01009390004175F040C0071222F6E582D0079D
:101A11006052AE5B1EC2D575F002EE30E704B2D55E
:101A2100F404A430D50AF42401C5F0F43400C5F05F
:101A31002480FD740035F0FE9000A8E0FBA3E0FCDB
:101A41008D828E83EBF0ECA3F09000A8E4F0A3F07C
:101A5100AE5B055BEE24AEF582E43400F583E5412F
:101A6100F0020F939000A8E0FDA3E0FEC374E89D8F
:101A710074039E4003020F93855B5C754202020F63
:101A8100939000CCE0FBA3E0FCA3E0FDA3E0FEEB20
:101A91004C4D4E7006754204020F93EB4C4D4E7047
:101AA10003020F931BBBFF091CBCFF051DBDFF01FA
:101AB1001E9000CCEBF0ECA3F0EDA3F0EEA3F075DB
:101AC1004203020F93C00774DAC0E0743BC0E01216
:101AD100316015811581751101900000122CC4909F
:101AE1000000122CC49000F0122CC49000F0122CB3
:101AF100C49000F0122CC490005375F04012229C47
:101B010090005375F0401222FCD00775110090002F
:101B1100AAE4F0A3F0A3F0A3F09000A8F0A3F0F5DD
:101B21005B754205020F9390004175F040C00712AA
:101B310022F6E582D0076065AE5B1EC2D575F00264
:101B4100EE30E704B2D5F404A430D50AF42401C57B
:101B5100F0F43400C5F02480FD740035F0FE9000EF
:101B6100A8E0FBA3E0FC8D828E83EBF0ECA3F09068
:101B710000A8E4F0A3F0AE5B055BEE24AEF582E4D1
:101B81003400F583E541F0C00774E2C0E0743BC066
:101B9100E012316015811581D007021C339000A835
:101BA100E0FDA3E0FEC374109D74279E4003021C58
:101BB10033855B5CAD5B7E00C007C005C00674E485
:101BC100C0E0743BC0E0123160E58124FCF581D0B6
:101BD100079000AFE0FEBE070575420780549000F4
:101BE100AAE4F0A3F0A3F0A3F0F55B758203C007AC
:101BF10012288AAE828E19751A00751B00751C0099
:101C010090000AE4F5F0123780AB82AC83ADF0FEB0
:101C11009000D0EBF0ECA3F0EDA3F0EEA3F074F79D
:101C2100C0E0743BC0E012316015811581D00775A9
:101C310042069000AAE0FBA3E0FCA3E0FDA3E0FEC6
:101C4100C374A09B74869C74019DE49E4003020FA3
:101C5100939000AAE4F0A3F0A3F0A3F0F55B7582E2
:101C610003C00712288AAE828E19751A00751B00EF
:101C7100751C0090000AE4F5F0123780AB82AC834A
:101C8100ADF0FE9000D0EBF0ECA3F0EDA3F0EEA3ED
:101C9100F07416C0E0743CC0E0123160158115810A
:101CA100D007754206020F939000D0E0FBA3E0FC41
:101CB100A3E0FDA3E0FEEB4C4D4E7006754204021D
:101CC1000F93EB4C4D4E7003020F931BBBFF091C8E
:101CD100BCFF051DBDFF011E9000D0EBF0ECA3F091
:101CE100EDA3F0EEA3F0754206020F937410B55CFC
:101CF100028003021E169000B0E0FEBE03028003C4
:101D0100021E06C0077433C0E0743CC0E0123160AB
:101D1100158115817561AE75620075630075644347
:101D2100756500756640855C8212246A9000437572
:101D3100F0401225FCAD5C7E009000B6E0FC7B001B
:101D4100C005C006C004C0037403C0E0E4C0E07471
:101D51003FC0E0743CC0E0123160E58124F8F581B8
:101D6100D0077E00C3EE955C502EEE24AEF582E4E2
:101D71003400F583E0FD7C00C007C006C005C00447
:101D81007469C0E0743CC0E0123160E58124FCF567
:101D910081D006D0070E80CC9000D4E02401F0E081
:101DA100F553758203C007122834AE828E19751A55
:101DB10000751B00751C0090000AE4F5F0123780D5
:101DC100AB82AC83ADF0FE9000CCEBF0ECA3F0ED78
:101DD100A3F0EEA3F0754203740AC0E07438C0E0CA
:101DE10012316015811581740AC0E07438C0E012A7
:101DF100316015811581D007755B009000A8E4F072
:101E0100A3F0020F93754205755B009000A8E4F002
:101E1100A3F0020F93755B009000A8E4F0A3F075A6
:101E21004205020F93AD5C7E009000B0E0FC7B00A8
:101E3100C007C006C005C005C006C004C003746F5A
:101E4100C0E0743CC0E0123160E58124FAF581D034
:101E510005D006D0077401B55C409000AEE0F519DD
:101E6100758203C0071208FFE582D0077003020FD5
:101E7100939000AEE0FC7B00C007C004C0037487F0
:101E8100C0E0743CC0E0123160E58124FCF581853D
:101E9100418212089BD007020F9374F8255C50030E
:101EA100021F58C007C005C006748FC0E0743CC053
:101EB100E0123160E58124FCF581D0077E00C3EE9C
:101EC100955C502EEE24AEF582E43400F583E0FDFE
:101ED1007C00C007C006C005C0047469C0E0743C42
:101EE100C0E0123160E58124FCF581D006D0070EF7
:101EF10080CCC007740AC0E07438C0E012316015AC
:101F0100811581D0077E00C3EE955C5034EE75F0EB
:101F110002A42480F582740035F0F583E0FCA3E08F
:101F2100FDC007C006C004C005749EC0E0743CC07B
:101F3100E0123160E58124FCF581D006D0070E80E6
:101F4100C6C007740AC0E07438C0E0123160158160
:101F51001581D007020F939000AFE0FEBE640280AE
:101F610003020F93758203C007122834AE828E19C3
:101F7100751A00751B00751C0090000AE4F5F0123B
:101F81003780AB82AC83ADF0FED0079000CCEBF094
:101F9100ECA3F0EDA3F0EEA3F0755B007542030234
:021FA1000F939C
:10380A000A0D0073656C66200063726F7373006241
:10381A006F74682000206F75747075743A54686903
:10382A0073206973205541525425640A0D000D0A0C
:10383A00002563000D0A696E7075743A54686973DD
:10384A00206973205541525425640049646C6520EF
:10385A00707265616D626C65206F6E2F6F66660DA2
:10386A000A004C696E65466920506F776572204F71
:10387A0066660D0A004C696E65466920506F776569
:10388A0072204F6E0D0A004C696E654669205561BB
:10389A007274205478204C6F770D0A004C696E655B
:1038AA004669205561727420547820486967680D0A
:1038BA000A004C696E65466920435343207278209A
:1038CA0046534D204F66660D0A004C696E6546697F
:1038DA00204353432072782046534D204F4E0D0A01
:1038EA000056657273696F6E20312E34206F6E2018
:1038FA0032303233313032360D0A00313A20646FB9
:10390A00776E6C696E6B207061636B657420310D24
:10391A000A00323A20646F776E6C696E6B207061B0
:10392A00636B657420320D0A00333A2075706C6936
:10393A006E6B2069646C6520707265616D626C657E
:10394A00206F6E2F6F66660D0A00702F503A204C5A
:10395A00696E65466920506F776572206F66662FBB
:10396A006F6E0D0A00742F543A204C696E654669D1
:10397A002055617274205478204C6F772F486967FC
:10398A00680D0A00732F533A204C696E65466965C3
:10399A00204353432052782046534D206F66662FAA
:1039AA006F6E0D0A00746573742070726F636564BC
:1039BA007572653A2070202D3E2050202D3E2054ED
:1039CA00202D3E2053202D3E2031206F7220320DB3
:1039DA000A004D79206164647265737320697320EB
:1039EA00307825780D0A0025733A25640D0A00738C
:1039FA006574206164647265737320617320256441
:103A0A000D0A00756172742073706565643A202529
:103A1A006C75002825782C25782C2578290A0D0024
:103A2A00546869732069732055415254300A0D0055
:103A3A00546869732069732055415254310A0D0044
:103A4A00554152545F54583D0025640A0D004C45B7
:103A5A00445F523D004C45445F473D004C45445F3E
:103A6A00423D006E6F204D4F544F525F454E0D0A36
:103A7A00004D4F544F525F43573D004D4F544F52E4
:103A8A005F4343573D0053454C5F52585F504F4C7C
:103A9A003D00636F756E743A256C750D0A00727875
:103AAA002064617461203A2025780D0A006E6F2027
:103ABA0072780D0A00256420256420256420256477
:103ACA000D0A00256C750D0A005B25645D74656D31
:103ADA0070203A20256C750D0A00637263206261BA
:103AEA00640D0A0069326320666F756E642025785A
:103AFA003A0D0A006775385050616D626C654475FD
:103B0A0072484E756D0D0A006775385050616D62C6
:103B1A006C654475724C4E756D0D0A0067753850A8
:103B2A0050616D626C654E756D0D0A006775384C93
:103B3A00696E6546695570526174650D0A0067754C
:103B4A00385478436E740D0A002D2D2D2D2D2D2DF0
:103B5A002D2D2D2D2D2D2D2D2D2D2D2D2D2D2D2D8B
:103B6A002D2D2D2D2D2D2D2D0D0A00677538505018
:103B7A00616D626C65447572484E756D3A25640DC7
:103B8A000A006775385050616D626C654475724CF5
:103B9A004E756D3A25640D0A006775385050616D8F
:103BAA00626C654E756D3A25640D0A00256C755B6D
:103BBA0025645D0D0A006775385478436E743A259A
:103BCA00640D0A005357495443483A25640A0D00C4
:103BDA0033333333330D0A0031000D0A7538527806
:103BEA004C46504C656E3A2025640D0A0061636BA1
:103BFA0020776169742D3E77726F6E672061636BFF
:103C0A002D3E6261636B6F66660D0A0061636B200D
:103C1A00776169742D3E74696D656F75742D3E62A6
:103C2A0061636B6F66660D0A0041434B41434B412A
:103C3A00434B0D0A00536C6176652025642C2044A1
:103C4A004C5F7061636B65745F6E756D3A202564B5
:103C5A002C2052782073697A653A25640A0D00305F
:103C6A0078257820000D0A546F202564202D3E20E7
:103C7A0052782053495A453A25640A0D0052783A37
:103C8A0025640A0D00313A52782073697A653A251B
:103C9A00640A0D002564202000554C544D4F4445BC
:103CAA005F494E495400554C544D4F44455F50525C
:103CBA0045414D424C4500554C544D4F44455F4497
:103CCA0041544100554C544D4F44455F4E4F5F4D52
:103CDA00414E4348455354455200554C544D4F4468
:073CEA00455F4E4F4E4500FF
:1037000000000000000000000000000000000000B9
:1037100000000000000000000000000000000000A9
:103720000000000000000000000000000000000099
:103730000000000000000000000000000000000089
:103740000000000000000000000000000000000079
:103750000000000000000000000000000000000069
:103760000000000000000000000000000000000059
:103770000000000000000000000000000000000049
:101FA30075C7AA75C75575FD5A75C7AA75C75575FF
:101FB300FDA575820022AC82AD83AEF0FF538EF790
:101FC300438901D28CEC4D4E4F601A758A76758C1D
:101FD300FF108D0280FB1CBCFF091DBDFF051EBE4B
:101FE300FF011F80E0C28C22AC82AD83AEF0FF53B1
:101FF3008EF7438901D28CEC4D4E4F601A758A9847
:10200300758CFA108D0280FB1CBCFF091DBDFF05FA
:102013001EBEFF011F80E0C28C22AC82AD83AEF0F6
:10202300FF538EEF438910D28EEC4D4E4F601A75DD
:102033008BF6758DC9108F0280FB1CBCFF091DBD7B
:10204300FF051EBEFF011F80E0C28E22AC82AD835E
:10205300AEF0FF53C9BF53C9DF43C910D2CAEC4D19
:102063004E4F601A75CCE575CDF710CF0280FB1C7F
:10207300BCFF091DBDFF051EBEFF011F80E0C2CAD4
:1020830022AC82AD83AEF0FF75C40743C408EC4DA8
:102093004E4F602575C55775C6CDAAC45302107B34
:1020A30000BA10F6BB00F353C4EF1CBCFF091DBDFF
:1020B300FF051EBEFF011F80D553C4F722AC82ADBE
:1020C30083AEF0FF75C40743C408EC4D4E4F602543
:1020D30075C5D775C6FFAAC45302107B00BA10F6A4
:1020E300BB00F353C4EF1CBCFF091DBDFF051EBE9F
:1020F300FF011F80D553C4F722AF82A2AF9200C263
:10210300AF75C7AA75C755439F01A20092AFE51CDF
:102113006013A2AF9200C2AF75C7AA75C75543A596
:1021230001A20092AF851AA68519A7851BAE8FAFB2
:10213300A2AF9200C2AF75C7AA75C75543A401A247
:102143000092AFE51C6026A2AF9200C2AF75C7AA8A
:1021530075C75553A5FEA20092AFA2AF9200C2AFBE
:1021630075C7AA75C755539FFEA20092AF22AE82D0
:10217300AF838F198E1A751BFF751C01758222029E
:1021830020FCAE82AF838F198E1A85101B751C013C
:102193007582210220FC751900751A0C751B0075D8
:1021A3001C007582041220FCAFAE751900751A0D60
:1021B300751B00751C00758204C0071220FCD00734
:1021C300E5AE540FFEA2AF9200C2AF75C7AA75C7A2
:1021D30055539FFEA20092AFE4C454F0CFC4CF6F17
:1021E300CF54F0CF6FFD7C00EE2FF582EC3DF583ED
:1021F3002285821A751900751B00751C00758204EF
:102203001220FC85AE82A2AF9200C2AF75C7AA7539
:0A221300C755539FFEA20092AF22B0
:10029F00E4F56CF56DF56EE4F56FF570F571E4F559
:1002AF005FF5609000D67489F0743DA3F07480A35D
:1002BF00F09000D97494F0743DA3F07480A3F09083
:1002CF0000DC749FF0743DA3F07480A3F09000DF06
:1002DF0074AAF0743DA3F07480A3F09000E274B799
:1002EF00F0743DA3F07480A3F09000E574C3F07434
:1002FF003DA3F07480A3F09000E874D2F0743DA396
:10030F00F07480A3F09000EB74E0F0743DA3F074F0
:10031F0080A3F09000EE74E9F0743DA3F07480A315
:10032F00F09000F174E9F0743DA3F07480A3F090A5
:10033F0000F474E9F0743DA3F07480A3F09000F71B
:10034F0074E9F0743DA3F07480A3F09000FA74E99F
:10035F00F0743DA3F07480A3F09000FD74E9F07485
:10036F003DA3F07480A3F090010074E9F0743DA3F5
:10037F00F07480A3F090010374E9F0743DA3F0745E
:10038F0080A3F090010674E9F0743DA3F07480A38C
:10039F00F090010974E9F0743DA3F07480A3F0901C
:1003AF00010C74E9F0743DA3F07480A3F090010F79
:1003BF0074E9F0743DA3F07480A3F090011274E916
:1003CF00F0743DA3F07480A3F090011574E9F074FC
:1003DF003DA3F07480A3F090011874E9F0743DA36D
:1003EF00F07480A3F090011B74E9F0743DA3F074D6
:1003FF0080A3F090011E74E9F0743DA3F07480A304
:10040F00F090012174E9F0743DA3F07480A3F09093
:10041F00012474E9F0743DA3F07480A3F0900127D8
:0B042F0074E9F0743DA3F07480A3F0AA
:10221D00AD82AE83AFF074032DFDE43EFE8D828E54
:10222D00838FF01237EE2405F58222AD82AE83AF97
:10223D00F08D028E038F04751904751AFF8A828B37
:10224D00838CF0C007C006C0051228E085821AD025
:10225D0005D006D00774052DFAE43EFB8F048A8263
:10226D008B838CF01237EEFAA31237EEFBA31237E5
:10227D00EEFC74032DFDE43EFE8D828E838FF012F5
:10228D0037EE24FBF5198A828B838CF00228E0ADA2
:10229D0082AE83AFF0C007C006C005122238AC82F3
:1022AD00D005D006D00774042DFDE43EFE8D828E40
:1022BD00838FF0EC023689AD82AE83AFF0C007C0DC
:1022CD0006C005122238AC82D005D006D0077404A2
:1022DD002DFDE43EFE8D828E838FF01237EEB50418
:1022ED00047582012275820022022F36023010AD54
:1022FD0082AE83AFF0C007C006C005122238D005EC
:10230D00D006D0078D028E038F048A828B838CF0CA
:10231D001237EEF5820ABA00010BC007C006C005E0
:10232D00C004C003C0021222F9D002D003D004D0E1
:10233D0005D006D0078A828B838CF01237EEF5829A
:10234D000ABA00010BC007C006C005C004C003C017
:10235D00021222F9D002D003D004D005D006D00746
:10236D008A828B838CF01237EEF90ABA00010B8941
:10237D0082C007C006C005C004C003C0021222F906
:10238D00D002D003D004D005D006D0078A828B832B
:10239D008CF01237EEF5820ABA00010BC007C006A9
:1023AD00C005C004C003C0021222F9D002D003D070
:1023BD00048A828B838CF01237EEF5821222F9D0CB
:1023CD0005D006D00774052DFAE43EFB8F04740387
:1023DD002DFDE43EFE7900C002C003C0048D828E47
:1023ED00838FF01237EE7C0024FBF8EC34FFFC8970
:1023FD00027B00C3EA98EB64808CF063F08095F06B
:10240D00D004D003D0025054C005C006C0078A8244
:10241D008B838CF01237EEF8A31237EEFEA3123732
:10242D00EEFFE928F8E43EFE88828E838FF01237A6
:10243D00EEF582C007C006C005C004C003C002C0CF
:10244D00011222F9D001D002D003D004D005D0065C
:10245D00D00709D007D006D0050223E422AF82BFF2
:10246D000500500475820322AD64AE65AF66AA61A6
:10247D00AB62AC638A828B838CF01237EEF97401F8
:10248D002AF561E43BF5628C638D828E838FF0E9D2
:10249D001236890DBD00010EAA61AB62AC638A8252
:1024AD008B838CF01237EEF974012AF561E43BF55C
:1024BD00628C638D828E838FF0E91236890DBD009B
:1024CD00010EAA61AB62AC638A828B838CF01237EA
:1024DD00EEF974012AF561E43BF5628C638D828E11
:1024ED00838FF0E91236890DBD00010EAA61AB6232
:1024FD00AC638A828B838CF01237EEF974012AF566
:10250D0061E43BF5628C638D828E838FF0E9123628
:10251D00890DBD00010EAA61AB62AC638A828B830B
:10252D008CF01237EEF974012AF561E43BF5628CFB
:10253D00638D828E838FF0E9123689AD64AE65AFFF
:10254D006674032DFAE43EFB8F048561688562692C
:10255D0085636A756700C005C006C0078A828B83D4
:10256D008CF01237EE790024FBF8E934FFF9AE67F1
:10257D007F00C3EE98EF648089F063F08095F0D012
:10258D0007D006D0055053C002C003C00474052DFA
:10259D00F8E43EF98F04888289838CF01237EEF8C7
:1025AD00A31237EEF9A31237EEFCE56728F8E439EC
:1025BD00F9856882856983856AF01237EEFBA385FC
:1025CD008268858369888289838CF0EB1236890550
:1025DD0067D004D003D0020225638D828E838FF0E5
:1025ED001222C4E58270047582042275820222AD26
:1025FD0082AE83AFF0C007C006C00574F1C0E074B1
:10260D003CC0E012316015811581D005D006D00790
:10261D008D828E838FF01237EEFC7B00C007C006D3
:10262D00C005C004C0037413C0E0743DC0E0123196
:10263D0060E58124FCF581D005D006D00774012D0D
:10264D00FAE43EFB8F048A828B838CF01237EEFA0C
:10265D0075F003A424D6F582740035F0F583E0F906
:10266D00A3E0FBA3E0FC8A007A00C007C006C0050A
:10267D00C001C003C004C000C002741EC0E0743DA0
:10268D00C0E0123160E58124F9F581D005D006D086
:10269D000774022DFAE43EFB8F048A828B838CF043
:1026AD001237EEFA7C00C007C006C005C002C00498
:1026BD00742DC0E0743DC0E0123160E58124FCF55D
:1026CD0081D005D006D00774032DFAE43EFB8F04AC
:1026DD008A828B838CF01237EEFA7C00C007C0061D
:1026ED00C005C002C0047438C0E0743DC0E01231B2
:1026FD0060E58124FCF581D005D006D0078D828E52
:10270D00838FF0C007C006C005122238AC82D005F9
:10271D00D006D0077B0074042DF8E43EF98F0288B3
:10272D008289838AF01237EEF87A00C007C006C09E
:10273D0005C004C003C000C0027443C0E0743DC0B6
:10274D00E0123160E58124FAF5817457C0E0743DE3
:10275D00C0E012316015811581D005D006D0077407
:10276D00052DFAE43EFB8F0474032DFDE43EFE754A
:10277D006B00C002C003C0048D828E838FF01237B0
:10278D00EE790024FBF8E934FFF9AB6B7C00C3EB69
:10279D0098EC648089F063F08095F0D004D003D07C
:1027AD00025065C005C006C0078A828B838CF0126B
:1027BD0037EEF8A31237EEF9A31237EEFFE56B28CB
:1027CD00F8E439F9888289838FF01237EEF87F00AB
:1027DD00C007C006C005C004C003C002C000C007CA
:1027ED00745EC0E0743DC0E0123160E58124FCF5FB
:1027FD0081D002D003D004D005D006D007056BD010
:10280D0007D006D00502277F7464C0E0743DC0E098
:10281D001231601581158174F1C0E0743CC0E01275
:10282D0031601581158122AF82E56C456D7009759A
:10283D006C1C756D2B756E80EF256CF56CE4356D2C
:10284D00F56D74ACC0E0742CC0E07480C0E0856C94
:10285D0082856D83856EF01200811581158115813C
:10286D004009756C1C756D2B756E80AD6CAE6DAFC2
:10287D006E8D828E838FF01237EEF58222AF82E558
:10288D006F45707009756F1C75702A757180EF2515
:10289D006FF56FE43570F570741CC0E0742BC0E0FB
:1028AD007480C0E0856F828570838571F012008120
:1028BD001581158115814009756F1C75702A75710B
:1028CD0080AD6FAE70AF718D828E838FF01237EE4B
:1028DD00F58222AD82AE83AFF0AC1AED4E60217B56
:1028ED0000C3EB951950198D828E838FF01237EE40
:1028FD00FAA3AD82AE83EC6A902A1C93FC0B80E1A7
:10290D008C8222AF82AD5FAE60055FE4B55F0205DC
:10291D0060C007C005C0067467C0E0743DC0E0121A
:10292D003160E58124FCF581746DC0E0743DC0E03B
:10293D0012316015811581D0077E00C3EE9F5024A2
:10294D008E047D00C007C006C004C0057475C0E0CC
:10295D00743DC0E0123160E58124FCF581D006D0D4
:10296D00070E80D7C0077464C0E0743DC0E012311B
:10297D006015811581747CC0E0743DC0E01231603A
:10298D0015811581D0077E00C3EE9F5072AB72ACDE
:10299D0073AD748B828C838DF01237EEFABA100002
:1029AD0050308A0174012BF572E43CF5738D7489F6
:1029BD00007900C007C006C000C0017482C0E07479
:1029CD003DC0E0123160E58124FCF581D006D007D1
:1029DD00802A74012BF572E43CF5738D747D00C073
:1029ED0007C006C002C005745EC0E0743DC0E012B1
:1029FD003160E58124FCF581D006D0070E80897405
:0F2A0D0064C0E0743DC0E0123160158115812274
:103CF1002D2D2D2D2D2D2D2D2D2D2D2D2D2D2D2DF3
:103D01002D2D2D2D2D2D2D2D2D2D2D2D2D2D2D0D02
:103D11000A00566572203A2025640D0A0054797014
:103D2100653A202564282573290D0A0041646472CF
:103D31003A2025640D0A0053697A653A2025640DFD
:103D41000A0043524320636F6D70203A202564209E
:103D51002564200D0A00444154413A200030782561
:063D61007820000D0A00AD
:102A1C0000316253C4F5A697B988DBEA7D4C1F2EB2
:102A2C004372211087B6E5D4FACB98A93E0F5C6DA2
:102A3C0086B7E4D5427320113F0E5D6CFBCA99A892
:102A4C00C5F4A796013063527C4D1E2FB889DAEB82
:102A5C003D0C5F6EF9C89BAA84B5E6D74071221372
:102A6C007E4F1C2DBA8BD8E9C7F6A5940332615062
:102A7C00BB8AD9E87F4E1D2C02336051C6F7A49552
:102A8C00F8C99AAB3C0D5E6F4170231285B4E7D642
:102A9C007A4B1829BE8FDCEDC3F2A1900736655432
:102AAC0039085B6AFDCC9FAE80B1E2D34475261722
:102ABC00FCCD9EAF38095A6B4574271681B0E3D212
:102ACC00BF8EDDEC7B4A192806376455C2F3A09102
:102ADC004776251483B2E1D0FECF9CAD3A0B5869F2
:102AEC0004356657C0F1A293BD8CDFEE79481B2AE2
:102AFC00C1F0A3920534675678491A2BBC8DDEEFD2
:102B0C0082B3E0D1467724153B0A5968FFCE9DACC1
:102B1C002D0005001F001800030014002700010001
:102B2C001C00030028003B00020012001D000300E3
:102B3C000E001F0041001E000900080025000700C0
:102B4C000500010001002B00010024000A004A00CE
:102B5C00230028001300070010001D0055000B0077
:102B6C00470014000B004800050029001300210049
:102B7C000600010006002C000200080001003400D1
:102B8C00040014000C0014000500150011001100C5
:102B9C00060008000700180001005800010013008F
:102BAC0013001F000C0018000D0019001700100076
:102BBC00160003000A000A00090018002C0001008E
:102BCC000300100011000100080005002500110091
:082BDC000B00020015000200CD
:103D67002325640D0A00726177203A20200025324E
:103D77006420202000646174613A0030783025782F
:103D87002000547970655F426361737400547970E1
:103D9700655F556361737400547970655F4D636146
:103DA700737400547970655F53657441646472007D
:103DB700547970655F5365744C4544005479706558
:103DC7005F4374726C4D6F746F7200547970655FE6
:103DD700526561644164647200547970655F414360
:0C3DE7004B00547970655F4E6F6E6500F4
:10043A0090012AE4F090012BF090012CF090012D0C
:10044A00F090012E740AF090012F14F0900130748C
:10045A0006F090013114F0900132740FF0900133DC
:10046A00F0900134F0900135F0900136F0900137A8
:10047A007403F090013814F0900139740FF0900170
:10048A003AF090013B7401F090013CE4F090013D98
:10049A00740FF090013EF090013FF0900140F0900F
:1004AA000141F0900142E4F0900152F0900162F0B3
:1004BA00900172F0900182F0900183F0900184F033
:1004CA00900185F0900186F0900187F0900188F004
:1004DA00900189F090018AF090018BF090018CF0E4
:1004EA0090018DF090018EF090018FF0900190F0C4
:0404FA00900191F0EC
:102BE400AC82AD83AEF0FF53B1BF53B2BF53B17FDC
:102BF40053B27F759850438920438780438E105386
:102C0400C4DF8C198D1A8E1B8F1C90D4BC75F00FE9
:102C1400E41235E1AC82C3E49CF58DD28ED29922C4
:102C2400AC82AD83AEF0FF53B1BF53B2BF53B17F9B
:102C340053B27F75985043878053C4F843C4208CA3
:102C4400198D1A8E1B8F1C90D4BC75F00FE41235AD
:102C5400E1AC82AD83AEF0FFE4C39CE49DF9740162
:102C64009EE49F89C6C3E49CFC8CC543C408D299E6
:102C740022AC82AD83AEF0FF53B1FB53B2FB53B32E
:102C8400BF53B4BF75F85875C40853C4DF8C198D8D
:102C94001A8E1B8F1C90D4BC75F00FE41235E1AC76
:102CA40082AD83AEF0FFE4C39CE49DF974019EE41D
:102CB4009F89C6C3E49CFC8CC543C40822022C75BE
:102CC400AE82E51170078E82122FD780058E821294
:102CD40030109000002290C20075F001E4122BE441
:102CE40090C20075F001E4122C75D2AC439C01D261
:102CF400AF22C299900185E0FFE07001227D647EDD
:102D04000000000000ED24FFFBEE34FFFC8B058C7B
:102D140006EB4C70EC900186E0FE04F0EE2452F5D4
:102D240082E43401F583E0F599EF14900185F09085
:102D34000186E0FFBF1005900186E4F022C021C0A7
:102D4400E0C0F0C082C083C007C006C005C004C094
:102D540003C002C001C000C0D075D00830983B90B9
:102D6400018EE02401F0900182E0FFBF10005028A2
:102D7400900184E0FF04F0EF2442F582E43401F58D
:102D840083E599F0900182E02401F0900184E0FF52
:102D9400BF1005900184E4F0C29830991090018F1F
:102DA400E02401F075D000122CF675D008D0D0D0F4
:102DB40000D001D002D003D004D005D006D007D073
:102DC40083D082D0F0D0E0D02132900182E0F5822D
:102DD40022AD82AE83AFF0900182E07003F58222CF
:102DE400C2AC900183E0FC04F0EC2442F582E434AC
:102DF40001F583E08D828E838FF0123689900182F3
:102E0400E014F0900183E0FFBF1005900183E4F02B
:102E1400D2AC75820122AF82900182E0FE7003F58C
:102E24008222C3EE9F50028E07AC19AD1AAE1B7BF3
:102E340000C3EB9F5030900183E0FA04F0EA24428F
:102E4400F582E43401F583E08C828D838EF01236B2
:102E540089A3AC82AD83900183E0FABA1005900196
:102E640083E4F00B80CB900182E0C39FF08F822239
:102E7400C2F990018BE0FFE070012290018CE0FE2A
:102E840004F0EE2472F582E43401F583E0F59AEF60
:102E94001490018BF090018CE053E00FF022C021DC
:102EA400C0E0C0F0C082C083C007C006C005C00433
:102EB400C003C002C001C000C0D075D00830F83BC8
:102EC400900190E02401F0900188E0FFBF100050D1
:102ED4002890018AE0FF04F0EF2462F582E43401D3
:102EE400F583E59AF0900188E02401F090018AE0EE
:102EF400FFBF100590018AE4F0C2F830F910900188
:102F040091E02401F075D000122E7475D008D0D051
:102F1400D000D001D002D003D004D005D006D00711
:102F2400D083D082D0F0D0E0D02132900188E0F577
:102F34008222AD82AE83AFF0900188E07003F58207
:102F440022539CFE900189E0FC04F0EC2462F5829B
:102F5400E43401F583E08D828E838FF012368990FC
:102F64000188E014F0900189E0FFBF100590018909
:102F7400E4F0439C0175820122AF82900188E0FE57
:102F84007003F58222C3EE9F50028E07AC19AD1A6E
:102F9400AE1B7B00C3EB9F5030900189E0FA04F034
:102FA400EA2462F582E43401F583E08C828D838E19
:102FB400F0123689A3AC82AD83900189E0FABA108D
:102FC40005900189E4F00B80CB900188E0C39FF069
:102FD4008F8222AF82900185E0FEBE100040030084
:102FE40080F3900187E0FE04F0EE2452F582E4348D
:102FF40001F583EFF0900185E02401F0900187E072
:10300400FFBF1005900187E4F0D29922AF829001AE
:103014008BE0FEBE1000400A90012BE02401F0007A
:1030240080EC90012AE02401F0539CFE90018DE095
:10303400FE04F0EE2472F582E43401F583EFF0909F
:10304400018BE02401F090018DE053E00FF090013A
:103054008BE0FFBF010B90012DE02401F0D2F98039
:103064000790012CE02401F0439C0122751101908A
:1030740000F0022CC4AF82751101EF23235403FE28
:103084005306037D00EE242EF582ED3401F583E032
:10309400FEE4CEC4CE6ECE54F0CE6EFDEFC4540F1B
:1030A400FC5304037B00EC242EF582EB3401F583FE
:1030B400E07B004EF582EB4DF583C007122CC4D0A3
:1030C40007EF0303543FFE5306037D00EE242EF561
:1030D40082ED3401F583E0FEE4CEC4CE6ECE54F02E
:1030E400CE6EFD5307037C00EF242EF582EC3401F1
:1030F400F583E07C004EF582EC4DF583022CC4E5AB
:1031040082FFC4540F2432F582E43401F583E0FED7
:10311400BE0F047582002253070F7E00EF2432F5A0
:1031240082EE3401F583E0FFBF0F0475820022753F
:10313400820122E582FFC4540F2432F582E4340173
:10314400F583E025E025E0FE53070F7D00EF2432F0
:10315400F582ED3401F583E04EF58222C0188581B5
:1031640018E51824FDF8868318868218E493A3B41E
:103174002577C201C202C203C204C205C206791283
:103184007700C207E493A324C64017240A5015709D
:1031940005B51202D206D205FAE775F00AA42AF799
:1031A40080E2240A2430B46C04D20180D7B46804C9
:1031B400D20280D0B473030231F8B464061234D25C
:1031C400023254B475061234D2023274B463051850
:1031D400E6188017B47803023233B46603023388E6
:1031E400B42E0679137700809B60061235C4023131
:1031F400700235DEC083C08286F01886831886820A
:1032040018300519C206C082C0831237EE6007A3C6
:103214001512E51270F41235AFD083D0821237EE56
:103224006006A31235C480F5D082D08302317012B7
:10323400324B20020C12324B30010612324B123246
:103244004B1235D6023170E61235B4E6180235B5A4
:10325400ED30E71CD204E9F42401F9200212EAF467
:103264003400FA30010AEBF43400FBECF43400FCD3
:10327400200210300108EB7024EC7021C201EA70C6
:103284001CD202E97017200714300509E512600505
:1032940015121235AF74301235C4023170C082C0B9
:1032A400831234EC300560790A30011DEB54F07060
:1032B4003619EB540F703019EA54F0702A19EA5495
:1032C4000F702419EF54F0701E790520020BEF548F
:1032D4000F701419EE54F0700E7903EE540F70074A
:1032E40019ED54F0700119E512A204994019F51270
:1032F400C003C002C007C006C0051235AFD005D058
:1033040006D007D002D003300419C003C002C0079E
:10331400C006C005742D1235C4D005D006D007D020
:1033240002D00320024030012CC005C006C0078A29
:1033340082EBF5831235B4E5831235B5E582123597
:10334400B4E5821235B5D0E0F5821235B4E582D009
:1033540083D08280058D828E83EF1235B5E583128A
:1033640035B4E58380038D82EE1235B5E5821235DE
:10337400B4E5821235B51235D6D083D08230070138
:103384002202317030050EE512D39513F512502840
:103394007512008023E6547FFA18860308AE82AFC4
:1033A40083903FBF7D07E4932BA3E4933A5003A398
:1033B400DDF48D138E828F83C0001234B4C082C0BA
:1033C40083EFB47E02801940112482FDC3EA33FAEC
:1033D400EB33FBEC33FCDDF48006F4247F12364639
:1033E40075F01BE4F8FFFEFD903F53E933F9EA332F
:1033F400FAEB33FBEC33FC5017E4932DD4FD74014A
:10340400933ED4FE7402933FD4FF74039338D4F8EC
:10341400A3A3A3A3D5F0D4E47C50FBFAF9E51323CA
:103424002354FC8883123646ED29D4F517EE3AD49A
:10343400F516EF3BD4F515E5833CD4F51492D5D0BD
:1034440083D082D0001234B4C000C3749E9F500550
:10345400D000023188C082123646D08230D50FE9BE
:103464002401F9E43AFAE43BFBE43CFC40E2D207F1
:1034740012327420050CE51360081234A47003D5CD
:1034840013F4E5136015742E1235C47800D20308C2
:10349400E81234A41235B5E8B513F4D00002317043
:1034A40014C31392D52414F9E720D501C4540F2270
:1034B400E618F9E618FC33E9339204FF6003430489
:1034C40080E618FBE618FA7900C202D20122E6F976
:1034D400FD18200212AA01E6F91830010AAC02AB69
:1034E40001E6FA18E6F91822E975F06484FE740A14
:1034F400C5F084C445F0FD30020122EA540FF9906E
:103504003DF3932DD4FDE94410933ED4FEEAC45414
:103514000FF9903E13932DD4FDE94410933ED4FE4D
:10352400E94420933400D4FF20010122EB540FF925
:10353400903E43932DD4FDE94410933ED4FEE944D8
:1035440020933FD4FFE43400FAEBC4540FF9903EC7
:1035540073932DD4FDE94410933ED4FEE9442093A3
:103564003FD4FFE94430933AD4FAEC540FF9903E37
:10357400B37B00123582ECC4540FF9903F03932DB2
:10358400D4FDE94410933ED4FEE94420933FD4FF94
:10359400E94430933AD4FAE94440933BD4FB22748F
:1035A4002030060274301235C41512E51270F02270
:1035B400C4540F7003300319D2032490D43440D47C
:1035C400C083C082C000F582122CC4D000D082D047
:0D35D40083222003FC74300235C4D018227D
:103DF3000056126824803692480460167228844064
:103E030000020507101215172023252830333538F3
:103E13000096928884807672686460565248444063
:103E23000040812263044586276809509132731448
:103E33000000000101020202030304040405050655
:103E43000036720844801652882460963268044013
:103E530000551066217632874298530864197530ED
:103E630000061319263239455258657278859198A0
:103E730000765228048056320884603612886440E3
:103E8300008571574328140086715743291400860F
:103E930000040914192429343843485358636872B9
:103EA3000001020304050607080910111213141573
:103EB30000163248648096122844607692082440A3
:103EC3000072441688603205774921936538108261
:103ED30000775533108866442199775432108865EA
:103EE3000016335067830017345067840118345128
:103EF30000000000000001010101010102020202B1
:103F03000056126824803692480460167228844052
:103F130000540963187227813691450054096318C8
:103F23000043873074176104489135792266095339
:103F33000068360573421079471584522189582643
:103F4300000205081013161821242629323437409D
:103F5300000000500000002500005012000025065C
:103F6300005012030025560150127800250639002F
:103F730012531900567609002888040014440200DD
:103F830007220100046100005230000026150000E2
:103F93006307000081030000910100009500000009
:103FA300480000002400000012000000060000008A
:103FB3000300000001000000010000007DC5DDC317
:0A3FC30034C2E0BE38BD86BBE4B98D
:1035E100FB7A20E4FCFDFEFFE5822582F582E5837E
:1035F10033F583E5F033F5F0EB33FB4017DAE9807F
:1036010042E5822582F582E58333F583E5F033F5E2
:10361100F0EB33FBEC33FCED33FDEE33FEEF33FF28
:10362100EC9519ED951AEE951BEF951C4013EC9551
:1036310019FCED951AFDEE951BFEEF951CFF4382DB
:0536410001DABEEB22DE
:0600BC00E478FFF6D8FD18
:103646006040F82582500274FFF582E824F8501E87
:10365600CCCBCAF9E4CC24F85014CBCAF9E4CB2479
:10366600F8500BCAF9E4CA24F8500379002224085A
:103676006010F8C3EC13FCEB13FBEA13FAE913F939
:10368600D8F12220F71130F6138883A88220F50995
:0E369600F6A8837583002280FEF280F5F022F4
:10378000AAF0FBE5828519F0A4FCADF0E58385196C
:10379000F0A42DFDE435F0FEE582851AF0A42DFDA0
:1037A000E5F03EFEE433FFEA8519F0A42EFEE5F0D5
:1037B0003FFFE583851AF0A42EFEE5F03FFFE5828A
:1037C000851BF0A42EFEE5F03FFFEB8519F0A42F3A
:1037D000FFEA851AF0A42FFFE583851BF0A42FFFD5
:0E37E000E582851CF0A42F8EF08D838C822252
:10008100E58124FCC3C8C0E0C082E608467006E5ED
:10009100824583601218E58296F58208E5839642CF
:1000A1008208E5F0964582D082C8D0E0C8227581E9
:0B00B10074121FA3E582600302007EB2
:1037EE0020F71430F6148883A88220F507E6A88304
:0C37FE0075830022E280F7E49322E022B1
:00000001FF
