:040000000200813247
:03000B0002067179
:0100130032BA
:01001B0032B2
:03002300022ABAF4
:01002B0032A2
:01003300329A
:03003B000206A01A
:01004300328A
:01004B003282
:01005300327A
:01005B003272
:01006300326A
:01006B003262
:01007300325A
:03007B00022C3321
:10009400900096E4F0900097E4F090000174DFF093
:1000A4007441A3F07480A3F09000047401F07442CE
:1000B400A3F07480A3F09000077420F07442A3F0BE
:1000C4007480A3F090000A7447F07442A3F0748023
:1000D400A3F090000D7466F07442A3F07480A3F052
:1000E400900010748AF07442A3F07480A3F090001E
:1000F4001374A8F07442A3F07480A3F090001674F3
:10010400C8F07442A3F07480A3F090001974E7F06F
:100114007442A3F07480A3F090001C23F090001D9F
:10012400F090001EF090001FF090002004F090006A
:1001340021F0900022F0900023F090002404F0902D
:100144000025F0900026F0900027F090002804F09D
:10015400900029F090002AF090002BF090002C04DD
:10016400F090002DF090002EF090002FF0900030D1
:100174007401F0900031F0900032F0900033F09070
:100184000034F0900035F0900036F0900037F09095
:1001940000387404F0900039F090003AF090003B7D
:1001A400F090003C14F090003DF090003EF0900080
:1001B4003FF09000407405F0900041F0900042F050
:1001C400900043F090005CE4F090005D7406F090C1
:1001D400005EC4F07409A3F0E4A3F0A3F0900062FD
:1001E4007480F07470A3F0E4A3F0A3F0900066F0C0
:1001F4007496A3F0E4A3F0A3F090006AF074E1A372
:10020400F0E4A3F0A3F090006EF074C2A3F07401C4
:10021400A3F0E4A3F0900072F07484A3F07403A339
:10022400F0E4A3F090007674E0F07493A3F0740407
:10023400A3F0E4A3F090007AF07408A3F014A3F000
:10024400E4A3F090007E7420F074A1A3F07407A3DB
:10025400F0E4A3F090008274C0F07427A3F0740952
:10026400A3F0E4A3F09000867460F074AEA3F0747D
:100274000AA3F0E4A3F090008AF07435A3F0740CA0
:10028400A3F0E4A3F090008E74A0F074BBA3F07408
:100294000DA3F0E4A3F0900092F07410A3F0740E98
:0502A400A3F0E4A3F04B
:0304FA0002007E7F
:03007E0002126902
:1004FD00AF82C007745CC0E0743DC0E0122EF115F0
:10050D00811581D007BF0002800ABF01028016BF8E
:10051D0002338022745FC0E0743DC0E0122EF115ED
:10052D0081158180207465C0E0743DC0E0122EF10C
:10053D0015811581800F746BC0E0743DC0E0122EE3
:10054D00F115811581AE117F00C006C0077471C011
:10055D00E0743DC0E0122EF1E58124FCF58122AF5F
:10056D0082BF0D02800CBF1B0122BF1C0122BF1DCB
:10057D001122748AC0E0743DC0E0122EF115811570
:10058D0081227E00C007C006748DC0E0743DC0E0BE
:10059D00122EF1E58124FCF58122AF82741BB52268
:1005AD000280028079AE238E11AC117D00C007C090
:1005BD0006C004C0057490C0E0743DC0E0122EF179
:1005CD00E58124FCF581D006D007BF0002800DBF68
:1005DD0001028021BF0202803502066E7F018E115D
:1005ED00758201C0071204FD852411758201120464
:1005FD00FDD007806C7F028E11758202C007120438
:10060D00FD8524117582021204FDD00780537F00F1
:10061D008E11758200C0071204FDD0078043BF0004
:10062D0002800ABF01028014BF0236801E8523118D
:10063D00852282C00712056CD0078025852411857F
:10064D002282C00712056CD00780168523118522E2
:10065D0082C00712056C85241185228212056CD08B
:10066D00078F8222C0E0C082C083C0D0758CD47544
:10067D008A13900058E02401F0A3E03400F09000BC
:10068D005AE02401F0A3E03400F0D0D0D083D08222
:10069D00D0E032C0E0E5EC75EC00D0E032AE87532F
:1006AD0006107F00BE1041BF003EAF84AE857D00B9
:1006BD00EF2FFFED33FD5306017C00EE2FFFEC3DD8
:1006CD00FDEF24F1FFED34FFFD8F06530601EDC361
:1006DD0013CF13CFFD75C7AA75C7558F8475C7AADC
:1006ED0075C7558E855387EF22AF82751101BF31C6
:1006FD000122BF320122BF33028032BF340122BF3B
:10070D0050028049BF530302079ABF5402805EBF57
:10071D0056030207AABF70028023BF7302805EBF1B
:10072D0074028039BF76030207AA0207BA74A7C004
:10073D00E0743DC0E0122EF1158115812274BEC00A
:10074D00E0743DC0E0122EF1158115812274D1C0E7
:10075D00E0743DC0E0122EF1158115812274E3C0C5
:10076D00E0743DC0E0122EF1158115812274F8C0A0
:10077D00E0743DC0E0122EF11581158122740EC07A
:10078D00E0743EC0E0122EF115811581227426C051
:10079D00E0743EC0E0122EF11581158122743DC02A
:1007AD00E0743EC0E0122EF115811581227457C000
:1007BD00E0743EC0E0122EF115811581746EC0E01B
:1007CD00743EC0E0122EF1158115817485C0E07460
:1007DD003EC0E0122EF11581158174A6C0E0743E65
:1007ED00C0E0122EF11581158174C1C0E0743EC0B8
:1007FD00E0122EF11581158174E0C0E0743EC0E069
:10080D00122EF1158115817401C0E0743FC0E01204
:10081D002EF1158115812275B10075B20075B300E9
:10082D0075B40075AC0075AD0043B30853B4F74310
:10083D00AC0153ADFE43B38053B47F43B10153B20A
:10084D00FE43B32053B4DF43B12053B2DF43B110A5
:10085D0053B2EF53B3FE43B40153B3FD43B402534C
:10086D00B3FB43B404C290C291C29222AF827E0404
:10087D00900096E0B50714AB1AAC1BAD1C8B828CA7
:10088D00838DF0E412341A75820422AB1AAC1BADC1
:10089D001C8B828C838DF0E412341A7A00900096B2
:1008AD00E08AF005F08002C313D5F0FBF853000188
:1008BD007900B80140B9003D8AF005F0EF8002C320
:1008CD0013D5F0FB20E02E900096EFF08B828C83F9
:1008DD008DF0123D40F98A0088F005F07401800218
:1008ED0025E0D5F0FBF8E942008B828C838DF0E892
:1008FD0012341A7E00900096E08AF005F08002C353
:10090D0013D5F0FB20E0468AF005F0EF8002C3130B
:10091D00D5F0FBF85300017900B80131B9002E90E4
:10092D000096EFF08B828C838DF0123D40F98A009A
:10093D0088F005F07401800225E0D5F0FBF8E9425E
:10094D00008B828C838DF0E812341A7E010ABA0571
:10095D000050030208AA8E8222AF82AC25AD26AECE
:10096D00277B00C3EB9F503F8C828D838EF0123D11
:10097D0040FAA3AC82AD838A017A00C007C006C0DD
:10098D0005C004C003C001C002748DC0E0743DC039
:10099D00E0122EF1E58124FCF581D003D004D005C1
:1009AD00D006D0070B80BC748AC0E0743DC0E01245
:1009BD002EF11581158122742EC0E0743FC0E01216
:1009CD002EF1158115817439C0E0743FC0E0122EEF
:1009DD00F1158115817451C0E0743FC0E0122EF104
:1009ED00158115817465C0E0743FC0E0122EF115BC
:1009FD00811581746AC0E0743FC0E0122EF115813B
:100A0D001581746FC0E0743FC0E0122EF115811591
:100A1D00817474C0E0743FC0E0122EF11581158110
:100A2D007479C0E0743FC0E0122EF1158115817408
:100A3D007EC0E0743FC0E0122EF1158115817483E4
:100A4D00C0E0743FC0E0122EF115811581748FC086
:100A5D00E0743FC0E0122EF115811581749AC0E04B
:100A6D00743FC0E0122EF11581158174A5C0E0749C
:100A7D003FC0E0122EF11581158174B1C0E0743FB5
:100A8D00C0E0122EF11581158122AF82BF2B03021A
:100A9D001044BF2D03021069BF3003020B4CBF3150
:100AAD0003020B65BF3203020B7ABF3303020B8FB8
:100ABD00BF3403020BA4BF3503020BC6BF360302BE
:100ACD000BFCBF3703020C2ABF48030209C4BF52F7
:100ADD000302109FBF530302101ABF610302108D52
:100AED00BF6203021093BF6303021099BF68030234
:100AFD000C58BF6A03020CE4BF6B03020D17BF6CE9
:100B0D0003020D4ABF72030210E8BF7303020DD634
:100B1D00BF74028007BF7503020FA322900058E037
:100B2D00C0E0A3E0C0E074BEC0E0743FC0E0122E90
:100B3D00F1E58124FCF581900058E4F0A3F02275D5
:100B4D001100C290C291C29274C3C0E0743FC0E064
:100B5D00122EF11581158122751100D29074D2C01B
:100B6D00E0743FC0E0122EF1158115812275110040
:100B7D00C29674E1C0E0743FC0E0122EF1158115EC
:100B8D008122751100D29674EFC0E0743FC0E0125F
:100B9D002EF11581158122751100B296A296E433BE
:100BAD00FE7F00C006C00774FDC0E0743FC0E012B8
:100BBD002EF1E58124FCF58122751100209002D2E1
:100BCD0096B290740CC0E07440C0E0122EF1158105
:100BDD001581A290E433FE7F00C006C0077418C0D3
:100BED00E07440C0E0122EF1E58124FCF58122B2C3
:100BFD0091741DC0E07440C0E0122EF11581158175
:100C0D00A291E433FE7F00C006C0077418C0E074E3
:100C1D0040C0E0122EF1E58124FCF58122B29274E0
:100C2D0029C0E07440C0E0122EF115811581A29209
:100C3D00E433FE7F00C006C0077418C0E07440C0E6
:100C4D00E0122EF1E58124FCF58122AD2BAE2CAF07
:100C5D002D8D828E838FF0123D40FC1C8D828E83F4
:100C6D008FF0EC12341AAA28AB29AC2A8A828B8316
:100C7D008CF0123D40FABA013C8D828E838FF012BA
:100C8D003D4075F004A4245EF582740035F0F583C3
:100C9D00E0F9A3E0FAA3E0FBA3E0FCC001C002C0B1
:100CAD0003C0047435C0E07440C0E0122EF1E5813C
:100CBD0024FAF581228D828E838FF0123D40FD7FC7
:100CCD0000C005C0077448C0E07440C0E0122EF1AA
:100CDD00E58124FCF58122AD28AE29AF2A8D828EC7
:100CED00838FF0123D40FC1C8D828E838FF0EC12B1
:100CFD00341A7F00C004C0077456C0E07440C0E0D1
:100D0D00122EF1E58124FCF58122AD28AE29AF2A02
:100D1D008D828E838FF0123D40FC0C8D828E838FE1
:100D2D00F0EC12341A7F00C004C0077456C0E07492
:100D3D0040C0E0122EF1E58124FCF58122AD2BAEF1
:100D4D002CAF2D8D828E838FF0123D40FC0C8D8249
:100D5D008E838FF0EC12341AAA28AB29AC2A8A8222
:100D6D008B838CF0123D40FABA013C8D828E838FBD
:100D7D00F0123D4075F004A4245EF582740035F048
:100D8D00F583E0F9A3E0FAA3E0FBA3E0FCC001C00A
:100D9D0002C003C0047435C0E07440C0E0122EF1EF
:100DAD00E58124FAF581228D828E838FF0123D40EC
:100DBD00FD7F00C005C0077448C0E07440C0E0125C
:100DCD002EF1E58124FCF58122AD28AE29AF2A8DC7
:100DDD00828E838FF0123D40FC6009BC0103020E30
:100DED0084020F31852B2E852C2F852D30852E825B
:100DFD00852F838530F0123D40C454F0F85300F038
:100E0D00740F5C48F582C007C006C0051221E6D0FC
:100E1D0005D006D007852E82852F838530F0123DB3
:100E2D0040F8E4C8C4C868C854F0C868FB8D828E09
:100E3D00838FF0123D407A004200EA4203C000C0A9
:100E4D00037464C0E07440C0E0122EF1E58124FC0F
:100E5D00F581852E82852F838530F0123D40FB7AFA
:100E6D0000C003C002747CC0E07440C0E0122EF1DB
:100E7D00E58124FCF58122852B2E852C2F852D30A7
:100E8D00852E82852F838530F0123D40C454F0F8B5
:100E9D005300F0740F5C48F582C007C006C0051200
:100EAD0021E6D005D006D007852E82852F8385308B
:100EBD00F0123D40F8E4C8C4C868C854F0C868FBD7
:100ECD008D828E838FF0123D407A004200EA4203FC
:100EDD00C000C0037464C0E07440C0E0122EF1E5A0
:100EED008124FCF581852E82852F838530F0123D7E
:100EFD004075F004A4245EF582740035F0F583E0AE
:100F0D00F8A3E0F9A3E0FAA3E0FBC000C001C00222
:100F1D00C0037435C0E07440C0E0122EF1E58124A9
:100F2D00FAF58122A92BAA2CAB2D89828A838BF00D
:100F3D00123D40C454F0F85300F0740F5C48F58234
:100F4D00C007C006C005C003C002C0011221E6D013
:100F5D0001D002D003D005D006D00789828A838BB9
:100F6D00F0123D40F9E4C9C4C969C954F0C969FC1E
:100F7D008D828E838FF0123D407F004201EF42043F
:100F8D00C001C0047464C0E07440C0E0122EF1E5ED
:100F9D008124FCF58122AD2BAE2CAF2D8D828E835D
:100FAD008FF0123D4075F004A4245EF58274003577
:100FBD00F0F583E0F9A3E0FAA3E0FBA3E0FCC007A2
:100FCD00C006C005C001C002C003C0047435C0E036
:100FDD007440C0E0122EF1E58124FAF581D005D0E0
:100FED0006D0078D828E838FF0123D4075F004A4DC
:100FFD00245EF582740035F0F583E0FCA3E0FDA3DB
:10100D00E0FEA3E08C828D838EF00229EE90009796
:10101D00E0F5821221E6900097E0FF7E00C007C048
:10102D0006C007C006748DC0E07440C0E0122EF1FA
:10103D00E58124FAF58122900097E02401F0E0FF8C
:10104D007E00C007C006C007C00674A8C0E074408B
:10105D00C0E0122EF1E58124FAF58122900097E08F
:10106D0014F0E0FF7E00C007C006C007C00674A8DC
:10107D00C0E07440C0E0122EF1E58124FAF5812222
:10108D007582110221E67582120221E67582130224
:10109D0021E6AD2BAE2CAF2D8D828E838FF0123DC0
:1010AD0040C454F0FC74014CF582C007C006C00565
:1010BD001221E6D005D006D0078D828E838FF012D7
:1010CD003D40FD7F00C005C00774BDC0E07440C049
:1010DD00E0122EF1E58124FCF58122AD2BAE2CAF73
:1010ED002D8D828E838FF0123D40C454F0F582C059
:1010FD0007C006C0051221E6D005D006D0078D82A7
:10110D008E838FF0123D40FD7F00C005C00774CC6B
:10111D00C0E07440C0E0122EF1E58124FCF581227F
:10112D00AD82AE83AFF074012DFAE43EFB8F048ADD
:10113D00828B838CF0746412341A8D828E838FF0BF
:10114D00C007C006C005122189D005D006D0078D75
:10115D00828E838FF00221E9AD82AE83AFF07402EF
:10116D002DFAE43EFB8F048A828B838CF0123D4076
:10117D00FAA931AB32AC338D828E838FF0123D40A4
:10118D0089828B838CF012341A740229FDE43BFEA4
:10119D008C078D828E838FF0EA12341A89828B83AD
:1011AD008CF01221898531828532838533F00221BD
:1011BD00E985823985833A85F03BF53CA936AA3716
:1011CD00AB38A83B89828A838BF0E812341A7401FC
:1011DD0029FDE43AFE8B07AC3A8D828E838FF0ECBD
:1011ED0012341A740229F53DE43AF53E8B3FAF39BE
:1011FD00853D82853E83853FF0EF12341A7E008C4B
:10120D003D8E3E7D00C003C002C001C007C006C0B8
:10121D003DC03EC000C005C039C03AC03BC03C74A3
:10122D00DBC0E07440C0E0122EF1E58124F4F581BD
:10123D00D001D002D003740329FDE43AFE8B078D53
:10124D00828E838FF0E53412341A740429F9E43A4E
:10125D00FA89828A838BF0E53502341A90009A74EC
:10126D0001F090009B7405F090009C7401F09000CB
:10127D009DF090009FE4F09000A0F09000A1740804
:10128D00F09000D4E4F09000D5F09000D6F09000EE
:10129D00D7F09000D8F09000D9F09000DAF09000DF
:1012AD00DBF09000DCF09000DDF09000DEF09000BF
:1012BD00DFF09000E004F09000E104F09000E21403
:1012CD00F09000E3740AF09000E403F09000E574F0
:1012DD001CF07400A3F0E4A3F09000E804F090007B
:1012ED00E904F09000EAF09000EB740AF09000EC45
:1012FD0003F09000ED741CF07400A3F0E4A3F090E3
:10130D0000F004F09000F104F09000F204F0900071
:10131D00F3740AF09000F403F09000F5741CF0746F
:10132D0000A3F0E4A3F09000F804F09000F904F0AD
:10133D009000FA23F09000FB740AF09000FC03F08B
:10134D009000FD741CF07400A3F0E4A3F090010074
:10135D0004F090010104F09001027405F090010376
:10136D0023F090010403F0900105741CF07400A3A8
:10137D00F0E4A3F090010804F09001097407F090D7
:10138D00010A7401F090010BC4F090010C74FFF090
:10139D0090010D7430F07400A3F0E4A3F0900110EF
:1013AD0004F09001117464F09001127401F0900139
:1013BD0013C4F09001147405F0900115741CF074B1
:1013CD0000A3F0E4A3F0120824122A531206AA5324
:1013DD008EF7D2A9D28C75110074EDC0E07440C0A7
:1013ED00E0122EF11581158174FDC0E07440C0E04E
:1013FD00122EF115811581751101740DC0E0744126
:10140D00C0E0122EF1158115817E307F7500000030
:10141D0000001EBEFF011FEE4F70F2D29675110037
:10142D007E307F7500000000001EBEFF011FEE4FD5
:10143D0070F2900072E0FCA3E0FDA3E0FEA3E08C4F
:10144D00828D838EF01229EE7E307F7500000000B4
:10145D00001EBEFF011FEE4F70F2D296900019E0F4
:10146D00FDA3E0FEA3E0FFC005C006C007741DC0CC
:10147D00E07441C0E07480C0E012345DE58124FA6F
:10148D00F581D290C291C29290009875F000122B06
:10149D004EE5827003021AB0900098E0FFBF1B0268
:1014AD00800DBF1C028051BF1D02804C02154E9055
:1014BD0000A1E02401F0E0FEBE09059000A1E4F0DA
:1014CD009000A1E075F003A42401F582740035F0BD
:1014DD00F583E0FCA3E0FDA3E0FEC004C005C0065B
:1014ED00741DC0E07441C0E07480C0E012345DE54D
:1014FD008124FAF581021AF49000A1E014F0E0FEC7
:10150D00BEFF069000A17408F09000A1E075F003F5
:10151D00A42401F582740035F0F583E0FCA3E0FD11
:10152D00A3E0FEC004C005C006741DC0E07441C038
:10153D00E07480C0E012345DE58124FAF581021A71
:10154D00F49000A1E0FE24F75003021AF4EE240AF1
:10155D0083F582EE240D83F583E4737A94B1AC8F19
:10156D00C85975F41515151617171A1A1A75289CDA
:10157D00752900752A00752B9A752C00752D008F15
:10158D0082120A97021AF4900058E4F0A3F090002A
:10159D00DFE0FE04F0EE24A2F582E43400F583EFE3
:1015AD00F0021AF4BF66028018BF67028028BF6878
:1015BD00028038BF6A02804BBF6B030216400216D1
:1015CD006E90009AE014F0E0600302166E90009A9F
:1015DD007401F002166E90009CE014F0E0600302BE
:1015ED00166E90009C7401F002166E90011574D465
:1015FD00F07400A3F0E4A3F090011075F000122137
:10160D00E9805E90009CE02401F0E0FEBE6506904E
:10161D00009C7464F090009CE0FE7D00C006C00547
:10162D007456C0E07440C0E0122EF1E58124FCF543
:10163D0081802E90009AE02401F0E0FEBE1006900D
:10164D00009A740FF090009AE0FE7D00C006C00570
:10165D007448C0E07440C0E0122EF1E58124FCF521
:10166D0081900098E0FEBE66028018BE670280136E
:10167D00BE6803021AF4BE6A028008BE6B028003C4
:10168D00021AF490009AE0900112F090009CE09004
:10169D000111F090011075F0001224E9021AF4BF47
:1016AD006802800FBF6A02801CBF6B028031BF6C65
:1016BD005A80469000DEE014F0E0FEBEFF4D900033
:1016CD00DEE4F080469000DEE024D4FEE43400FD3C
:1016DD008E828D83E0FC1C8E828D83ECF0802C90AD
:1016ED0000DEE024D4FEE43400FD8E828D83E0FC28
:1016FD000C8E828D83ECF080129000DEE02401F0E0
:10170D00E0FEBE0A06EE149000DEF0900098E0FEBA
:10171D00BE6802800DBE6A028026BE6B028021BEAD
:10172D006C609000DEE0FE7D00C006C0057422C036
:10173D00E07441C0E0122EF1E58124FCF581804278
:10174D007E00EE24D4F582E43400F583E0FD7C00C8
:10175D00C006C005C004742FC0E07441C0E07480A1
:10176D00C0E012345DE58124FBF581D0060EBE0A82
:10177D000040CF748AC0E0743DC0E0122EF1158197
:10178D001581900098E0FEBE6502801ABE732C7420
:10179D0035C0E07441C0E0122EF115811581900025
:1017AD00A07404F08015745AC0E07441C0E0122E8C
:1017BD00F1158115819000A07405F0900098E0FE60
:1017CD00BE3002802CBE31028060BE320302187022
:1017DD00BE33030218A9BE34030218E2BE3503025C
:1017ED00191BBE6A0302199CBE6B03021954021920
:1017FD00E090009BE075F004A4245EF58274003542
:10180D00F0F583E0FBA3E0FCA3E0FDA3E0FE75365D
:10181D00D47537007538007534007535008B828CA2
:10182D00838DF0EE1211BE0219E090009BE075F071
:10183D0004A4245EF582740035F0F583E0FBA3E08B
:10184D00FCA3E0FDA3E0FE7536D4753700753800B6
:10185D007534017535008B828C838DF0EE1211BEBF
:10186D000219E090009BE075F004A4245EF58274EB
:10187D000035F0F583E0FBA3E0FCA3E0FDA3E0FE63
:10188D007536D47537007538007534027535008B93
:10189D00828C838DF0EE1211BE0219E090009BE058
:1018AD0075F004A4245EF582740035F0F583E0FB39
:1018BD00A3E0FCA3E0FDA3E0FE7536D475370075FB
:1018CD0038007534027535FF8B828C838DF0EE12E6
:1018DD0011BE0219E090009BE075F004A4245EF5A2
:1018ED0082740035F0F583E0FBA3E0FCA3E0FDA3DB
:1018FD00E0FE7536D47537007538007534037535CF
:10190D00008B828C838DF0EE1211BE0219E09000D7
:10191D009BE075F004A4245EF582740035F0F58328
:10192D00E0FBA3E0FCA3E0FDA3E0FE7536D4753724
:10193D00007538007534037535FF8B828C838DF0FF
:10194D00EE1211BE0219E090009BE0FEBE0D00509C
:10195D000690009BEE04F090009BE075F004A4242B
:10196D005EF582740035F0F583E0FBA3E0FCA3E0A7
:10197D00FDA3E0FEC003C004C005C0067435C0E081
:10198D007440C0E0122EF1E58124FAF58180449077
:10199D00009BE0FEE06006EE1490009BF090009B33
:1019AD00E075F004A4245EF582740035F0F583E053
:1019BD00FBA3E0FCA3E0FDA3E0FEC003C004C00553
:1019CD00C0067435C0E07440C0E0122EF1E58124EC
:1019DD00FAF581900098E0FEBE3002801CBE310207
:1019ED008017BE32028012BE3302800DBE340280DB
:1019FD0008BE35028003021AF49001117407F090AD
:101A0D000113740AF090011574D4F07400A3F0E47E
:101A1D00A3F090011075F0001221E990011075F0FE
:101A2D00001224E990009BE075F004A4245EF58279
:101A3D00740035F0F583E0FBA3E0FCA3E0FDA3E02B
:101A4D008B828C838DF01229EE021AF48F057E00A5
:101A5D00C005C006748DC0E0743DC0E0122EF1E5E6
:101A6D008124FCF581021AF4EFC4540F701FEFFEB0
:101A7D0024FC5003021AF4EE2E901A8A738006800D
:101A8D000880648062C290805ED290805A8F8212EC
:101A9D0021E6747FC0E07441C0E0122EF11581156E
:101AAD008180449000A1E0FF24FB403BEF2F901A72
:101ABD00BF7380338006802F802D802B900058E0DF
:101ACD00FEA3E0FFC3740A9EE49F501B9000DFE06D
:101ADD00FFE060137525A27526007527008F821211
:101AED0009669000DFE4F090009DE0FF7003021B9B
:101AFD00F9A295E433FEA2B0E43325E04206A280BC
:101B0D00E43325E025E04206A293E433C40354F800
:101B1D004206A297E433C454F04EF582751A9E75B1
:101B2D001B00751C00C007120879AE82D007BE01DC
:101B3D00028003021C30EFFE24FA5003021C30EE2B
:101B4D002E2E901B5373021C30021B65021B760256
:101B5D001BE1021BE9021BF1D296C290D291C292F7
:101B6D0090009DEF04F0021C3090005EE0FBA3E0BE
:101B7D00FCA3E0FDA3E08B828C838DF01229EE7522
:101B8D0082511221E6900072E0FBA3E0FCA3E0FD80
:101B9D00A3E0FEC003C004C005C0067435C0E074E8
:101BAD0040C0E0122EF1E58124FAF581900072E03B
:101BBD00FBA3E0FCA3E0FDA3E08B828C838DF012F0
:101BCD0029EE90009C7402F090009A14F090009D04
:101BDD00E4F0804F90009DEF04F0804790009DEF62
:101BED0004F0803F90009DEF04F08037A295E43320
:101BFD00FFA2B0E43325E04207A280E43325E025BF
:101C0D00E04207A293E433C40354F84207A297E4D9
:101C1D0033C454F04FF582751A9E751B00751C0068
:101C2D0012087990009FE0FF600DBF0102803DBF5B
:101C3D00030280620214959000A0E0FFBF040280B1
:101C4D000302149590009F7403F090005AE4F0A3E2
:101C5D00F090011075F00012112D7482C0E07441E6
:101C6D00C0E0122EF11581158102149590009F741C
:101C7D0003F09000A0E0FFBF0502800302149590D1
:101C8D00009FE4F07496C0E07441C0E0122EF1158F
:101C9D0081158102149590009975F000122CC7E5FD
:101CAD00827003021E6290005DE0FFBF060280138A
:101CBD00BF0702802DBF08028069BF0903021D8D79
:101CCD00021E62900099E06003021E6290005AE4C9
:101CDD00F0A3F090005D7407F09000567401F002CF
:101CED001E62900099E0FFBFF00E90005D7408F049
:101CFD009000577401F08007900056E02401F09099
:101D0D00005AE0FEA3E0FFC374E89E74039F4003F6
:101D1D00021E6290005D7406F090005AE4F0A3F08C
:101D2D00021E62900099E0FFBFF009900057E02479
:101D3D0001F08028900057E0FEBE031A90005D74FC
:101D4D0009F09000547401F0900044EFF090005AA7
:101D5D00E4F0A3F0800690005D7409F090005AE065
:101D6D00FEA3E0FFC374E89E74039F4003021E624E
:101D7D0090005D7406F090005AE4F0A3F0021E622C
:101D8D00900054E0FF04F0EF2444FFE43400FE9093
:101D9D000099E0FD8F828E83F0900054E0FFBF0B21
:101DAD00028003021E44900046E0FEBE0A0050670A
:101DBD0075424475430075440075451075460175AF
:101DCD0047008F8212235790011075F0001221B138
:101DDD00AF82BF0142900044E0FF7E00900046E0DC
:101DED00FD7C00C007C006C005C00474A8C0E07427
:101DFD0041C0E0122EF1E58124FAF58190011075B4
:101E0D00F0001224E9753108753201753300900127
:101E1D001075F00012116574CCC0E07441C0E01271
:101E2D002EF115811581900054E4F090005D74063B
:101E3D00F090009F7401F090005AE0FEA3E0FFC304
:101E4D0074E89E74039F500D90005D7406F0900031
:101E5D005AE4F0A3F09000A0E0FFBF05028003025A
:101E6D001495900054E4F090009FF090005D74067E
:101E7D00F074D1C0E07441C0E0122EF115811581CE
:031E8D00021495A7
:103D5C000A0D0073656C66200063726F73730062EA
:103D6C006F74682000206F75747075743A546869AC
:103D7C0073206973205541525425640A0D000D0AB5
:103D8C00002563000D0A696E7075743A5468697386
:103D9C00206973205541525425640049646C652098
:103DAC00707265616D626C65206F6E2F6F66660D4B
:103DBC000A004C696E65466920506F776572204F1A
:103DCC0066660D0A004C696E65466920506F776512
:103DDC0072204F6E0D0A004C696E65466920556164
:103DEC007274205478204C6F770D0A004C696E6504
:103DFC004669205561727420547820486967680DB3
:103E0C000A004C696E654669204353432072782042
:103E1C0046534D204F66660D0A004C696E65466927
:103E2C00204353432072782046534D204F4E0D0AA9
:103E3C000056657273696F6E20312E34206F6E20C0
:103E4C0032303233313032360D0A00313A20646F61
:103E5C00776E6C696E6B207061636B657420310DCD
:103E6C000A00323A20646F776E6C696E6B20706159
:103E7C00636B657420320D0A00333A2075706C69DF
:103E8C006E6B2069646C6520707265616D626C6527
:103E9C00206F6E2F6F66660D0A00702F503A204C03
:103EAC00696E65466920506F776572206F66662F64
:103EBC006F6E0D0A00742F543A204C696E6546697A
:103ECC002055617274205478204C6F772F486967A5
:103EDC00680D0A00732F533A204C696E654669656C
:103EEC00204353432052782046534D206F66662F53
:103EFC006F6E0D0A00746573742070726F63656465
:103F0C007572653A2070202D3E2050202D3E205495
:103F1C00202D3E2053202D3E2031206F7220320D5B
:103F2C000A00743A2074696D65720D0A00303A20EB
:103F3C004C696E65466920454E302C312C32206F11
:103F4C0066660D0A00313A204C696E65466920455B
:103F5C004E30203D20310D0A00323A0D0A00333A22
:103F6C000D0A00343A0D0A00353A0D0A00363A0DA6
:103F7C000A00373A0D0A00683A20416464722D2D0C
:103F8C000D0A006A3A20436D642D2D0D0A006B3A20
:103F9C0020436D642B2B0D0A006C3A204164647233
:103FAC002B2B0D0A00733A2073656E64696E670DD6
:103FBC000A0025750A0D004C494E4546495F454E91
:103FCC00303D300A0D004C494E4546495F454E3058
:103FDC003D310A0D004C494E4546495F54583D3021
:103FEC000A0D004C494E4546495F54583D310A0D67
:103FFC00004C494E4546495F54583D25640A0D0016
:10400C004C494E4546495F454E303D0025640A0DEE
:10401C00004C494E4546495F454E313D004C494E9A
:10402C004546495F454E323D007561727420737090
:10403C006565643A20256C753A0A0D0061646472FA
:10404C006573733A2025640A0D00636F6D6D616EA4
:10405C00643A2025640A0D004C696E65466920534C
:10406C00656E64696E673A20307825783A0A0D00DF
:10407C00616464726573733A20307825643A0A0D72
:10408C00004C696E6546692053656E64696E673ACB
:10409C002025642830782578290A0D0073656E6414
:1040AC0020646174612025642830782578290A0DF4
:1040BC0000526F7461746521213A2564200A0D0049
:1040CC0053746F70202020203A2564200A0D00259F
:1040DC006C752825782C2025782C202578290D0A1C
:1040EC0000546869732069732055415254300A0D8D
:1040FC00004C696E654669204D61737465720A0DDA
:10410C0000546869732069732055415254310A0D6B
:10411C000025730D0A00446174614964783A256482
:10412C000D0A0030782578200053544152542070E9
:10413C006572696F646963207061636B6574206775
:10414C00656E65726174696E672E2E0D0A0053548C
:10415C004F502020706572696F64696320706163D1
:10416C006B65742067656E65726174696E672E2E5F
:10417C000D0A004F4B007374617274696E672041B5
:10418C004C4F48412E2E2E0D0A0073746F707069BF
:10419C006E6720414C4F48412E2E2E00536C617699
:1041AC00655F414444523A2025642C20554C5F50A5
:1041BC0061636B65745F6E756D3A2025640D0A0042
:1041CC000D0A0D0A0073746F7070696E672E2E2EB7
:1041DC000D0A0055415254305F494E5055545F4DB5
:1041EC004F4445303A6F6E65206B657920636F6E76
:1041FC0074726F6C0055415254305F494E50555497
:10420C005F4D4F4445313A737472696E6720696E25
:10421C007075740055415254305F494E5055545F7F
:10422C004D4F4445323A6D696D696320356B657944
:10423C0073206F6E20626F6172640055415254306E
:10424C005F494E5055545F4D4F4445333A64617449
:10425C00612073657474696E670055415254305F08
:10426C00494E5055545F4D4F4445343A7065726910
:10427C006F6469632066756E6374696F6E00554177
:10428C005254305F494E5055545F4D4F4445353A6A
:10429C0075706C696E6B2074657374005541525463
:1042AC00305F494E5055545F4D4F4445363A6C6F14
:1042BC006F706261636B2074657374005541525466
:1042CC00305F494E5055545F4D4F4445373A7061FD
:1042DC007373207468726F7567680055415254305F
:1042EC005F494E5055545F4D4F4445383A207570D8
:0842FC006C696E6B2072780002
:101E900075C7AA75C75575FD5A75C7AA75C7557513
:101EA000FDA575820022AC82AD83AEF0FF538EF7A4
:101EB000438901D28CEC4D4E4F601A758A76758C31
:101EC000FF108D0280FB1CBCFF091DBDFF051EBE5F
:101ED000FF011F80E0C28C22AC82AD83AEF0FF53C5
:101EE0008EF7438901D28CEC4D4E4F601A758A985B
:101EF000758CFA108D0280FB1CBCFF091DBDFF050F
:101F00001EBEFF011F80E0C28C22AC82AD83AEF00A
:101F1000FF538EEF438910D28EEC4D4E4F601A75F1
:101F20008BF6758DC9108F0280FB1CBCFF091DBD8F
:101F3000FF051EBEFF011F80E0C28E22AC82AD8372
:101F4000AEF0FF53C9BF53C9DF43C910D2CAEC4D2D
:101F50004E4F601A75CCE575CDF710CF0280FB1C93
:101F6000BCFF091DBDFF051EBEFF011F80E0C2CAE8
:101F700022AC82AD83AEF0FF75C40743C408EC4DBC
:101F80004E4F602575C55775C6CDAAC45302107B48
:101F900000BA10F6BB00F353C4EF1CBCFF091DBD13
:101FA000FF051EBEFF011F80D553C4F722AC82ADD2
:101FB00083AEF0FF75C40743C408EC4D4E4F602557
:101FC00075C5D775C6FFAAC45302107B00BA10F6B8
:101FD000BB00F353C4EF1CBCFF091DBDFF051EBEB3
:101FE000FF011F80D553C4F722AF82A2AF9200C277
:101FF000AF75C7AA75C755439F01A20092AFE51DF3
:102000006013A2AF9200C2AF75C7AA75C75543A5AA
:1020100001A20092AF851BA6851AA7851CAE8FAFC3
:10202000A2AF9200C2AF75C7AA75C75543A401A25B
:102030000092AFE51D6026A2AF9200C2AF75C7AA9D
:1020400075C75553A5FEA20092AFA2AF9200C2AFD2
:1020500075C7AA75C755539FFEA20092AF22AE82E4
:10206000AF838F1A8E1B751CFF751D0175822202AE
:102070001FE9AE82AF838F1A8E1B85101C751D0160
:10208000758221021FE9751A00751B0C751C0075FD
:102090001D00758204121FE9AFAE751A00751B0D85
:1020A000751C00751D00758204C007121FE9D0075A
:1020B000E5AE540FFEA2AF9200C2AF75C7AA75C7B6
:1020C00055539FFEA20092AFE4C454F0CFC4CF6F2B
:1020D000CF54F0CF6FFD7C00EE2FF582EC3DF58301
:1020E0002285821B751A00751C00751D00758204FF
:1020F000121FE985AE82A2AF9200C2AF75C7AA7562
:0A210000C755539FFEA20092AF22C4
:1002A900E4F540F541900118749CF07443A3F0748F
:1002B90080A3F090011B74A7F07443A3F07480A38A
:1002C900F090011E74B2F07443A3F07480A3F0900F
:1002D900012174BDF07443A3F07480A3F09001244C
:1002E90074CAF07443A3F07480A3F090012774D604
:1002F900F07443A3F07480A3F090012A74E5F074BC
:1003090043A3F07480A3F090012D74F3F07443A318
:10031900F07480A3F090013074FCF07443A3F0747E
:1003290080A3F090013374FCF07443A3F07480A3AC
:10033900F090013674FCF07443A3F07480A3F0903C
:10034900013974FCF07443A3F07480A3F090013C6C
:1003590074FCF07443A3F07480A3F090013F74FC23
:10036900F07443A3F07480A3F090014274FCF0741C
:1003790043A3F07480A3F090014574FCF07443A387
:10038900F07480A3F090014874FCF07443A3F074F6
:1003990080A3F090014B74FCF07443A3F07480A324
:1003A900F090014E74FCF07443A3F07480A3F090B4
:1003B900015174FCF07443A3F07480A3F0900154CC
:1003C90074FCF07443A3F07480A3F090015774FC9B
:1003D900F07443A3F07480A3F090015A74FCF07494
:1003E90043A3F07480A3F090015D74FCF07443A3FF
:1003F900F07480A3F090016074FCF07443A3F0746E
:1004090080A3F090016374FCF07443A3F07480A39B
:10041900F090016674FCF07443A3F07480A3F0902B
:0D042900016974FCF07443A3F07480A3F02B
:10210A00AD82AE83AFF074032DFDE43EFE8D828E68
:10211A00838FF0123D402405F58222AD82AE83AF53
:10212A00F08D028E038F04751A04751BFF8A828B49
:10213A00838CF0C007C006C00512272185821BD0F8
:10214A0005D006D00774052DFAE43EFB8F048A8277
:10215A008B838CF0123D40FAA3123D40FBA3123D43
:10216A0040FC74032DFDE43EFE8D828E838FF012B7
:10217A003D4024FBF51A8A828B838CF0022721AD1D
:10218A0082AE83AFF0C007C006C005122125AC821B
:10219A00D005D006D00774042DFDE43EFE8D828E54
:1021AA00838FF0EC02341AAD82AE83AFF0C007C061
:1021BA0006C005122125AC82D005D006D0077404CA
:1021CA002DFDE43EFE8D828E838FF0123D40B504D4
:1021DA00047582012275820022022CC7022DA1AD4C
:1021EA0082AE83AFF0C007C006C005122125D00514
:1021FA00D006D0078D028E038F048A828B838CF0DF
:10220A00123D40F5820ABA00010BC007C006C0059C
:10221A00C004C003C0021221E6D002D003D004D009
:10222A0005D006D0078A828B838CF0123D40F58256
:10223A000ABA00010BC007C006C005C004C003C02B
:10224A00021221E6D002D003D004D005D006D0076E
:10225A008A828B838CF0123D40F90ABA00010B89FD
:10226A0082C007C006C005C004C003C0021221E62E
:10227A00D002D003D004D005D006D0078A828B833F
:10228A008CF0123D40F5820ABA00010BC007C00665
:10229A00C005C004C003C0021221E6D002D003D098
:1022AA00048A828B838CF0123D40F5821221E6D09B
:1022BA0005D006D00774052DFAE43EFB8F0474039B
:1022CA002DFDE43EFE7900C002C003C0048D828E5B
:1022DA00838FF0123D407C0024FBF8EC34FFFC892C
:1022EA00027B00C3EA98EB64808CF063F08095F07F
:1022FA00D004D003D0025054C005C006C0078A8259
:10230A008B838CF0123D40F8A3123D40FEA3123D90
:10231A0040FFE928F8E43EFE88828E838FF0123D62
:10232A0040F582C007C006C005C004C003C002C091
:10233A00011221E6D001D002D003D004D005D00684
:10234A00D00709D007D006D0050222D122AF82BF1A
:10235A000500500475820322AD45AE46AF47AA4236
:10236A00AB43AC448A828B838CF0123D40F97401F2
:10237A002AF542E43BF5438C448D828E838FF0E943
:10238A0012341A0DBD00010EAA42AB43AC448A8234
:10239A008B838CF0123D40F974012AF542E43BF537
:1023AA00438C448D828E838FF0E912341A0DBD005E
:1023BA00010EAA42AB43AC448A828B838CF0123D55
:1023CA0040F974012AF542E43BF5438C448D828E30
:1023DA00838FF0E912341A0DBD00010EAA42AB43F5
:1023EA00AC448A828B838CF0123D40F974012AF541
:1023FA0042E43BF5438C448D828E838FF0E912349C
:10240A001A0DBD00010EAA42AB43AC448A828B83EB
:10241A008CF0123D40F974012AF542E43BF5438CF5
:10242A00448D828E838FF0E912341AAD45AE46AFE1
:10243A004774032DFAE43EFB8F0485424985434ADB
:10244A0085444B754800C005C006C0078A828B8345
:10245A008CF0123D40790024FBF8E934FFF9AE48CC
:10246A007F00C3EE98EF648089F063F08095F0D026
:10247A0007D006D0055053C002C003C00474052D0E
:10248A00F8E43EF98F04888289838CF0123D40F883
:10249A00A3123D40F9A3123D40FCE54828F8E4396F
:1024AA00F9854982854A83854BF0123D40FBA38515
:1024BA00824985834A888289838CF0EB12341A0513
:1024CA0048D004D003D0020224508D828E838FF02C
:1024DA001221B1E58270047582042275820222AD4E
:1024EA0082AE83AFF0C007C006C0057404C0E074B2
:1024FA0043C0E0122EF115811581D005D006D00710
:10250A008D828E838FF0123D40FC7B00C007C0068F
:10251A00C005C004C0037426C0E07443C0E0122E94
:10252A00F1E58124FCF581D005D006D00774012D90
:10253A00FAE43EFB8F048A828B838CF0123D40FAC8
:10254A0075F003A42418F582740135F0F583E0F9D7
:10255A00A3E0FBA3E0FC8A007A00C007C006C0051E
:10256A00C001C003C004C000C0027431C0E074439B
:10257A00C0E0122EF1E58124F9F581D005D006D00C
:10258A000774022DFAE43EFB8F048A828B838CF057
:10259A00123D40FA7C00C007C006C005C002C00454
:1025AA007440C0E07443C0E0122EF1E58124FCF5CA
:1025BA0081D005D006D00774032DFAE43EFB8F04C0
:1025CA008A828B838CF0123D40FA7C00C007C006D9
:1025DA00C005C002C004744BC0E07443C0E0122EB0
:1025EA00F1E58124FCF581D005D006D0078D828ED5
:1025FA00838FF0C007C006C005122125AC82D00522
:10260A00D006D0077B0074042DF8E43EF98F0288C7
:10261A008289838AF0123D40F87A00C007C006C05A
:10262A0005C004C003C000C0027456C0E07443C0B1
:10263A00E0122EF1E58124FAF581746AC0E0744350
:10264A00C0E0122EF115811581D005D006D007748D
:10265A00052DFAE43EFB8F0474032DFDE43EFE755E
:10266A004C00C002C003C0048D828E838FF0123DDD
:10267A0040790024FBF8E934FFF9AB4C7C00C3EB4A
:10268A0098EC648089F063F08095F0D004D003D090
:10269A00025065C005C006C0078A828B838CF0127F
:1026AA003D40F8A3123D40F9A3123D40FFE54C28F6
:1026BA00F8E439F9888289838FF0123D40F87F0067
:1026CA00C007C006C005C004C003C002C000C007DE
:1026DA007471C0E07443C0E0122EF1E58124FCF568
:1026EA0081D002D003D004D005D006D007054CD043
:1026FA0007D006D00502266C7477C0E07443C0E0A8
:10270A00122EF1158115817404C0E07443C0E012E1
:10271A002EF11581158122AD82AE83AFF0AC1BED8F
:10272A004E60217B00C3EB951A50198D828E838FE0
:10273A00F0123D40FAA3AD82AE83EC6A90285D9315
:10274A00FC0B80E18C8222AF82AD40AE410540E4B1
:10275A00B540020541C007C005C006747AC0E074DE
:10276A0043C0E0122EF1E58124FCF5817480C0E0BB
:10277A007443C0E0122EF115811581D0077E00C383
:10278A00EE9F50248E047D00C007C006C004C00519
:10279A007488C0E07443C0E0122EF1E58124FCF590
:1027AA0081D006D0070E80D7C0077477C0E0744383
:1027BA00C0E0122EF115811581748FC0E07443C0F8
:1027CA00E0122EF115811581D0077E00C3EE9F50CD
:1027DA0072AB4DAC4EAD4F8B828C838DF0123D4067
:1027EA00FABA100050308A0174012BF54DE43CF519
:1027FA004E8D4F89007900C007C006C000C0017421
:10280A0095C0E07443C0E0122EF1E58124FCF58105
:10281A00D006D007802A74012BF54DE43CF54E8D85
:10282A004F7D00C007C006C002C0057471C0E074C5
:10283A0043C0E0122EF1E58124FCF581D006D007D1
:10284A000E80897477C0E07443C0E0122EF11581BE
:03285A00158122C3
:104304002D2D2D2D2D2D2D2D2D2D2D2D2D2D2D2DD9
:104314002D2D2D2D2D2D2D2D2D2D2D2D2D2D2D0DE9
:104324000A00566572203A2025640D0A00547970FB
:10433400653A202564282573290D0A0041646472B6
:104344003A2025640D0A0053697A653A2025640DE4
:104354000A0043524320636F6D70203A2025642085
:104364002564200D0A00444154413A200030782548
:064374007820000D0A0094
:10285D0000316253C4F5A697B988DBEA7D4C1F2E73
:10286D004372211087B6E5D4FACB98A93E0F5C6D63
:10287D0086B7E4D5427320113F0E5D6CFBCA99A853
:10288D00C5F4A796013063527C4D1E2FB889DAEB43
:10289D003D0C5F6EF9C89BAA84B5E6D74071221333
:1028AD007E4F1C2DBA8BD8E9C7F6A5940332615023
:1028BD00BB8AD9E87F4E1D2C02336051C6F7A49513
:1028CD00F8C99AAB3C0D5E6F4170231285B4E7D603
:1028DD007A4B1829BE8FDCEDC3F2A19007366554F3
:1028ED0039085B6AFDCC9FAE80B1E2D344752617E3
:1028FD00FCCD9EAF38095A6B4574271681B0E3D2D3
:10290D00BF8EDDEC7B4A192806376455C2F3A091C2
:10291D004776251483B2E1D0FECF9CAD3A0B5869B2
:10292D0004356657C0F1A293BD8CDFEE79481B2AA2
:10293D00C1F0A3920534675678491A2BBC8DDEEF92
:10294D0082B3E0D1467724153B0A5968FFCE9DAC82
:10437A002325640D0A00726177203A202000253235
:10438A006420202000646174613A00307830257816
:10439A002000547970655F426361737400547970C8
:1043AA00655F556361737400547970655F4D63612D
:1043BA00737400547970655F536574416464720064
:1043CA00547970655F5365744C454400547970653F
:1043DA005F4374726C4D6F746F7200547970655FCD
:1043EA00526561644164647200547970655F414347
:0C43FA004B00547970655F4E6F6E6500DB
:1004360090016CE4F090016DF090016EF090016F08
:10044600F0900170740AF090017114F090017274CA
:1004560006F090017314F0900174740FF09001751A
:10046600F0900176F0900177F0900178F0900179A4
:100476007403F090017A14F090017B740FF09001F0
:100486007CF090017D7401F090017EE4F090017F94
:10049600740FF0900180F0900181F0900182F0904D
:1004A6000183F0900184E4F0900194F09001A4F0AF
:1004B6009001B4F09001C4F09001C5F09001C6F02F
:1004C6009001C7F09001C8F09001C9F09001CAF000
:1004D6009001CBF09001CCF09001CDF09001CEF0E0
:1004E6009001CFF09001D0F09001D1F09001D2F0C0
:0404F6009001D3F0AE
:10295D00AC82AD83AEF0FF53B1BF53B2BF53B17F65
:10296D0053B27F759850438920438780438E10530F
:10297D00C4DF8C1A8D1B8E1C8F1D90D4BC75F00F6F
:10298D00E4123372AC82C3E49CF58DD28ED29922BF
:10299D00AC82AD83AEF0FF53B1BF53B2BF53B17F25
:1029AD0053B27F75985043878053C4F843C4208C2D
:1029BD001A8D1B8E1C8F1D90D4BC75F00FE4123335
:1029CD0072AC82AD83AEF0FFE4C39CE49DF974015B
:1029DD009EE49F89C6C3E49CFC8CC543C408D29970
:1029ED0022AC82AD83AEF0FF53B1FB53B2FB53B3B8
:1029FD00BF53B4BF75F85875C40853C4DF8C1A8D16
:102A0D001B8E1C8F1D90D4BC75F00FE4123372AC6D
:102A1D0082AD83AEF0FFE4C39CE49DF974019EE4A6
:102A2D009F89C6C3E49CFC8CC543C408220229EED1
:102A3D00AE82E51170078E82122D6880058E82128E
:102A4D002DA19000002290C20075F001E412295DC5
:102A5D0090C20075F001E41229EED2AC439C01D274
:102A6D00AF22C2999001C7E0FFE07001227D647E24
:102A7D000000000000ED24FFFBEE34FFFC8B058C05
:102A8D0006EB4C70EC9001C8E0FE04F0EE2494F5DA
:102A9D0082E43401F583E0F599EF149001C7F090CD
:102AAD0001C8E0FFBF10059001C8E4F022C021C0AD
:102ABD00E0C0F0C082C083C007C006C005C004C01E
:102ACD0003C002C001C000C0D075D00830983B9043
:102ADD0001D0E02401F09001C4E0FFBF10005028A8
:102AED009001C6E0FF04F0EF2484F582E43401F593
:102AFD0083E599F09001C4E02401F09001C6E0FF58
:102B0D00BF10059001C6E4F0C2983099109001D124
:102B1D00E02401F075D000122A6F75D008D0D0D006
:102B2D0000D001D002D003D004D005D006D007D0FC
:102B3D0083D082D0F0D0E0D021329001C4E0F58274
:102B4D0022AD82AE83AFF09001C4E07003F5822216
:102B5D00C2AC9001C5E0FC04F0EC2484F582E434B1
:102B6D0001F583E08D828E838FF012341A9001C4AB
:102B7D00E014F09001C5E0FFBF10059001C5E4F031
:102B8D00D2AC75820122AF829001C4E0FE7003F5D4
:102B9D008222C3EE9F50028E07AC1AAD1BAE1C7B7A
:102BAD0000C3EB9F50309001C5E0FA04F0EA248495
:102BBD00F582E43401F583E08C828D838EF012343E
:102BCD001AA3AC82AD839001C5E0FABA100590014D
:102BDD00C5E4F00B80CB9001C4E0C39FF08F82223F
:102BED00C2F99001CDE0FFE07001227D647E00000E
:102BFD00000000ED24FFFBEE34FFFC8B058C06EB93
:102C0D004C70EC9001CEE0FE04F0EE24B4F582E4BD
:102C1D003401F583E0F59AEF149001CDF09001CEDB
:102C2D00E053E00FF022C021C0E0C0F0C082C083AD
:102C3D00C007C006C005C004C003C002C001C0006B
:102C4D00C0D075D00830F83B9001D2E02401F0904F
:102C5D0001CAE0FFBF100050289001CCE0FF04F046
:102C6D00EF24A4F582E43401F583E59AF09001CACE
:102C7D00E02401F09001CCE0FFBF10059001CCE401
:102C8D00F0C2F830F9109001D3E02401F075D000B6
:102C9D00122BED75D008D0D0D000D001D002D003CA
:102CAD00D004D005D006D007D083D082D0F0D0E0AC
:102CBD00D021329001CAE0F58222AD82AE83AFF011
:102CCD009001CAE07003F58222539CFE9001CBE087
:102CDD00FC04F0EC24A4F582E43401F583E08D824C
:102CED008E838FF012341A9001CAE014F09001CB4C
:102CFD00E0FFBF10059001CBE4F0439C017582010C
:102D0D0022AF829001CAE0FE7003F58222C3EE9FCE
:102D1D0050028E07AC1AAD1BAE1C7B00C3EB9F504F
:102D2D00309001CBE0FA04F0EA24A4F582E43401FA
:102D3D00F583E08C828D838EF012341AA3AC82ADB4
:102D4D00839001CBE0FABA10059001CBE4F00B8033
:102D5D00CB9001CAE0C39FF08F8222AF829001C752
:102D6D00E0FEBE100040030080F39001C9E0FE04B8
:102D7D00F0EE2494F582E43401F583EFF09001C771
:102D8D00E02401F09001C9E0FFBF10059001C9E4F6
:102D9D00F0D29922AF829001CDE0FEBE1000400A24
:102DAD0090016DE02401F00080EC90016CE02401B5
:102DBD00F0539CFE9001CFE0FE04F0EE24B4F582BA
:102DCD00E43401F583EFF09001CDE02401F09001A2
:102DDD00CFE053E00FF09001CDE0FFBF010B90016C
:102DED006FE02401F0D2F9800790016EE02401F02C
:102DFD00439C01227511019000F0022A3DAF8275AE
:102E0D001101EF23235403FE5306037D00EE2470BE
:102E1D00F582ED3401F583E0FEE4CEC4CE6ECE54E2
:102E2D00F0CE6EFDEFC4540FFC5304037B00EC2475
:102E3D0070F582EB3401F583E07B004EF582EB4DAE
:102E4D00F583C007122A3DD007EF0303543FFE530D
:102E5D0006037D00EE2470F582ED3401F583E0FE6E
:102E6D00E4CEC4CE6ECE54F0CE6EFD5307037C007F
:102E7D00EF2470F582EC3401F583E07C004EF58291
:102E8D00EC4DF583022A3DE582FFC4540F2474F501
:102E9D0082E43401F583E0FEBE0F047582002253F7
:102EAD00070F7E00EF2474F582EE3401F583E0FF09
:102EBD00BF0F047582002275820122E582FFC45482
:102ECD000F2474F582E43401F583E025E025E0FE5E
:102EDD0053070F7D00EF2474F582ED3401F583E087
:102EED004EF58222C018858118E51824FDF88683D9
:102EFD0018868218E493A3B42577C201C202C203D7
:102F0D00C204C205C20679127700C207E493A32456
:102F1D00C64017240A50157005B51202D206D20507
:102F2D00FAE775F00AA42AF780E2240A2430B46C7B
:102F3D0004D20180D7B46804D20280D0B4730302E6
:102F4D002F89B46406123263022FE5B4750612326E
:102F5D0063023005B4630518E6188017B4780302D0
:102F6D002FC4B46603023119B42E0679137700808D
:102F7D009B6006123355022F0102336FC083C0824E
:102F8D0086F018868318868218300519C206C0820D
:102F9D00C083123D406007A31512E51270F4123381
:102FAD0040D083D082123D406006A312335580F588
:102FBD00D082D083022F01122FDC20020C122FDCC5
:102FCD00300106122FDC122FDC123367022F01E6BF
:102FDD00123345E618023346ED30E71CD204E9F40E
:102FED002401F9200212EAF43400FA30010AEBF45C
:102FFD003400FBECF43400FC200210300108EB70BF
:10300D0024EC7021C201EA701CD202E9701720076E
:10301D0014300509E5126005151212334074301293
:10302D003355022F01C082C08312327D3005607985
:10303D000A30011DEB54F0703619EB540F70301936
:10304D00EA54F0702A19EA540F702419EF54F070F5
:10305D001E790520020BEF540F701419EE54F07009
:10306D000E7903EE540F700719ED54F0700119E548
:10307D0012A204994019F512C003C002C007C00680
:10308D00C005123340D005D006D007D002D0033092
:10309D000419C003C002C007C006C005742D123349
:1030AD0055D005D006D007D002D003200240300104
:1030BD002CC005C006C0078A82EBF583123345E5A7
:1030CD0083123346E582123345E582123346D0E052
:1030DD00F582123345E582D083D08280058D828EB4
:1030ED0083EF123346E583123345E58380038D82EA
:1030FD00EE123346E582123345E582123346123322
:10310D0067D083D08230070122022F0130050EE5F2
:10311D0012D39513F51250287512008023E6547FB3
:10312D00FA18860308AE82AF839045D27D07E493EB
:10313D002BA3E4933A5003A3DDF48D138E828F837A
:10314D00C000123245C082C083EFB47E02801940A8
:10315D00112482FDC3EA33FAEB33FBEC33FCDDF4CF
:10316D008006F4247F1233D775F01BE4F8FFFEFDC3
:10317D00904566E933F9EA33FAEB33FBEC33FC5057
:10318D0017E4932DD4FD7401933ED4FE7402933F46
:10319D00D4FF74039338D4F8A3A3A3A3D5F0D4E438
:1031AD007C50FBFAF9E513232354FC88831233D7A3
:1031BD00ED29D4F517EE3AD4F516EF3BD4F515E518
:1031CD00833CD4F51492D5D083D082D000123245F1
:1031DD00C000C3749E9F5005D000022F19C08212EB
:1031ED0033D7D08230D50FE92401F9E43AFAE43B24
:1031FD00FBE43CFC40E2D20712300520050CE51340
:10320D0060081232357003D513F4E5136015742E72
:10321D001233557800D20308E8123235123346E8DE
:10322D00B513F4D000022F0114C31392D52414F951
:10323D00E720D501C4540F22E618F9E618FC33E94E
:10324D00339204FF6003430480E618FBE618FA7915
:10325D0000C202D20122E6F9FD18200212AA01E6EF
:10326D00F91830010AAC02AB01E6FA18E6F918229A
:10327D00E975F06484FE740AC5F084C445F0FD3030
:10328D00020122EA540FF9904406932DD4FDE9442E
:10329D0010933ED4FEEAC4540FF9904426932DD4D6
:1032AD00FDE94410933ED4FEE94420933400D4FF4D
:1032BD0020010122EB540FF9904456932DD4FDE9D2
:1032CD004410933ED4FEE94420933FD4FFE43400F0
:1032DD00FAEBC4540FF9904486932DD4FDE94410B4
:1032ED00933ED4FEE94420933FD4FFE94430933A12
:1032FD00D4FAEC540FF99044C67B00123313ECC48E
:10330D00540FF9904516932DD4FDE94410933ED4F6
:10331D00FEE94420933FD4FFE94430933AD4FAE9CF
:10332D004440933BD4FB2274203006027430123398
:10333D00551512E51270F022C4540F7003300319A5
:10334D00D2032490D43440D4C083C082C000F5820F
:10335D00122A3DD000D082D083222003FC7430028B
:05336D003355D01822C9
:10440600005612682480369248046016722884404A
:1044160000020507101215172023252830333538DA
:10442600009692888480767268646056524844404A
:10443600004081226304458627680950913273142F
:10444600000000010102020203030404040505063C
:1044560000367208448016528824609632680440FA
:1044660000551066217632874298530864197530D4
:104476000006131926323945525865727885919887
:1044860000765228048056320884603612886440CA
:1044960000857157432814008671574329140086F6
:1044A60000040914192429343843485358636872A0
:1044B600000102030405060708091011121314155A
:1044C600001632486480961228446076920824408A
:1044D6000072441688603205774921936538108248
:1044E60000775533108866442199775432108865D1
:1044F600001633506783001734506784011834510F
:104506000000000000000101010101010202020297
:104516000056126824803692480460167228844039
:1045260000540963187227813691450054096318AF
:104536000043873074176104489135792266095320
:10454600006836057342107947158452218958262A
:104556000002050810131618212426293234374084
:104566000000005000000025000050120000250643
:104576000050120300255601501278002506390016
:1045860012531900567609002888040014440200C4
:1045960007220100046100005230000026150000C9
:1045A60063070000810300009101000095000000F0
:1045B6004800000024000000120000000600000071
:1045C6000300000001000000010000007DC5DDC3FE
:0A45D60034C2E0BE38BD86BBE4B974
:10337200FB7A20E4FCFDFEFFE5822582F582E583EF
:1033820033F583E5F033F5F0EB33FB4017DAE980F0
:1033920042E5822582F582E58333F583E5F033F554
:1033A200F0EB33FBEC33FCED33FDEE33FEEF33FF9A
:1033B200EC951AED951BEE951CEF951D4013EC95BF
:1033C2001AFCED951BFDEE951CFEEF951DFF438249
:0533D20001DABEEB2250
:06008E00E478FFF6D8FD46
:1033D7006040F82582500274FFF582E824F8501EF9
:1033E700CCCBCAF9E4CC24F85014CBCAF9E4CB24EB
:1033F700F8500BCAF9E4CA24F850037900222408CC
:103407006010F8C3EC13FCEB13FBEA13FAE913F9AA
:10341700D8F12220F71130F6138883A88220F50906
:10342700F6A8837583002280FEF280F5F022C0188B
:103437008581187E008E83122A3DD01822858260EE
:1034470085836185F062E4F55DF55EF55F85196357
:10345700903435023523C018E581F51824FBFF8F1A
:1034670063E4F55DF55EF55FE51824FBF886600813
:103477008661088662903435123523D01822AF82D0
:10348700C053C054C0551234928007C051C0528FE8
:103497008222158115811581055BE4B55B02055C08
:1034A70022AF8274302FFF24C6500B74072FFFE51D
:1034B7005060034307208F82023485E582FFC4549E
:1034C7000FF582C0071234A8D007740F5FF5820288
:1034D70034A885821AAB56AC57AD58AE59AA5A755F
:1034E7001C208A07EF2FF51BEE235401451BFAEB2F
:1034F7002BFBEC33FCED33FDEE33FEC3EA951A40AC
:1035070008EAC3951AFA430301E51C14FF8F1C70E0
:10351700D18B568C578D588E598A5A228582518560
:103527008352855D53855E54855F55E4F55BF55C95
:10353700AD60AE61AF628D828E838FF0123D40FC2D
:1035470074012DF560E43EF5618F62ECFF700302B4
:103557003D04BF25028003023CFC7E007D008E6493
:103567008E657A007B008E667C008E67E4F56FF5CA
:10357700707568FF7569FF85607185617285627313
:103587008571828572838573F0123D40F574A3853A
:103597008271858372857160857261857362742516
:1035A700B57408857482123485808574D02574407B
:1035B70003023665E57424C6500302366574FFB509
:1035C7006855B56952856F1A85701B90000AC00649
:1035D700C005C004C003C002123D238582758583E0
:1035E70076D002D003D004D005D0068574777578DD
:1035F70000E5772575F577E5783576F578E577246D
:10360700D0F56FE57834FFF570E56F45706003021C
:1036170035877D0102358785681A85691B90000A01
:10362700C006C005C004C003C002123D23858277CF
:10363700858378D002D003D004D005D00685747571
:10364700757600E5752577F577E5763578F578E5CC
:103657007724D0F568E57834FFF569023587742E4D
:10366700B5741574FFB56805B5690280030235871F
:10367700E4F568F569023587749F2574500EE57483
:10368700248540085374DF7550018003755000741A
:1036970020B57403023731742BB5740302372B74CA
:1036A7002DB5740280797442B574030237377443B9
:1036B700B574030237427444B5740302398F7446F4
:1036C700B574030239A57448B57403023587744984
:1036D700B5740302398F744AB57403023587744C85
:1036E700B574028050744FB574030239967450B59F
:1036F70074030238DA7453B5740280767454B5745F
:10370700030235877455B5740302399B7458B57431
:10371700030239A0745AB574030235870239A97EAA
:1037270001023587756401023587756501023587A2
:103737007B01023587756601023587EB600AE56311
:1037470014F989638777800DE56324FEF575857520
:1037570063A9758777857782C006C005C004C00353
:10376700C002123485D002D003D004D005D006029F
:1037770039CBE56324FDF577857763A977877109E9
:10378700877209877319198571568572578573581A
:103797008571828572838573F0C006C005C004C039
:1037A70003C002123D0B858277858378D002D00350
:1037B700D004D005D00674FFB56809B569068577CA
:1037C70068857869EE704FC3E577956FE5789570F2
:1037D7005044E56FC39577F575E5709578F576856F
:1037E7007571857672157574FFB575021576E57175
:1037F7004572601C758220C006C005C004C003C0A6
:1038070002123485D002D003D004D005D00680CF71
:1038170085756F8576708568758569768556828525
:1038270057838558F0123D40F57185716C604FC321
:10383700E4957574808576F063F08095F0503F15B8
:103847007574FFB575021576856C82C006C005C014
:1038570004C003C002123485D002D003D004D005BF
:10386700D0068556718557728558730571E4B57111
:10387700020572857156857257857358809EEE7062
:10388700030239CBC3E577956FE57895704003025E
:1038970039CBE56FC39577F577E5709578F578853A
:1038A7007775857876157774FFB577021578E5759E
:1038B700457670030239C5758220C006C005C0046D
:1038C700C003C002123485D002D003D004D005D083
:1038D7000680CCE56324FDF575857563A975877149
:1038E7000987720987731919857156857257857308
:1038F7005885586D7480256D50057575438019740A
:10390700A0256D5005757550800E74C0256D500546
:103917007575498003757558857582C006C005C0E1
:1039270004C003C00212348575823A123485758249
:1039370030123485758278123485D002D003D004D2
:10394700D005D0067449B5750280217450B575024B
:10395700801A855782C006C005C004C003C0021282
:1039670034C2D002D003D004D005D006855682C019
:1039770006C005C004C003C0021234C2D002D0037F
:10398700D004D005D006803C7A0175670A8035756A
:103997006708803075670A802B75671080267C0161
:1039A7008022857482C006C005C004C003C002120D
:1039B7003485D002D003D004D005D00680068577A1
:1039C7006F857870EC6068E56324FCFC8C638C0180
:1039D700877909877A09877B09877C191919857976
:1039E70056857A57857B58857C597556E0755745B6
:1039F70075588085567985577A85587B740125795E
:103A0700F571E4357AF572857B7385715685725742
:103A1700857358857982857A83857BF0123D40FCD2
:103A27008C79700302353785798212348580C4E535
:103A3700677003023537EB603FE56314F9896387E5
:103A4700048C79757A00757B00757C0085795685BD
:103A57007A57857B58857C59EA6003023AE8855690
:103A670079757A00757B00757C00857956857A575C
:103A7700857B58857C598069E5666025E56324FC6C
:103A8700FC8C638C01877909877A09877B09877C96
:103A9700191919857956857A57857B58857C5980F8
:103AA70040E56324FEFC8C638C01870309870419B6
:103AB7008B79ECF57A3395E0F57BF57C857956853E
:103AC7007A57857B58857C59EA70168556798557CC
:103AD7007AF57BF57C857956857A57857B58857C81
:103AE70059EA602AE55930E723C3E49556F579E4A6
:103AF7009557F57AE49558F57BE49559F57C8579E2
:103B070056857A57857B58857C5980027A007C01D7
:103B17007982E4F579F57A755A00856782C006C01F
:103B270005C004C002C0011234D9D001D002D004AC
:103B3700D005D006EC700DE55AC4F577E7FB45775D
:103B4700F7198002A75A0579E4B57902057AECB42A
:103B57000100E433FCE55645574558455970B88987
:103B67006E85796A857A6BE56F45707005756F01AB
:103B7700F570ED7043EE7040856F7985707AAB6AAA
:103B87000B8B77757800C3E5779579E578957A504B
:103B970021758220C006C005C004C002123485D03A
:103BA70002D004D005D006157974FFB57902157ACD
:103BB70080CC85796F857A70EA601D75822DC00685
:103BC700C005C004123485D004D005D006156F7423
:103BD700FFB56F0215708046E56A456B6040E56486
:103BE700601D75822BC006C005C004123485D00441
:103BF700D005D006156F74FFB56F021570801FE5ED
:103C070065601B758220C006C005C004123485D0CC
:103C170004D005D006156F74FFB56F021570EE70EE
:103C27003C856F7985707AAA79AB7A157974FFB577
:103C37007902157AC3E56A9AE56B9B5041ED6006F8
:103C47007A307B0080047A207B008A82C006C00518
:103C5700C004123485D004D005D00680CAC3E56AF3
:103C6700956FE56B9570500FE56FC3956AF577E52E
:103C770070956BF578800DE4F577F5788006857992
:103C870077857A78A96E856A79856B7AAA79AD7A0C
:103C9700157974FFB57902157AEA4D602EECB401F7
:103CA70000E433FC700A09E7C4540FFD8D5A8007FE
:103CB7008705740F5DF55A855A82C006C004C00196
:103CC7001234A8D001D004D00680C1EE70030235AB
:103CD70037AD77AE788D038E041DBDFF011EEB4C0B
:103CE7007003023537758220C006C005123485D0AF
:103CF70005D00680E08F82123485023537855B82D6
:043D0700855C832232
:0B45E0003C4E4F20464C4F41543E0023
:103D0B00AA82AB83123D406003A380F8C3E5829A7D
:103D1B00F582E5839BF58322E582851AF0A4C582A3
:103D2B00C0F0851BF0A4D0F025F0C583851AF0A454
:053D3B002583F5832241
:0D008100758182121E90E582600302007EF0
:103D400020F71430F6148883A88220F507E6A883AC
:0C3D500075830022E280F7E49322E02259
:00000001FF
