:040000000200813247
:03000B0002067179
:0100130032BA
:01001B0032B2
:03002300022A9717
:01002B0032A2
:01003300329A
:03003B000206A01A
:01004300328A
:01004B003282
:01005300327A
:01005B003272
:01006300326A
:01006B003262
:01007300325A
:03007B00022C1044
:10009400900096E4F0900097E4F090000174BCF0B6
:1000A4007441A3F07480A3F090000474DEF07441F2
:1000B400A3F07480A3F090000774FDF07441A3F0E2
:1000C4007480A3F090000A7424F07442A3F0748046
:1000D400A3F090000D7443F07442A3F07480A3F075
:1000E4009000107467F07442A3F07480A3F0900041
:1000F400137485F07442A3F07480A3F09000167416
:10010400A5F07442A3F07480A3F090001974C4F0B5
:100114007442A3F07480A3F090001C23F090001D9F
:10012400F090001EF090001FF090002004F090006A
:1001340021F0900022F0900023F090002404F0902D
:100144000025F0900026F0900027F090002804F09D
:10015400900029F090002AF090002BF090002C04DD
:10016400F090002DF090002EF090002FF0900030D1
:100174007401F0900031F0900032F0900033F09070
:100184000034F0900035F0900036F0900037F09095
:1001940000387404F0900039F090003AF090003B7D
:1001A400F090003C14F090003DF090003EF0900080
:1001B4003FF09000407405F0900041F0900042F050
:1001C400900043F090005CE4F090005D7406F090C1
:1001D400005EC4F07409A3F0E4A3F0A3F0900062FD
:1001E4007480F07470A3F0E4A3F0A3F0900066F0C0
:1001F4007496A3F0E4A3F0A3F090006AF074E1A372
:10020400F0E4A3F0A3F090006EF074C2A3F07401C4
:10021400A3F0E4A3F0900072F07484A3F07403A339
:10022400F0E4A3F090007674E0F07493A3F0740407
:10023400A3F0E4A3F090007AF07408A3F014A3F000
:10024400E4A3F090007E7420F074A1A3F07407A3DB
:10025400F0E4A3F090008274C0F07427A3F0740952
:10026400A3F0E4A3F09000867460F074AEA3F0747D
:100274000AA3F0E4A3F090008AF07435A3F0740CA0
:10028400A3F0E4A3F090008E74A0F074BBA3F07408
:100294000DA3F0E4A3F0900092F07410A3F0740E98
:0502A400A3F0E4A3F04B
:0304FA0002007E7F
:03007E0002126902
:1004FD00AF82C0077439C0E0743DC0E0122ECE1536
:10050D00811581D007BF0002800ABF01028016BF8E
:10051D0002338022743CC0E0743DC0E0122ECE1533
:10052D0081158180207442C0E0743DC0E0122ECE52
:10053D0015811581800F7448C0E0743DC0E0122E06
:10054D00CE15811581AE117F00C006C007744EC057
:10055D00E0743DC0E0122ECEE58124FCF58122AF82
:10056D0082BF0D02800CBF1B0122BF1C0122BF1DCB
:10057D0011227467C0E0743DC0E0122ECE158115B6
:10058D0081227E00C007C006746AC0E0743DC0E0E1
:10059D00122ECEE58124FCF58122AF82741BB5228B
:1005AD000280028079AE238E11AC117D00C007C090
:1005BD0006C004C005746DC0E0743DC0E0122ECEBF
:1005CD00E58124FCF581D006D007BF0002800DBF68
:1005DD0001028021BF0202803502066E7F018E115D
:1005ED00758201C0071204FD852411758201120464
:1005FD00FDD007806C7F028E11758202C007120438
:10060D00FD8524117582021204FDD00780537F00F1
:10061D008E11758200C0071204FDD0078043BF0004
:10062D0002800ABF01028014BF0236801E8523118D
:10063D00852282C00712056CD0078025852411857F
:10064D002282C00712056CD00780168523118522E2
:10065D0082C00712056C85241185228212056CD08B
:10066D00078F8222C0E0C082C083C0D0758CD47544
:10067D008A13900058E02401F0A3E03400F09000BC
:10068D005AE02401F0A3E03400F0D0D0D083D08222
:10069D00D0E032C0E0E5EC75EC00D0E032AE87532F
:1006AD0006107F00BE1041BF003EAF84AE857D00B9
:1006BD00EF2FFFED33FD5306017C00EE2FFFEC3DD8
:1006CD00FDEF24F1FFED34FFFD8F06530601EDC361
:1006DD0013CF13CFFD75C7AA75C7558F8475C7AADC
:1006ED0075C7558E855387EF22AF82751101BF31C6
:1006FD000122BF320122BF33028032BF340122BF3B
:10070D0050028049BF530302079ABF5402805EBF57
:10071D0056030207AABF70028023BF7302805EBF1B
:10072D0074028039BF76030207AA0207BA7484C027
:10073D00E0743DC0E0122ECE1581158122749BC050
:10074D00E0743DC0E0122ECE158115812274AEC02D
:10075D00E0743DC0E0122ECE158115812274C0C00B
:10076D00E0743DC0E0122ECE158115812274D5C0E6
:10077D00E0743DC0E0122ECE158115812274EBC0C0
:10078D00E0743DC0E0122ECE15811581227403C098
:10079D00E0743EC0E0122ECE1581158122741AC070
:1007AD00E0743EC0E0122ECE15811581227434C046
:1007BD00E0743EC0E0122ECE15811581744BC0E061
:1007CD00743EC0E0122ECE158115817462C0E074A6
:1007DD003EC0E0122ECE158115817483C0E0743EAB
:1007ED00C0E0122ECE15811581749EC0E0743EC0FE
:1007FD00E0122ECE1581158174BDC0E0743EC0E0AF
:10080D00122ECE1581158174DEC0E0743EC0E0124B
:10081D002ECE158115812275B10075B20075B3000C
:10082D0075B40075AC0075AD0043B30853B4F74310
:10083D00AC0153ADFE43B38053B47F43B10153B20A
:10084D00FE43B32053B4DF43B12053B2DF43B110A5
:10085D0053B2EF53B3FE43B40153B3FD43B402534C
:10086D00B3FB43B404C290C291C29222AF827E0404
:10087D00900096E0B50714AB1AAC1BAD1C8B828CA7
:10088D00838DF0E41233F775820422AB1AAC1BADE5
:10089D001C8B828C838DF0E41233F77A00900096D6
:1008AD00E08AF005F08002C313D5F0FBF853000188
:1008BD007900B80140B9003D8AF005F0EF8002C320
:1008CD0013D5F0FB20E02E900096EFF08B828C83F9
:1008DD008DF0123D1DF98A0088F005F0740180023B
:1008ED0025E0D5F0FBF8E942008B828C838DF0E892
:1008FD001233F77E00900096E08AF005F08002C377
:10090D0013D5F0FB20E0468AF005F0EF8002C3130B
:10091D00D5F0FBF85300017900B80131B9002E90E4
:10092D000096EFF08B828C838DF0123D1DF98A00BD
:10093D0088F005F07401800225E0D5F0FBF8E9425E
:10094D00008B828C838DF0E81233F77E010ABA0595
:10095D000050030208AA8E8222AF82AC25AD26AECE
:10096D00277B00C3EB9F503F8C828D838EF0123D11
:10097D001DFAA3AC82AD838A017A00C007C006C000
:10098D0005C004C003C001C002746AC0E0743DC05C
:10099D00E0122ECEE58124FCF581D003D004D005E4
:1009AD00D006D0070B80BC7467C0E0743DC0E01268
:1009BD002ECE1581158122740BC0E0743FC0E0125C
:1009CD002ECE158115817416C0E0743FC0E0122E35
:1009DD00CE15811581742EC0E0743FC0E0122ECE6D
:1009ED00158115817442C0E0743FC0E0122ECE1502
:1009FD008115817447C0E0743FC0E0122ECE158181
:100A0D001581744CC0E0743FC0E0122ECE158115D7
:100A1D00817451C0E0743FC0E0122ECE1581158156
:100A2D007456C0E0743FC0E0122ECE15811581744E
:100A3D005BC0E0743FC0E0122ECE1581158174604D
:100A4D00C0E0743FC0E0122ECE15811581746CC0CC
:100A5D00E0743FC0E0122ECE158115817477C0E091
:100A6D00743FC0E0122ECE158115817482C0E074E2
:100A7D003FC0E0122ECE15811581748EC0E0743FFB
:100A8D00C0E0122ECE1581158122AF82BF2B03023D
:100A9D001044BF2D03021069BF3003020B4CBF3150
:100AAD0003020B65BF3203020B7ABF3303020B8FB8
:100ABD00BF3403020BA4BF3503020BC6BF360302BE
:100ACD000BFCBF3703020C2ABF48030209C4BF52F7
:100ADD000302109FBF530302101ABF610302108D52
:100AED00BF6203021093BF6303021099BF68030234
:100AFD000C58BF6A03020CE4BF6B03020D17BF6CE9
:100B0D0003020D4ABF72030210E8BF7303020DD634
:100B1D00BF74028007BF7503020FA322900058E037
:100B2D00C0E0A3E0C0E0749BC0E0743FC0E0122EB3
:100B3D00CEE58124FCF581900058E4F0A3F02275F8
:100B4D001100C290C291C29274A0C0E0743FC0E087
:100B5D00122ECE1581158122751100D29074AFC061
:100B6D00E0743FC0E0122ECE158115812275110063
:100B7D00C29674BEC0E0743FC0E0122ECE15811532
:100B8D008122751100D29674CCC0E0743FC0E01282
:100B9D002ECE1581158122751100B296A296E433E1
:100BAD00FE7F00C006C00774DAC0E0743FC0E012DB
:100BBD002ECEE58124FCF58122751100209002D204
:100BCD0096B29074E9C0E0743FC0E0122ECE15814C
:100BDD001581A290E433FE7F00C006C00774F5C0F6
:100BED00E0743FC0E0122ECEE58124FCF58122B2E7
:100BFD009174FAC0E0743FC0E0122ECE15811581BC
:100C0D00A291E433FE7F00C006C00774F5C0E07406
:100C1D003FC0E0122ECEE58124FCF58122B2927404
:100C2D0006C0E07440C0E0122ECE15811581A2924F
:100C3D00E433FE7F00C006C00774F5C0E0743FC00A
:100C4D00E0122ECEE58124FCF58122AD2BAE2CAF2A
:100C5D002D8D828E838FF0123D1DFC1C8D828E8317
:100C6D008FF0EC1233F7AA28AB29AC2A8A828B833A
:100C7D008CF0123D1DFABA013C8D828E838FF012DD
:100C8D003D1D75F004A4245EF582740035F0F583E6
:100C9D00E0F9A3E0FAA3E0FBA3E0FCC001C002C0B1
:100CAD0003C0047412C0E07440C0E0122ECEE58182
:100CBD0024FAF581228D828E838FF0123D1DFD7FEA
:100CCD0000C005C0077425C0E07440C0E0122ECEF0
:100CDD00E58124FCF58122AD28AE29AF2A8D828EC7
:100CED00838FF0123D1DFC1C8D828E838FF0EC12D4
:100CFD0033F77F00C004C0077433C0E07440C0E018
:100D0D00122ECEE58124FCF58122AD28AE29AF2A25
:100D1D008D828E838FF0123D1DFC0C8D828E838F04
:100D2D00F0EC1233F77F00C004C0077433C0E074D9
:100D3D0040C0E0122ECEE58124FCF58122AD2BAE14
:100D4D002CAF2D8D828E838FF0123D1DFC0C8D826C
:100D5D008E838FF0EC1233F7AA28AB29AC2A8A8246
:100D6D008B838CF0123D1DFABA013C8D828E838FE0
:100D7D00F0123D1D75F004A4245EF582740035F06B
:100D8D00F583E0F9A3E0FAA3E0FBA3E0FCC001C00A
:100D9D0002C003C0047412C0E07440C0E0122ECE35
:100DAD00E58124FAF581228D828E838FF0123D1D0F
:100DBD00FD7F00C005C0077425C0E07440C0E0127F
:100DCD002ECEE58124FCF58122AD28AE29AF2A8DEA
:100DDD00828E838FF0123D1DFC6009BC0103020E53
:100DED0084020F31852B2E852C2F852D30852E825B
:100DFD00852F838530F0123D1DC454F0F85300F05B
:100E0D00740F5C48F582C007C006C0051221C3D01F
:100E1D0005D006D007852E82852F838530F0123DB3
:100E2D001DF8E4C8C4C868C854F0C868FB8D828E2C
:100E3D00838FF0123D1D7A004200EA4203C000C0CC
:100E4D00037441C0E07440C0E0122ECEE58124FC55
:100E5D00F581852E82852F838530F0123D1DFB7A1D
:100E6D0000C003C0027459C0E07440C0E0122ECE21
:100E7D00E58124FCF58122852B2E852C2F852D30A7
:100E8D00852E82852F838530F0123D1DC454F0F8D8
:100E9D005300F0740F5C48F582C007C006C0051200
:100EAD0021C3D005D006D007852E82852F838530AE
:100EBD00F0123D1DF8E4C8C4C868C854F0C868FBFA
:100ECD008D828E838FF0123D1D7A004200EA42031F
:100EDD00C000C0037441C0E07440C0E0122ECEE5E6
:100EED008124FCF581852E82852F838530F0123D7E
:100EFD001D75F004A4245EF582740035F0F583E0D1
:100F0D00F8A3E0F9A3E0FAA3E0FBC000C001C00222
:100F1D00C0037412C0E07440C0E0122ECEE58124EF
:100F2D00FAF58122A92BAA2CAB2D89828A838BF00D
:100F3D00123D1DC454F0F85300F0740F5C48F58257
:100F4D00C007C006C005C003C002C0011221C3D036
:100F5D0001D002D003D005D006D00789828A838BB9
:100F6D00F0123D1DF9E4C9C4C969C954F0C969FC41
:100F7D008D828E838FF0123D1D7F004201EF420462
:100F8D00C001C0047441C0E07440C0E0122ECEE533
:100F9D008124FCF58122AD2BAE2CAF2D8D828E835D
:100FAD008FF0123D1D75F004A4245EF5827400359A
:100FBD00F0F583E0F9A3E0FAA3E0FBA3E0FCC007A2
:100FCD00C006C005C001C002C003C0047412C0E059
:100FDD007440C0E0122ECEE58124FAF581D005D003
:100FED0006D0078D828E838FF0123D1D75F004A4FF
:100FFD00245EF582740035F0F583E0FCA3E0FDA3DB
:10100D00E0FEA3E08C828D838EF00229CB900097B9
:10101D00E0F5821221C3900097E0FF7E00C007C06B
:10102D0006C007C006746AC0E07440C0E0122ECE40
:10103D00E58124FAF58122900097E02401F0E0FF8C
:10104D007E00C007C006C007C0067485C0E07440AE
:10105D00C0E0122ECEE58124FAF58122900097E0B2
:10106D0014F0E0FF7E00C007C006C007C0067485FF
:10107D00C0E07440C0E0122ECEE58124FAF5812245
:10108D007582110221C37582120221C3758213026A
:10109D0021C3AD2BAE2CAF2D8D828E838FF0123DE3
:1010AD001DC454F0FC74014CF582C007C006C00588
:1010BD001221C3D005D006D0078D828E838FF012FA
:1010CD003D1DFD7F00C005C007749AC0E07440C08F
:1010DD00E0122ECEE58124FCF58122AD2BAE2CAF96
:1010ED002D8D828E838FF0123D1DC454F0F582C07C
:1010FD0007C006C0051221C3D005D006D0078D82CA
:10110D008E838FF0123D1DFD7F00C005C00774A9B1
:10111D00C0E07440C0E0122ECEE58124FCF58122A2
:10112D00AD82AE83AFF074012DFAE43EFB8F048ADD
:10113D00828B838CF074641233F78D828E838FF0E3
:10114D00C007C006C005122166D005D006D0078D98
:10115D00828E838FF00221C6AD82AE83AFF0740212
:10116D002DFAE43EFB8F048A828B838CF0123D1D99
:10117D00FAA931AB32AC338D828E838FF0123D1DC7
:10118D0089828B838CF01233F7740229FDE43BFEC8
:10119D008C078D828E838FF0EA1233F789828B83D1
:1011AD008CF01221668531828532838533F00221E0
:1011BD00C685823985833A85F03BF53CA936AA3739
:1011CD00AB38A83B89828A838BF0E81233F7740120
:1011DD0029FDE43AFE8B07AC3A8D828E838FF0ECBD
:1011ED001233F7740229F53DE43AF53E8B3FAF39E2
:1011FD00853D82853E83853FF0EF1233F77E008C6F
:10120D003D8E3E7D00C003C002C001C007C006C0B8
:10121D003DC03EC000C005C039C03AC03BC03C74A3
:10122D00B8C0E07440C0E0122ECEE58124F4F58103
:10123D00D001D002D003740329FDE43AFE8B078D53
:10124D00828E838FF0E5341233F7740429F9E43A72
:10125D00FA89828A838BF0E5350233F790009A7410
:10126D0001F090009B7405F090009C7401F09000CB
:10127D009DF090009FE4F09000A0F09000A1740804
:10128D00F09000D4E4F09000D5F09000D6F09000EE
:10129D00D7F09000D8F09000D9F09000DAF09000DF
:1012AD00DBF09000DCF09000DDF09000DEF09000BF
:1012BD00DFF09000E004F09000E104F09000E21403
:1012CD00F09000E3740AF09000E403F09000E574F0
:1012DD001CF07400A3F0E4A3F09000E804F090007B
:1012ED00E904F09000EAF09000EB740AF09000EC45
:1012FD0003F09000ED741CF07400A3F0E4A3F090E3
:10130D0000F004F09000F104F09000F204F0900071
:10131D00F3740AF09000F403F09000F5741CF0746F
:10132D0000A3F0E4A3F09000F804F09000F904F0AD
:10133D009000FA23F09000FB740AF09000FC03F08B
:10134D009000FD741CF07400A3F0E4A3F090010074
:10135D0004F090010104F09001027405F090010376
:10136D0023F090010403F0900105741CF07400A3A8
:10137D00F0E4A3F090010804F09001097407F090D7
:10138D00010A7401F090010BC4F090010C74FFF090
:10139D0090010D7430F07400A3F0E4A3F0900110EF
:1013AD0004F09001117464F09001127401F0900139
:1013BD0013C4F09001147405F0900115741CF074B1
:1013CD0000A3F0E4A3F0120824122A301206AA5347
:1013DD008EF7D2A9D28C75110074CAC0E07440C0CA
:1013ED00E0122ECE1581158174DAC0E07440C0E094
:1013FD00122ECE1581158175110174EAC0E074406D
:10140D00C0E0122ECE158115817E307F7500000053
:10141D0000001EBEFF011FEE4F70F2D29675110037
:10142D007E307F7500000000001EBEFF011FEE4FD5
:10143D0070F2900072E0FCA3E0FDA3E0FEA3E08C4F
:10144D00828D838EF01229CB7E307F7500000000D7
:10145D00001EBEFF011FEE4F70F2D296900019E0F4
:10146D00FDA3E0FEA3E0FFC005C006C00774FAC0EF
:10147D00E07440C0E07480C0E012343AE58124FA93
:10148D00F581D290C291C29290009875F000122B06
:10149D002BE5827003021AB0900098E0FFBF1B028B
:1014AD00800DBF1C028051BF1D02804C02154E9055
:1014BD0000A1E02401F0E0FEBE09059000A1E4F0DA
:1014CD009000A1E075F003A42401F582740035F0BD
:1014DD00F583E0FCA3E0FDA3E0FEC004C005C0065B
:1014ED0074FAC0E07440C0E07480C0E012343AE594
:1014FD008124FAF581021AF49000A1E014F0E0FEC7
:10150D00BEFF069000A17408F09000A1E075F003F5
:10151D00A42401F582740035F0F583E0FCA3E0FD11
:10152D00A3E0FEC004C005C00674FAC0E07440C05C
:10153D00E07480C0E012343AE58124FAF581021A94
:10154D00F49000A1E0FE24F75003021AF4EE240AF1
:10155D0083F582EE240D83F583E4737A94B1AC8F19
:10156D00C85975F41515151617171A1A1A75289CDA
:10157D00752900752A00752B9A752C00752D008F15
:10158D0082120A97021AF4900058E4F0A3F090002A
:10159D00DFE0FE04F0EE24A2F582E43400F583EFE3
:1015AD00F0021AF4BF66028018BF67028028BF6878
:1015BD00028038BF6A02804BBF6B030216400216D1
:1015CD006E90009AE014F0E0600302166E90009A9F
:1015DD007401F002166E90009CE014F0E0600302BE
:1015ED00166E90009C7401F002166E90011574D465
:1015FD00F07400A3F0E4A3F090011075F000122137
:10160D00C6805E90009CE02401F0E0FEBE65069071
:10161D00009C7464F090009CE0FE7D00C006C00547
:10162D007433C0E07440C0E0122ECEE58124FCF589
:10163D0081802E90009AE02401F0E0FEBE1006900D
:10164D00009A740FF090009AE0FE7D00C006C00570
:10165D007425C0E07440C0E0122ECEE58124FCF567
:10166D0081900098E0FEBE66028018BE670280136E
:10167D00BE6803021AF4BE6A028008BE6B028003C4
:10168D00021AF490009AE0900112F090009CE09004
:10169D000111F090011075F0001224C6021AF4BF6A
:1016AD006802800FBF6A02801CBF6B028031BF6C65
:1016BD005A80469000DEE014F0E0FEBEFF4D900033
:1016CD00DEE4F080469000DEE024D4FEE43400FD3C
:1016DD008E828D83E0FC1C8E828D83ECF0802C90AD
:1016ED0000DEE024D4FEE43400FD8E828D83E0FC28
:1016FD000C8E828D83ECF080129000DEE02401F0E0
:10170D00E0FEBE0A06EE149000DEF0900098E0FEBA
:10171D00BE6802800DBE6A028026BE6B028021BEAD
:10172D006C609000DEE0FE7D00C006C00574FFC059
:10173D00E07440C0E0122ECEE58124FCF58180429C
:10174D007E00EE24D4F582E43400F583E0FD7C00C8
:10175D00C006C005C004740CC0E07441C0E07480C4
:10176D00C0E012343AE58124FBF581D0060EBE0AA5
:10177D000040CF7467C0E0743DC0E0122ECE1581DD
:10178D001581900098E0FEBE6502801ABE732C7420
:10179D0012C0E07441C0E0122ECE1581158190006B
:1017AD00A07404F080157437C0E07441C0E0122EAF
:1017BD00CE158115819000A07405F0900098E0FE83
:1017CD00BE3002802CBE31028060BE320302187022
:1017DD00BE33030218A9BE34030218E2BE3503025C
:1017ED00191BBE6A0302199CBE6B03021954021920
:1017FD00E090009BE075F004A4245EF58274003542
:10180D00F0F583E0FBA3E0FCA3E0FDA3E0FE75365D
:10181D00D47537007538007534007535008B828CA2
:10182D00838DF0EE1211BE0219E090009BE075F071
:10183D0004A4245EF582740035F0F583E0FBA3E08B
:10184D00FCA3E0FDA3E0FE7536D4753700753800B6
:10185D007534017535008B828C838DF0EE1211BEBF
:10186D000219E090009BE075F004A4245EF58274EB
:10187D000035F0F583E0FBA3E0FCA3E0FDA3E0FE63
:10188D007536D47537007538007534027535008B93
:10189D00828C838DF0EE1211BE0219E090009BE058
:1018AD0075F004A4245EF582740035F0F583E0FB39
:1018BD00A3E0FCA3E0FDA3E0FE7536D475370075FB
:1018CD0038007534027535FF8B828C838DF0EE12E6
:1018DD0011BE0219E090009BE075F004A4245EF5A2
:1018ED0082740035F0F583E0FBA3E0FCA3E0FDA3DB
:1018FD00E0FE7536D47537007538007534037535CF
:10190D00008B828C838DF0EE1211BE0219E09000D7
:10191D009BE075F004A4245EF582740035F0F58328
:10192D00E0FBA3E0FCA3E0FDA3E0FE7536D4753724
:10193D00007538007534037535FF8B828C838DF0FF
:10194D00EE1211BE0219E090009BE0FEBE0D00509C
:10195D000690009BEE04F090009BE075F004A4242B
:10196D005EF582740035F0F583E0FBA3E0FCA3E0A7
:10197D00FDA3E0FEC003C004C005C0067412C0E0A4
:10198D007440C0E0122ECEE58124FAF5818044909A
:10199D00009BE0FEE06006EE1490009BF090009B33
:1019AD00E075F004A4245EF582740035F0F583E053
:1019BD00FBA3E0FCA3E0FDA3E0FEC003C004C00553
:1019CD00C0067412C0E07440C0E0122ECEE5812432
:1019DD00FAF581900098E0FEBE3002801CBE310207
:1019ED008017BE32028012BE3302800DBE340280DB
:1019FD0008BE35028003021AF49001117407F090AD
:101A0D000113740AF090011574D4F07400A3F0E47E
:101A1D00A3F090011075F0001221C690011075F021
:101A2D00001224C690009BE075F004A4245EF5829C
:101A3D00740035F0F583E0FBA3E0FCA3E0FDA3E02B
:101A4D008B828C838DF01229CB021AF48F057E00C8
:101A5D00C005C006746AC0E0743DC0E0122ECEE52C
:101A6D008124FCF581021AF4EFC4540F701FEFFEB0
:101A7D0024FC5003021AF4EE2E901A8A738006800D
:101A8D000880648062C290805ED290805A8F8212EC
:101A9D0021C3745CC0E07441C0E0122ECE158115D7
:101AAD008180449000A1E0FF24FB403BEF2F901A72
:101ABD00BF7380338006802F802D802B900058E0DF
:101ACD00FEA3E0FFC3740A9EE49F501B9000DFE06D
:101ADD00FFE060137525A27526007527008F821211
:101AED0009669000DFE4F090009DE0FF7003021B9B
:101AFD00F9A295E433FEA2B0E43325E04206A280BC
:101B0D00E43325E025E04206A293E433C40354F800
:101B1D004206A297E433C454F04EF582751A9E75B1
:101B2D001B00751C00C007120879AE82D007BE01DC
:101B3D00028003021C30EFFE24FA5003021C30EE2B
:101B4D002E2E901B5373021C30021B65021B760256
:101B5D001BE1021BE9021BF1D296C290D291C292F7
:101B6D0090009DEF04F0021C3090005EE0FBA3E0BE
:101B7D00FCA3E0FDA3E08B828C838DF01229CB7545
:101B8D0082511221C3900072E0FBA3E0FCA3E0FDA3
:101B9D00A3E0FEC003C004C005C0067412C0E0740B
:101BAD0040C0E0122ECEE58124FAF581900072E05E
:101BBD00FBA3E0FCA3E0FDA3E08B828C838DF012F0
:101BCD0029CB90009C7402F090009A14F090009D27
:101BDD00E4F0804F90009DEF04F0804790009DEF62
:101BED0004F0803F90009DEF04F08037A295E43320
:101BFD00FFA2B0E43325E04207A280E43325E025BF
:101C0D00E04207A293E433C40354F84207A297E4D9
:101C1D0033C454F04FF582751A9E751B00751C0068
:101C2D0012087990009FE0FF600DBF0102803DBF5B
:101C3D00030280620214959000A0E0FFBF040280B1
:101C4D000302149590009F7403F090005AE4F0A3E2
:101C5D00F090011075F00012112D745FC0E0744109
:101C6D00C0E0122ECE1581158102149590009F743F
:101C7D0003F09000A0E0FFBF0502800302149590D1
:101C8D00009FE4F07473C0E07441C0E0122ECE15D5
:101C9D0081158102149590009975F000122CA4E520
:101CAD00827003021E3F90005DE0FFBF06028013AD
:101CBD00BF0702802DBF08028049BF0903021D74B2
:101CCD00021E3F900099E06003021E3F90005AE40F
:101CDD00F0A3F090005D7407F09000567401F002CF
:101CED001E3F900099E0FFBFF00F90005D7408F06B
:101CFD009000577401F0021E3F900056E02401F051
:101D0D00021E3F900099E0FFBFF010900057E024B5
:101D1D0001F090005AE4F0A3F08028900057E0FE07
:101D2D00BE031A90005D7409F09000547401F09098
:101D3D000044EFF090005AE4F0A3F0800690005DAF
:101D4D007409F090005AE0FEA3E0FFC374E89E749E
:101D5D00039F4003021E3F90005D7406F090005AF1
:101D6D00E4F0A3F0021E3F900054E0FF04F0EF24D6
:101D7D0044FFE43400FE900099E0FD8F828E83F0E5
:101D8D00900054E0FFBF0B028003021E1D90004621
:101D9D00E0FEBE0A0050597542447543007544007B
:101DAD007545107546017547008F821223349000DA
:101DBD0044E0FF7E00900046E0FD7C00C007C006B9
:101DCD00C005C0047485C0E07441C0E0122ECEE59C
:101DDD008124FAF58190011075F0001224C6753139
:101DED000875320175330090011075F00012116500
:101DFD0074A9C0E07441C0E0122ECE1581158190FA
:101E0D000054E4F090005D7406F090009F7401F0B2
:101E1D0090005AE0FEA3E0FFC374E89E74039F5048
:101E2D001190005D7406F090005AE4F0A3F090005C
:101E3D0054F09000A0E0FFBF0502800302149590BE
:101E4D000054E4F090009FF090005D7406F074AEC5
:101E5D00C0E07441C0E0122ECE158115810214959B
:103D39000A0D0073656C66200063726F737300620D
:103D49006F74682000206F75747075743A546869CF
:103D590073206973205541525425640A0D000D0AD8
:103D6900002563000D0A696E7075743A54686973A9
:103D7900206973205541525425640049646C6520BB
:103D8900707265616D626C65206F6E2F6F66660D6E
:103D99000A004C696E65466920506F776572204F3D
:103DA90066660D0A004C696E65466920506F776535
:103DB90072204F6E0D0A004C696E65466920556187
:103DC9007274205478204C6F770D0A004C696E6527
:103DD9004669205561727420547820486967680DD6
:103DE9000A004C696E654669204353432072782066
:103DF90046534D204F66660D0A004C696E6546694B
:103E0900204353432072782046534D204F4E0D0ACC
:103E19000056657273696F6E20312E34206F6E20E3
:103E290032303233313032360D0A00313A20646F84
:103E3900776E6C696E6B207061636B657420310DF0
:103E49000A00323A20646F776E6C696E6B2070617C
:103E5900636B657420320D0A00333A2075706C6902
:103E69006E6B2069646C6520707265616D626C654A
:103E7900206F6E2F6F66660D0A00702F503A204C26
:103E8900696E65466920506F776572206F66662F87
:103E99006F6E0D0A00742F543A204C696E6546699D
:103EA9002055617274205478204C6F772F486967C8
:103EB900680D0A00732F533A204C696E654669658F
:103EC900204353432052782046534D206F66662F76
:103ED9006F6E0D0A00746573742070726F63656488
:103EE9007572653A2070202D3E2050202D3E2054B9
:103EF900202D3E2053202D3E2031206F7220320D7F
:103F09000A00743A2074696D65720D0A00303A200E
:103F19004C696E65466920454E302C312C32206F34
:103F290066660D0A00313A204C696E65466920457E
:103F39004E30203D20310D0A00323A0D0A00333A45
:103F49000D0A00343A0D0A00353A0D0A00363A0DC9
:103F59000A00373A0D0A00683A20416464722D2D2F
:103F69000D0A006A3A20436D642D2D0D0A006B3A43
:103F790020436D642B2B0D0A006C3A204164647256
:103F89002B2B0D0A00733A2073656E64696E670DF9
:103F99000A0025750A0D004C494E4546495F454EB4
:103FA900303D300A0D004C494E4546495F454E307B
:103FB9003D310A0D004C494E4546495F54583D3044
:103FC9000A0D004C494E4546495F54583D310A0D8A
:103FD900004C494E4546495F54583D25640A0D0039
:103FE9004C494E4546495F454E303D0025640A0D12
:103FF900004C494E4546495F454E313D004C494EBE
:104009004546495F454E323D0075617274207370B3
:104019006565643A20256C753A0A0D00616464721D
:104029006573733A2025640A0D00636F6D6D616EC7
:10403900643A2025640A0D004C696E65466920536F
:10404900656E64696E673A20307825783A0A0D0002
:10405900616464726573733A20307825643A0A0D95
:10406900004C696E6546692053656E64696E673AEE
:104079002025642830782578290A0D0073656E6437
:1040890020646174612025642830782578290A0D17
:1040990000526F7461746521213A2564200A0D006C
:1040A90053746F70202020203A2564200A0D0025C2
:1040B9006C752825782C2025782C202578290D0A3F
:1040C90000546869732069732055415254300A0DB0
:1040D900004C696E654669204D61737465720A0DFD
:1040E90000546869732069732055415254310A0D8F
:1040F9000025730D0A00446174614964783A2564A6
:104109000D0A00307825782000535441525420700C
:104119006572696F646963207061636B6574206798
:10412900656E65726174696E672E2E0D0A005354AF
:104139004F502020706572696F64696320706163F4
:104149006B65742067656E65726174696E672E2E82
:104159000D0A004F4B007374617274696E672041D8
:104169004C4F48412E2E2E0D0A0073746F707069E2
:104179006E6720414C4F48412E2E2E00536C6176BC
:10418900655F414444523A2025642C20554C5F50C8
:1041990061636B65745F6E756D3A2025640D0A0065
:1041A9000D0A0D0A0073746F7070696E672E2E2EDA
:1041B9000D0A0055415254305F494E5055545F4DD8
:1041C9004F4445303A6F6E65206B657920636F6E99
:1041D90074726F6C0055415254305F494E505554BA
:1041E9005F4D4F4445313A737472696E6720696E49
:1041F9007075740055415254305F494E5055545FA3
:104209004D4F4445323A6D696D696320356B657967
:1042190073206F6E20626F61726400554152543091
:104229005F494E5055545F4D4F4445333A6461746C
:10423900612073657474696E670055415254305F2B
:10424900494E5055545F4D4F4445343A7065726933
:104259006F6469632066756E6374696F6E0055419A
:104269005254305F494E5055545F4D4F4445353A8D
:1042790075706C696E6B2074657374005541525486
:10428900305F494E5055545F4D4F4445363A6C6F37
:104299006F706261636B2074657374005541525489
:1042A900305F494E5055545F4D4F4445373A706120
:1042B9007373207468726F75676800554152543082
:1042C9005F494E5055545F4D4F4445383A207570FB
:0842D9006C696E6B2072780025
:101E6D0075C7AA75C75575FD5A75C7AA75C7557536
:101E7D00FDA575820022AC82AD83AEF0FF538EF7C7
:101E8D00438901D28CEC4D4E4F601A758A76758C54
:101E9D00FF108D0280FB1CBCFF091DBDFF051EBE82
:101EAD00FF011F80E0C28C22AC82AD83AEF0FF53E8
:101EBD008EF7438901D28CEC4D4E4F601A758A987E
:101ECD00758CFA108D0280FB1CBCFF091DBDFF0532
:101EDD001EBEFF011F80E0C28C22AC82AD83AEF02E
:101EED00FF538EEF438910D28EEC4D4E4F601A7515
:101EFD008BF6758DC9108F0280FB1CBCFF091DBDB3
:101F0D00FF051EBEFF011F80E0C28E22AC82AD8395
:101F1D00AEF0FF53C9BF53C9DF43C910D2CAEC4D50
:101F2D004E4F601A75CCE575CDF710CF0280FB1CB6
:101F3D00BCFF091DBDFF051EBEFF011F80E0C2CA0B
:101F4D0022AC82AD83AEF0FF75C40743C408EC4DDF
:101F5D004E4F602575C55775C6CDAAC45302107B6B
:101F6D0000BA10F6BB00F353C4EF1CBCFF091DBD36
:101F7D00FF051EBEFF011F80D553C4F722AC82ADF5
:101F8D0083AEF0FF75C40743C408EC4D4E4F60257A
:101F9D0075C5D775C6FFAAC45302107B00BA10F6DB
:101FAD00BB00F353C4EF1CBCFF091DBDFF051EBED6
:101FBD00FF011F80D553C4F722AF82A2AF9200C29A
:101FCD00AF75C7AA75C755439F01A20092AFE51D16
:101FDD006013A2AF9200C2AF75C7AA75C75543A5CE
:101FED0001A20092AF851BA6851AA7851CAE8FAFE7
:101FFD00A2AF9200C2AF75C7AA75C75543A401A27F
:10200D000092AFE51D6026A2AF9200C2AF75C7AAC0
:10201D0075C75553A5FEA20092AFA2AF9200C2AFF5
:10202D0075C7AA75C755539FFEA20092AF22AE8207
:10203D00AF838F1A8E1B751CFF751D0175822202D1
:10204D001FC6AE82AF838F1A8E1B85101C751D01A6
:10205D00758221021FC6751A00751B0C751C007543
:10206D001D00758204121FC6AFAE751A00751B0DCB
:10207D00751C00751D00758204C007121FC6D007A0
:10208D00E5AE540FFEA2AF9200C2AF75C7AA75C7D9
:10209D0055539FFEA20092AFE4C454F0CFC4CF6F4E
:1020AD00CF54F0CF6FFD7C00EE2FF582EC3DF58324
:1020BD002285821B751A00751C00751D0075820422
:1020CD00121FC685AE82A2AF9200C2AF75C7AA75A8
:0A20DD00C755539FFEA20092AF22E8
:1002A900E4F540F5419001187479F07443A3F074B2
:1002B90080A3F090011B7484F07443A3F07480A3AD
:1002C900F090011E748FF07443A3F07480A3F09032
:1002D9000121749AF07443A3F07480A3F09001246F
:1002E90074A7F07443A3F07480A3F090012774B34A
:1002F900F07443A3F07480A3F090012A74C2F074DF
:1003090043A3F07480A3F090012D74D0F07443A33B
:10031900F07480A3F090013074D9F07443A3F074A1
:1003290080A3F090013374D9F07443A3F07480A3CF
:10033900F090013674D9F07443A3F07480A3F0905F
:10034900013974D9F07443A3F07480A3F090013C8F
:1003590074D9F07443A3F07480A3F090013F74D969
:10036900F07443A3F07480A3F090014274D9F0743F
:1003790043A3F07480A3F090014574D9F07443A3AA
:10038900F07480A3F090014874D9F07443A3F07419
:1003990080A3F090014B74D9F07443A3F07480A347
:1003A900F090014E74D9F07443A3F07480A3F090D7
:1003B900015174D9F07443A3F07480A3F0900154EF
:1003C90074D9F07443A3F07480A3F090015774D9E1
:1003D900F07443A3F07480A3F090015A74D9F074B7
:1003E90043A3F07480A3F090015D74D9F07443A322
:1003F900F07480A3F090016074D9F07443A3F07491
:1004090080A3F090016374D9F07443A3F07480A3BE
:10041900F090016674D9F07443A3F07480A3F0904E
:0D042900016974D9F07443A3F07480A3F04E
:1020E700AD82AE83AFF074032DFDE43EFE8D828E8C
:1020F700838FF0123D1D2405F58222AD82AE83AF9A
:10210700F08D028E038F04751A04751BFF8A828B6C
:10211700838CF0C007C006C0051226FE85821BD03F
:1021270005D006D00774052DFAE43EFB8F048A829A
:102137008B838CF0123D1DFAA3123D1DFBA3123DAC
:102147001DFC74032DFDE43EFE8D828E838FF012FD
:102157003D1D24FBF51A8A828B838CF00226FEAD87
:1021670082AE83AFF0C007C006C005122102AC8261
:10217700D005D006D00774042DFDE43EFE8D828E77
:10218700838FF0EC0233F7AD82AE83AFF0C007C0A8
:1021970006C005122102AC82D005D006D007740410
:1021A7002DFDE43EFE8D828E838FF0123D1DB5041A
:1021B700047582012275820022022CA4022D7EADB5
:1021C70082AE83AFF0C007C006C005122102D0055A
:1021D700D006D0078D028E038F048A828B838CF002
:1021E700123D1DF5820ABA00010BC007C006C005E3
:1021F700C004C003C0021221C3D002D003D004D050
:1022070005D006D0078A828B838CF0123D1DF5829C
:102217000ABA00010BC007C006C005C004C003C04E
:10222700021221C3D002D003D004D005D006D007B4
:102237008A828B838CF0123D1DF90ABA00010B8943
:1022470082C007C006C005C004C003C0021221C374
:10225700D002D003D004D005D006D0078A828B8362
:102267008CF0123D1DF5820ABA00010BC007C006AB
:10227700C005C004C003C0021221C3D002D003D0DE
:10228700048A828B838CF0123D1DF5821221C3D004
:1022970005D006D00774052DFAE43EFB8F047403BE
:1022A7002DFDE43EFE7900C002C003C0048D828E7E
:1022B700838FF0123D1D7C0024FBF8EC34FFFC8972
:1022C700027B00C3EA98EB64808CF063F08095F0A2
:1022D700D004D003D0025054C005C006C0078A827C
:1022E7008B838CF0123D1DF8A3123D1DFEA3123DFA
:1022F7001DFFE928F8E43EFE88828E838FF0123DA9
:102307001DF582C007C006C005C004C003C002C0D7
:10231700011221C3D001D002D003D004D005D006CA
:10232700D00709D007D006D0050222AE22AF82BF60
:102337000500500475820322AD45AE46AF47AA4259
:10234700AB43AC448A828B838CF0123D1DF9740138
:102357002AF542E43BF5438C448D828E838FF0E966
:102367001233F70DBD00010EAA42AB43AC448A827B
:102377008B838CF0123D1DF974012AF542E43BF57D
:10238700438C448D828E838FF0E91233F70DBD00A5
:10239700010EAA42AB43AC448A828B838CF0123D78
:1023A7001DF974012AF542E43BF5438C448D828E76
:1023B700838FF0E91233F70DBD00010EAA42AB433C
:1023C700AC448A828B838CF0123D1DF974012AF587
:1023D70042E43BF5438C448D828E838FF0E91233C0
:1023E700F70DBD00010EAA42AB43AC448A828B8332
:1023F7008CF0123D1DF974012AF542E43BF5438C3C
:10240700448D828E838FF0E91233F7AD45AE46AF28
:102417004774032DFAE43EFB8F0485424985434AFE
:1024270085444B754800C005C006C0078A828B8368
:102437008CF0123D1D790024FBF8E934FFF9AE4812
:102447007F00C3EE98EF648089F063F08095F0D049
:1024570007D006D0055053C002C003C00474052D31
:10246700F8E43EF98F04888289838CF0123D1DF8C9
:10247700A3123D1DF9A3123D1DFCE54828F8E439D8
:10248700F9854982854A83854BF0123D1DFBA3855B
:10249700824985834A888289838CF0EB1233F7055A
:1024A70048D004D003D00202242D8D828E838FF072
:1024B70012218EE58270047582042275820222AD94
:1024C70082AE83AFF0C007C006C00574E1C0E074F8
:1024D70042C0E0122ECE15811581D005D006D00757
:1024E7008D828E838FF0123D1DFC7B00C007C006D6
:1024F700C005C004C0037403C0E07443C0E0122EDB
:10250700CEE58124FCF581D005D006D00774012DD6
:10251700FAE43EFB8F048A828B838CF0123D1DFA0E
:1025270075F003A42418F582740135F0F583E0F9FA
:10253700A3E0FBA3E0FC8A007A00C007C006C00541
:10254700C001C003C004C000C002740EC0E07443E1
:10255700C0E0122ECEE58124F9F581D005D006D052
:102567000774022DFAE43EFB8F048A828B838CF07A
:10257700123D1DFA7C00C007C006C005C002C0049A
:10258700741DC0E07443C0E0122ECEE58124FCF533
:1025970081D005D006D00774032DFAE43EFB8F04E3
:1025A7008A828B838CF0123D1DFA7C00C007C0061F
:1025B700C005C002C0047428C0E07443C0E0122EF6
:1025C700CEE58124FCF581D005D006D0078D828E1B
:1025D700838FF0C007C006C005122102AC82D00568
:1025E700D006D0077B0074042DF8E43EF98F0288EB
:1025F7008289838AF0123D1DF87A00C007C006C0A1
:1026070005C004C003C000C0027433C0E07443C0F7
:10261700E0122ECEE58124FAF5817447C0E07443B9
:10262700C0E0122ECE15811581D005D006D00774D3
:10263700052DFAE43EFB8F0474032DFDE43EFE7581
:102647004C00C002C003C0048D828E838FF0123D00
:102657001D790024FBF8E934FFF9AB4C7C00C3EB90
:1026670098EC648089F063F08095F0D004D003D0B3
:10267700025065C005C006C0078A828B838CF012A2
:102687003D1DF8A3123D1DF9A3123D1DFFE54C2882
:10269700F8E439F9888289838FF0123D1DF87F00AD
:1026A700C007C006C005C004C003C002C000C00701
:1026B700744EC0E07443C0E0122ECEE58124FCF5D1
:1026C70081D002D003D004D005D006D007054CD066
:1026D70007D006D0050226497454C0E07443C0E011
:1026E700122ECE1581158174E1C0E07442C0E0124C
:1026F7002ECE1581158122AD82AE83AFF0AC1BEDD6
:102707004E60217B00C3EB951A50198D828E838F03
:10271700F0123D1DFAA3AD82AE83EC6A90283A937E
:10272700FC0B80E18C8222AF82AD40AE410540E4D4
:10273700B540020541C007C005C0067457C0E07424
:1027470043C0E0122ECEE58124FCF581745DC0E024
:102757007443C0E0122ECE15811581D0077E00C3C9
:10276700EE9F50248E047D00C007C006C004C0053C
:102777007465C0E07443C0E0122ECEE58124FCF5F9
:1027870081D006D0070E80D7C0077454C0E07443C9
:10279700C0E0122ECE15811581746CC0E07443C061
:1027A700E0122ECE15811581D0077E00C3EE9F5013
:1027B70072AB4DAC4EAD4F8B828C838DF0123D1DAD
:1027C700FABA100050308A0174012BF54DE43CF53C
:1027D7004E8D4F89007900C007C006C000C0017444
:1027E70072C0E07443C0E0122ECEE58124FCF5816F
:1027F700D006D007802A74012BF54DE43CF54E8DA9
:102807004F7D00C007C006C002C005744EC0E0740B
:1028170043C0E0122ECEE58124FCF581D006D00717
:102827000E80897454C0E07443C0E0122ECE158127
:03283700158122E6
:1042E1002D2D2D2D2D2D2D2D2D2D2D2D2D2D2D2DFD
:1042F1002D2D2D2D2D2D2D2D2D2D2D2D2D2D2D0D0D
:104301000A00566572203A2025640D0A005479701E
:10431100653A202564282573290D0A0041646472D9
:104321003A2025640D0A0053697A653A2025640D07
:104331000A0043524320636F6D70203A20256420A8
:104341002564200D0A00444154413A20003078256B
:064351007820000D0A00B7
:10283A0000316253C4F5A697B988DBEA7D4C1F2E96
:10284A004372211087B6E5D4FACB98A93E0F5C6D86
:10285A0086B7E4D5427320113F0E5D6CFBCA99A876
:10286A00C5F4A796013063527C4D1E2FB889DAEB66
:10287A003D0C5F6EF9C89BAA84B5E6D74071221356
:10288A007E4F1C2DBA8BD8E9C7F6A5940332615046
:10289A00BB8AD9E87F4E1D2C02336051C6F7A49536
:1028AA00F8C99AAB3C0D5E6F4170231285B4E7D626
:1028BA007A4B1829BE8FDCEDC3F2A1900736655416
:1028CA0039085B6AFDCC9FAE80B1E2D34475261706
:1028DA00FCCD9EAF38095A6B4574271681B0E3D2F6
:1028EA00BF8EDDEC7B4A192806376455C2F3A091E6
:1028FA004776251483B2E1D0FECF9CAD3A0B5869D6
:10290A0004356657C0F1A293BD8CDFEE79481B2AC5
:10291A00C1F0A3920534675678491A2BBC8DDEEFB5
:10292A0082B3E0D1467724153B0A5968FFCE9DACA5
:104357002325640D0A00726177203A202000253258
:104367006420202000646174613A00307830257839
:104377002000547970655F426361737400547970EB
:10438700655F556361737400547970655F4D636150
:10439700737400547970655F536574416464720087
:1043A700547970655F5365744C4544005479706562
:1043B7005F4374726C4D6F746F7200547970655FF0
:1043C700526561644164647200547970655F41436A
:0C43D7004B00547970655F4E6F6E6500FE
:1004360090016CE4F090016DF090016EF090016F08
:10044600F0900170740AF090017114F090017274CA
:1004560006F090017314F0900174740FF09001751A
:10046600F0900176F0900177F0900178F0900179A4
:100476007403F090017A14F090017B740FF09001F0
:100486007CF090017D7401F090017EE4F090017F94
:10049600740FF0900180F0900181F0900182F0904D
:1004A6000183F0900184E4F0900194F09001A4F0AF
:1004B6009001B4F09001C4F09001C5F09001C6F02F
:1004C6009001C7F09001C8F09001C9F09001CAF000
:1004D6009001CBF09001CCF09001CDF09001CEF0E0
:1004E6009001CFF09001D0F09001D1F09001D2F0C0
:0404F6009001D3F0AE
:10293A00AC82AD83AEF0FF53B1BF53B2BF53B17F88
:10294A0053B27F759850438920438780438E105332
:10295A00C4DF8C1A8D1B8E1C8F1D90D4BC75F00F92
:10296A00E412334FAC82C3E49CF58DD28ED2992205
:10297A00AC82AD83AEF0FF53B1BF53B2BF53B17F48
:10298A0053B27F75985043878053C4F843C4208C50
:10299A001A8D1B8E1C8F1D90D4BC75F00FE4123358
:1029AA004FAC82AD83AEF0FFE4C39CE49DF97401A1
:1029BA009EE49F89C6C3E49CFC8CC543C408D29993
:1029CA0022AC82AD83AEF0FF53B1FB53B2FB53B3DB
:1029DA00BF53B4BF75F85875C40853C4DF8C1A8D39
:1029EA001B8E1C8F1D90D4BC75F00FE412334FACB4
:1029FA0082AD83AEF0FFE4C39CE49DF974019EE4CA
:102A0A009F89C6C3E49CFC8CC543C408220229CB17
:102A1A00AE82E51170078E82122D4580058E8212D4
:102A2A002D7E9000002290C20075F001E412293A2E
:102A3A0090C20075F001E41229CBD2AC439C01D2BA
:102A4A00AF22C2999001C7E0FFE07001227D647E47
:102A5A000000000000ED24FFFBEE34FFFC8B058C28
:102A6A0006EB4C70EC9001C8E0FE04F0EE2494F5FD
:102A7A0082E43401F583E0F599EF149001C7F090F0
:102A8A0001C8E0FFBF10059001C8E4F022C021C0D0
:102A9A00E0C0F0C082C083C007C006C005C004C041
:102AAA0003C002C001C000C0D075D00830983B9066
:102ABA0001D0E02401F09001C4E0FFBF10005028CB
:102ACA009001C6E0FF04F0EF2484F582E43401F5B6
:102ADA0083E599F09001C4E02401F09001C6E0FF7B
:102AEA00BF10059001C6E4F0C2983099109001D148
:102AFA00E02401F075D000122A4C75D008D0D0D04D
:102B0A0000D001D002D003D004D005D006D007D01F
:102B1A0083D082D0F0D0E0D021329001C4E0F58297
:102B2A0022AD82AE83AFF09001C4E07003F5822239
:102B3A00C2AC9001C5E0FC04F0EC2484F582E434D4
:102B4A0001F583E08D828E838FF01233F79001C4F2
:102B5A00E014F09001C5E0FFBF10059001C5E4F054
:102B6A00D2AC75820122AF829001C4E0FE7003F5F7
:102B7A008222C3EE9F50028E07AC1AAD1BAE1C7B9D
:102B8A0000C3EB9F50309001C5E0FA04F0EA2484B8
:102B9A00F582E43401F583E08C828D838EF0123362
:102BAA00F7A3AC82AD839001C5E0FABA1005900193
:102BBA00C5E4F00B80CB9001C4E0C39FF08F822262
:102BCA00C2F99001CDE0FFE07001227D647E000031
:102BDA00000000ED24FFFBEE34FFFC8B058C06EBB6
:102BEA004C70EC9001CEE0FE04F0EE24B4F582E4E1
:102BFA003401F583E0F59AEF149001CDF09001CEFF
:102C0A00E053E00FF022C021C0E0C0F0C082C083D0
:102C1A00C007C006C005C004C003C002C001C0008E
:102C2A00C0D075D00830F83B9001D2E02401F09072
:102C3A0001CAE0FFBF100050289001CCE0FF04F069
:102C4A00EF24A4F582E43401F583E59AF09001CAF1
:102C5A00E02401F09001CCE0FFBF10059001CCE424
:102C6A00F0C2F830F9109001D3E02401F075D000D9
:102C7A00122BCA75D008D0D0D000D001D002D00310
:102C8A00D004D005D006D007D083D082D0F0D0E0CF
:102C9A00D021329001CAE0F58222AD82AE83AFF034
:102CAA009001CAE07003F58222539CFE9001CBE0AA
:102CBA00FC04F0EC24A4F582E43401F583E08D826F
:102CCA008E838FF01233F79001CAE014F09001CB93
:102CDA00E0FFBF10059001CBE4F0439C017582012F
:102CEA0022AF829001CAE0FE7003F58222C3EE9FF2
:102CFA0050028E07AC1AAD1BAE1C7B00C3EB9F5073
:102D0A00309001CBE0FA04F0EA24A4F582E434011D
:102D1A00F583E08C828D838EF01233F7A3AC82ADFB
:102D2A00839001CBE0FABA10059001CBE4F00B8056
:102D3A00CB9001CAE0C39FF08F8222AF829001C775
:102D4A00E0FEBE100040030080F39001C9E0FE04DB
:102D5A00F0EE2494F582E43401F583EFF09001C794
:102D6A00E02401F09001C9E0FFBF10059001C9E419
:102D7A00F0D29922AF829001CDE0FEBE1000400A47
:102D8A0090016DE02401F00080EC90016CE02401D8
:102D9A00F0539CFE9001CFE0FE04F0EE24B4F582DD
:102DAA00E43401F583EFF09001CDE02401F09001C5
:102DBA00CFE053E00FF09001CDE0FFBF010B90018F
:102DCA006FE02401F0D2F9800790016EE02401F04F
:102DDA00439C01227511019000F0022A1AAF8275F4
:102DEA001101EF23235403FE5306037D00EE2470E2
:102DFA00F582ED3401F583E0FEE4CEC4CE6ECE5406
:102E0A00F0CE6EFDEFC4540FFC5304037B00EC2498
:102E1A0070F582EB3401F583E07B004EF582EB4DD1
:102E2A00F583C007122A1AD007EF0303543FFE5353
:102E3A0006037D00EE2470F582ED3401F583E0FE91
:102E4A00E4CEC4CE6ECE54F0CE6EFD5307037C00A2
:102E5A00EF2470F582EC3401F583E07C004EF582B4
:102E6A00EC4DF583022A1AE582FFC4540F2474F547
:102E7A0082E43401F583E0FEBE0F0475820022531A
:102E8A00070F7E00EF2474F582EE3401F583E0FF2C
:102E9A00BF0F047582002275820122E582FFC454A5
:102EAA000F2474F582E43401F583E025E025E0FE81
:102EBA0053070F7D00EF2474F582ED3401F583E0AA
:102ECA004EF58222C018858118E51824FDF88683FC
:102EDA0018868218E493A3B42577C201C202C203FA
:102EEA00C204C205C20679127700C207E493A3247A
:102EFA00C64017240A50157005B51202D206D2052B
:102F0A00FAE775F00AA42AF780E2240A2430B46C9E
:102F1A0004D20180D7B46804D20280D0B473030209
:102F2A002F66B46406123240022FC2B475061232FA
:102F3A0040022FE2B4630518E6188017B47803023A
:102F4A002FA1B466030230F6B42E067913770080F7
:102F5A009B6006123332022EDE02334CC083C082DB
:102F6A0086F018868318868218300519C206C08230
:102F7A00C083123D1D6007A31512E51270F41233C7
:102F8A001DD083D082123D1D6006A312333280F514
:102F9A00D082D083022EDE122FB920020C122FB952
:102FAA00300106122FB9122FB9123344022EDEE66F
:102FBA00123322E618023323ED30E71CD204E9F477
:102FCA002401F9200212EAF43400FA30010AEBF47F
:102FDA003400FBECF43400FC200210300108EB70E2
:102FEA0024EC7021C201EA701CD202E97017200792
:102FFA0014300509E5126005151212331D743012DA
:10300A003332022EDEC082C08312325A3005607912
:10301A000A30011DEB54F0703619EB540F70301959
:10302A00EA54F0702A19EA540F702419EF54F07018
:10303A001E790520020BEF540F701419EE54F0702C
:10304A000E7903EE540F700719ED54F0700119E56B
:10305A0012A204994019F512C003C002C007C006A3
:10306A00C00512331DD005D006D007D002D00330D8
:10307A000419C003C002C007C006C005742D12336C
:10308A0032D005D006D007D002D00320024030014A
:10309A002CC005C006C0078A82EBF583123322E5ED
:1030AA0083123323E582123322E582123323D0E0DE
:1030BA00F582123322E582D083D08280058D828EFA
:1030CA0083EF123323E583123322E58380038D8253
:1030DA00EE123323E582123322E5821233231233AE
:1030EA0044D083D08230070122022EDE30050EE55D
:1030FA0012D39513F51250287512008023E6547FD7
:10310A00FA18860308AE82AF839045AF7D07E49331
:10311A002BA3E4933A5003A3DDF48D138E828F839D
:10312A00C000123222C082C083EFB47E02801940EE
:10313A00112482FDC3EA33FAEB33FBEC33FCDDF4F2
:10314A008006F4247F1233B475F01BE4F8FFFEFD09
:10315A00904543E933F9EA33FAEB33FBEC33FC509D
:10316A0017E4932DD4FD7401933ED4FE7402933F69
:10317A00D4FF74039338D4F8A3A3A3A3D5F0D4E45B
:10318A007C50FBFAF9E513232354FC88831233B4E9
:10319A00ED29D4F517EE3AD4F516EF3BD4F515E53B
:1031AA00833CD4F51492D5D083D082D00012322237
:1031BA00C000C3749E9F5005D000022EF6C0821232
:1031CA0033B4D08230D50FE92401F9E43AFAE43B6A
:1031DA00FBE43CFC40E2D207122FE220050CE51387
:1031EA0060081232127003D513F4E5136015742EB9
:1031FA001233327800D20308E8123212123323E86B
:10320A00B513F4D000022EDE14C31392D52414F998
:10321A00E720D501C4540F22E618F9E618FC33E971
:10322A00339204FF6003430480E618FBE618FA7938
:10323A0000C202D20122E6F9FD18200212AA01E612
:10324A00F91830010AAC02AB01E6FA18E6F91822BD
:10325A00E975F06484FE740AC5F084C445F0FD3053
:10326A00020122EA540FF99043E3932DD4FDE94475
:10327A0010933ED4FEEAC4540FF9904403932DD41C
:10328A00FDE94410933ED4FEE94420933400D4FF70
:10329A0020010122EB540FF9904433932DD4FDE918
:1032AA004410933ED4FEE94420933FD4FFE4340013
:1032BA00FAEBC4540FF9904463932DD4FDE94410FA
:1032CA00933ED4FEE94420933FD4FFE94430933A35
:1032DA00D4FAEC540FF99044A37B001232F0ECC4F8
:1032EA00540FF99044F3932DD4FDE94410933ED43E
:1032FA00FEE94420933FD4FFE94430933AD4FAE9F3
:10330A004440933BD4FB22742030060274301233BB
:10331A00321512E51270F022C4540F7003300319EB
:10332A00D2032490D43440D4C083C082C000F58232
:10333A00122A1AD000D082D083222003FC743002D1
:05334A003332D018220F
:1043E300005612682480369248046016722884406E
:1043F30000020507101215172023252830333538FE
:10440300009692888480767268646056524844406D
:104413000040812263044586276809509132731452
:10442300000000010102020203030404040505065F
:10443300003672084480165288246096326804401D
:1044430000551066217632874298530864197530F7
:1044530000061319263239455258657278859198AA
:1044630000765228048056320884603612886440ED
:104473000085715743281400867157432914008619
:1044830000040914192429343843485358636872C3
:10449300000102030405060708091011121314157D
:1044A30000163248648096122844607692082440AD
:1044B300007244168860320577492193653810826B
:1044C30000775533108866442199775432108865F4
:1044D3000016335067830017345067840118345132
:1044E30000000000000001010101010102020202BB
:1044F300005612682480369248046016722884405D
:1045030000540963187227813691450054096318D2
:104513000043873074176104489135792266095343
:10452300006836057342107947158452218958264D
:1045330000020508101316182124262932343740A7
:104543000000005000000025000050120000250666
:104553000050120300255601501278002506390039
:1045630012531900567609002888040014440200E7
:1045730007220100046100005230000026150000EC
:104583006307000081030000910100009500000013
:104593004800000024000000120000000600000094
:1045A3000300000001000000010000007DC5DDC321
:0A45B30034C2E0BE38BD86BBE4B997
:10334F00FB7A20E4FCFDFEFFE5822582F582E58312
:10335F0033F583E5F033F5F0EB33FB4017DAE98013
:10336F0042E5822582F582E58333F583E5F033F577
:10337F00F0EB33FBEC33FCED33FDEE33FEEF33FFBD
:10338F00EC951AED951BEE951CEF951D4013EC95E2
:10339F001AFCED951BFDEE951CFEEF951DFF43826C
:0533AF0001DABEEB2273
:06008E00E478FFF6D8FD46
:1033B4006040F82582500274FFF582E824F8501E1C
:1033C400CCCBCAF9E4CC24F85014CBCAF9E4CB240E
:1033D400F8500BCAF9E4CA24F850037900222408EF
:1033E4006010F8C3EC13FCEB13FBEA13FAE913F9CE
:1033F400D8F12220F71130F6138883A88220F5092A
:10340400F6A8837583002280FEF280F5F022C018AE
:103414008581187E008E83122A1AD0182285826034
:1034240085836185F062E4F55DF55EF55F8519637A
:10343400903412023500C018E581F51824FBFF8F83
:1034440063E4F55DF55EF55FE51824FBF886600836
:103454008661088662903412123500D01822AF8239
:10346400C053C054C05512346F8007C051C0528F2E
:103474008222158115811581055BE4B55B02055C2B
:1034840022AF8274302FFF24C6500B74072FFFE540
:103494005060034307208F82023462E582FFC454E4
:1034A4000FF582C007123485D007740F5FF58202CE
:1034B400348585821AAB56AC57AD58AE59AA5A75A5
:1034C4001C208A07EF2FF51BEE235401451BFAEB52
:1034D4002BFBEC33FCED33FDEE33FEC3EA951A40CF
:1034E40008EAC3951AFA430301E51C14FF8F1C7004
:1034F400D18B568C578D588E598A5A228582518584
:103504008352855D53855E54855F55E4F55BF55CB8
:10351400AD60AE61AF628D828E838FF0123D1DFC73
:1035240074012DF560E43EF5618F62ECFF700302D7
:103534003CE1BF25028003023CD97E007D008E64FD
:103544008E657A007B008E667C008E67E4F56FF5ED
:10355400707568FF7569FF85607185617285627336
:103564008571828572838573F0123D1DF574A38580
:103574008271858372857160857261857362742539
:10358400B57408857482123462808574D0257440C1
:1035940003023642E57424C6500302364274FFB572
:1035A4006855B56952856F1A85701B90000AC0066C
:1035B400C005C004C003C002123D00858275858326
:1035C40076D002D003D004D005D006857477757800
:1035D40000E5772575F577E5783576F578E5772490
:1035E400D0F56FE57834FFF570E56F457060030240
:1035F40035647D0102356485681A85691B90000A6B
:10360400C006C005C004C003C002123D0085827715
:10361400858378D002D003D004D005D00685747594
:10362400757600E5752577F577E5763578F578E5EF
:103634007724D0F568E57834FFF569023564742E93
:10364400B5741574FFB56805B56902800302356465
:10365400E4F568F569023564749F2574500EE574C9
:10366400248540085374DF7550018003755000743D
:1036740020B5740302370E742BB574030237087433
:103684002DB5740280797442B574030237147443FF
:10369400B5740302371F7444B5740302396C74465D
:1036A400B574030239827448B574030235647449ED
:1036B400B5740302396C744AB57403023564744CEE
:1036C400B574028050744FB574030239737450B5E5
:1036D40074030238B77453B5740280767454B574A5
:1036E400030235647455B574030239787458B5749B
:1036F4000302397D745AB574030235640239867E37
:10370400010235647564010235647565010235642E
:103714007B01023564756601023564EB600AE5637A
:1037240014F989638777800DE56324FEF575857543
:1037340063A9758777857782C006C005C004C00376
:10374400C002123462D002D003D004D005D00602E5
:1037540039A8E56324FDF577857763A9778771092F
:10376400877209877319198571568572578573583D
:103774008571828572838573F0C006C005C004C05C
:1037840003C002123CE8858277858378D002D00397
:10379400D004D005D00674FFB56809B569068577ED
:1037A40068857869EE704FC3E577956FE578957015
:1037B4005044E56FC39577F575E5709578F5768592
:1037C4007571857672157574FFB575021576E57198
:1037D4004572601C758220C006C005C004C003C0C9
:1037E40002123462D002D003D004D005D00680CFB8
:1037F40085756F8576708568758569768556828549
:1038040057838558F0123D1DF57185716C604FC367
:10381400E4957574808576F063F08095F0503F15DB
:103824007574FFB575021576856C82C006C005C037
:1038340004C003C002123462D002D003D004D00505
:10384400D0068556718557728558730571E4B57134
:10385400020572857156857257857358809EEE7085
:10386400030239A8C3E577956FE5789570400302A4
:1038740039A8E56FC39577F577E5709578F5788580
:103884007775857876157774FFB577021578E575C1
:10389400457670030239A2758220C006C005C004B3
:1038A400C003C002123462D002D003D004D005D0C9
:1038B4000680CCE56324FDF575857563A97587716C
:1038C400098772098773191985715685725785732B
:1038D4005885586D7480256D50057575438019742D
:1038E400A0256D5005757550800E74C0256D50056A
:1038F4007575498003757558857582C006C005C005
:1039040004C003C00212346275823A1234627582B2
:1039140030123462758278123462D002D003D0043B
:10392400D005D0067449B5750280217450B575026E
:10393400801A855782C006C005C004C003C00212A5
:10394400349FD002D003D004D005D006855682C05F
:1039540006C005C004C003C00212349FD002D003C5
:10396400D004D005D006803C7A0175670A8035758D
:103974006708803075670A802B75671080267C0184
:103984008022857482C006C005C004C003C0021230
:103994003462D002D003D004D005D00680068577E7
:1039A4006F857870EC6068E56324FCFC8C638C01A3
:1039B400877909877A09877B09877C191919857999
:1039C40056857A57857B58857C597556BD755745FC
:1039D40075588085567985577A85587B7401257981
:1039E400F571E4357AF572857B7385715685725766
:1039F400857358857982857A83857BF0123D1DFC19
:103A04008C79700302351485798212346280C4E59E
:103A1400677003023514EB603FE56314F98963872B
:103A2400048C79757A00757B00757C0085795685E0
:103A34007A57857B58857C59EA6003023AC58556D6
:103A440079757A00757B00757C00857956857A577F
:103A5400857B58857C598069E5666025E56324FC8F
:103A6400FC8C638C01877909877A09877B09877CB9
:103A7400191919857956857A57857B58857C59801B
:103A840040E56324FEFC8C638C01870309870419D9
:103A94008B79ECF57A3395E0F57BF57C8579568561
:103AA4007A57857B58857C59EA70168556798557EF
:103AB4007AF57BF57C857956857A57857B58857CA4
:103AC40059EA602AE55930E723C3E49556F579E4C9
:103AD4009557F57AE49558F57BE49559F57C857905
:103AE40056857A57857B58857C5980027A007C01FB
:103AF4007982E4F579F57A755A00856782C006C043
:103B040005C004C002C0011234B6D001D002D004F2
:103B1400D005D006EC700DE55AC4F577E7FB457780
:103B2400F7198002A75A0579E4B57902057AECB44D
:103B34000100E433FCE55645574558455970B889AA
:103B44006E85796A857A6BE56F45707005756F01CE
:103B5400F570ED7043EE7040856F7985707AAB6ACD
:103B64000B8B77757800C3E5779579E578957A506E
:103B740021758220C006C005C004C002123462D080
:103B840002D004D005D006157974FFB57902157AF0
:103B940080CC85796F857A70EA601D75822DC006A8
:103BA400C005C004123462D004D005D006156F7469
:103BB400FFB56F0215708046E56A456B6040E564A9
:103BC400601D75822BC006C005C004123462D00487
:103BD400D005D006156F74FFB56F021570801FE510
:103BE40065601B758220C006C005C004123462D013
:103BF40004D005D006156F74FFB56F021570EE7012
:103C04003C856F7985707AAA79AB7A157974FFB59A
:103C14007902157AC3E56A9AE56B9B5041ED60061B
:103C24007A307B0080047A207B008A82C006C0053B
:103C3400C004123462D004D005D00680CAC3E56A39
:103C4400956FE56B9570500FE56FC3956AF577E551
:103C540070956BF578800DE4F577F57880068579B5
:103C640077857A78A96E856A79856B7AAA79AD7A2F
:103C7400157974FFB57902157AEA4D602EECB4011A
:103C840000E433FC700A09E7C4540FFD8D5A800721
:103C94008705740F5DF55A855A82C006C004C001B9
:103CA400123485D001D004D00680C1EE70030235F1
:103CB40014AD77AE788D038E041DBDFF011EEB4C51
:103CC4007003023514758220C006C005123462D018
:103CD40005D00680E08F82123462023514855B823F
:043CE400855C832256
:0B45BD003C4E4F20464C4F41543E0046
:103CE800AA82AB83123D1D6003A380F8C3E5829AC4
:103CF800F582E5839BF58322E582851AF0A4C582C7
:103D0800C0F0851BF0A4D0F025F0C583851AF0A477
:053D18002583F5832264
:0D008100758182121E6DE582600302007E13
:103D1D0020F71430F6148883A88220F507E6A883CF
:0C3D2D0075830022E280F7E49322E0227C
:00000001FF
