:040000000200813247
:03000B00020631B9
:0100130032BA
:01001B0032B2
:03002300022D4269
:01002B0032A2
:01003300329A
:03003B0002066A50
:01004300328A
:01004B003282
:01005300327A
:01005B003272
:01006300326A
:01006B003262
:01007300325A
:03007B00022EA3AF
:100094009000CF7401F0753F007540009000D0E4EB
:1000A400F090000104F0900002740CF090000374CE
:1000B40001F0E4A3F09000057405F0900006E4F06C
:1000C4009000077408F09000087403F090001DE499
:1000D400F090001EF090001FF0900023F090002498
:1000E4007404F09000257401F090002604F0900050
:1000F4002704F090002804F090002904F090002ACE
:1001040004F090002B04F090002C04F090002D03D8
:10011400F090002EF090002FF0900030F09000311D
:1001240014F0900032F0900033F0900034F090001E
:10013400357405F0900036F0900037F0900038F0F8
:1001440090003974E4F0743CA3F07480A3F0900040
:100154003C74F1F0743CA3F07480A3F090003F74FD
:1001640002F0743DA3F07480A3F0900042740FF089
:10017400743DA3F07480A3F09000457425F0743DA1
:10018400A3F07480A3F09000487460F07409A3F0A5
:10019400E4A3F0A3F090004C7480F07470A3F0E436
:1001A400A3F0A3F0900050F07496A3F0E4A3F0A39E
:1001B400F0900054F074E1A3F0E4A3F0A3F09000F5
:1001C40058F074C2A3F07401A3F0E4A3F090005CAF
:1001D400F07484A3F07403A3F0E4A3F090006074BB
:1001E400E0F07493A3F07404A3F0E4A3F09000642B
:1001F400F07408A3F014A3F0E4A3F0900068742052
:10020400F074A1A3F07407A3F0E4A3F090006C745D
:10021400C0F07427A3F07409A3F0E4A3F090007075
:100224007460F074AEA3F0740AA3F0E4A3F0900039
:1002340074F07435A3F0740CA3F0E4A3F090007888
:1002440074A0F074BBA3F0740DA3F0E4A3F09000C9
:100254007CF07410A3F0740EA3F0E4A3F09000A853
:0D026400F0A3F09000AAF0A3F0A3F0A3F027
:0304C20002007EB7
:03007E00020E6708
:1004C500AF82C007740AC0E07438C0E0123161150C
:1004D500811581D007BF0002800ABF01028016BFC7
:1004E50002338022740DC0E07438C0E0123161150A
:1004F50081158180207413C0E07438C0E012316129
:1005050015811581800F7419C0E07438C0E012316F
:100515006115811581AE117F00C006C007741FC02B
:10052500E07438C0E0123161E58124FCF58122AF29
:1005350082BF0D028004BF1B11227438C0E07438DD
:10054500C0E012316115811581227E00C007C00609
:10055500743BC0E07438C0E0123161E58124FCF5DC
:100565008122AF82741BB5230280028079AE248E6E
:1005750011AC117D00C007C006C004C005743EC0A3
:10058500E07438C0E0123161E58124FCF581D006C4
:10059500D007BF0002800DBF01028021BF0202808B
:1005A5003502062E7F018E11758201C0071204C522
:1005B5008525117582011204C5D007806C7F028ED6
:1005C50011758202C0071204C585251175820212B4
:1005D50004C5D00780537F008E11758200C00712B5
:1005E50004C5D0078043BF0002800ABF0102801402
:1005F500BF0236801E852411852382C0071205346B
:10060500D0078025852511852382C007120534D0A2
:10061500078016852411852382C007120534852598
:1006250011852382120534D0078F8222C0E0C08253
:10063500C083C0D0758CFF758AF39000A8E02401B3
:10064500F0A3E03400F09000AAE02401F0A3E03428
:1006550000F0A3E03400F0A3E03400F0D0D0D08364
:10066500D082D0E032C0E0E5EC75EC00D0E032AEEF
:10067500875306107F00BE1041BF003EAF84AE8594
:100685007D00EF2FFFED33FD5306017C00EE2FFFBC
:10069500EC3DFDEF24F1FFED34FFFD8F0653060120
:1006A500EDC313CF13CFFD75C7AA75C7558F8475D5
:1006B500C7AA75C7558E855387EF22AF827511007E
:1006C500BF310122BF320122BF33028032BF340164
:1006D50022BF50028049BF5303020764BF54028002
:1006E5005EBF5603020774BF70028023BF7302808A
:1006F5005EBF74028039BF760302077402078474F3
:1007050055C0E07438C0E01231611581158122743D
:100715006CC0E07438C0E012316115811581227416
:100725007FC0E07438C0E0123161158115812274F3
:1007350091C0E07438C0E0123161158115812274D1
:10074500A6C0E07438C0E0123161158115812274AC
:10075500BCC0E07438C0E012316115811581227486
:10076500D4C0E07438C0E01231611581158122745E
:10077500EBC0E07438C0E012316115811581227437
:1007850005C0E07439C0E012316115811581741C12
:10079500C0E07439C0E0123161158115817433C030
:1007A500E07439C0E0123161158115817454C0E0DF
:1007B5007439C0E012316115811581746FC0E07420
:1007C50039C0E012316115811581748EC0E074392C
:1007D500C0E01231611581158174AFC0E07439C074
:1007E500E0123161158115812275B10075B2007570
:1007F500B30075B40075AC0075AD0043B32053B4B8
:10080500DF43B10453B2FB43B18053B27F53B3BF4F
:1008150043B44053B3F743B40853B3EF43B4105351
:10082500B3FB43B40453B3FD43B40253B3FE43B423
:100835000153B1FE43B20153B1FD43B20253B1EFCF
:1008450043B21053B1F743B208D296D292D293D2A3
:1008550094C280C281C284C28322E582FF6054EFC4
:1008650030E002B294EF30E102B293EF30E202B22F
:1008750092EF30E34890001DE0FF24FC4024EF2F69
:10088500900889738006800A800E8012C281C2801A
:100895008010D281C280800AD281D2808004C28138
:1008A500D28090001DEF04F0E0FFBF041090001D02
:1008B500E4F022D294D293D292C281C28022AF8236
:1008C500E519C4540FFE53070FE4FDFCEEB5070808
:1008D500ECB505047582012275820022AD82AE83D6
:1008E500AFF074012DFAE43EFB8F048A828B838C72
:1008F500F01237EEFCBC0402800DBC050302099022
:10090500BC06030209E62274052DF526E43EF5270B
:100915008F288526828527838528F01237EEF8A350
:100925001237EEF9A31237EEFC888289838CF01218
:1009350037EE24FF92948526828527838528F01239
:1009450037EEFAA31237EEFBA31237EEFC0ABA0014
:10095500010B8A828B838CF01237EE24FF929385EC
:1009650026828527838528F01237EEFAA31237EE03
:10097500FBA31237EEFC74022AFAE43BFB8A828B56
:10098500838CF01237EE24FF92922274052DFDE43C
:100995003EFE8D828E838FF01237EEFAA31237EE6C
:1009A500FBA31237EEFC0ABA00010B8A828B838CFB
:1009B500F01237EE24FF92808D828E838FF01237EE
:1009C500EEFDA31237EEFEA31237EEFF74022DFDE6
:1009D500E43EFE8D828E838FF01237EE24FF9281E6
:1009E50022AE227F00C006C00774DCC0E07439C0A7
:1009F500E0123161E58124FCF58122AF8290001E71
:100A0500EFF0AE29900023EEF07D00EF75F003A422
:100A15002439F582740035F0F583E0FBA3E0FCA3EF
:100A2500E0FFC006C005C003C004C00774F1C0E004
:100A35007439C0E0123161E58124F9F58122AD8276
:100A4500AE83AFF074012DFAE43EFB8F048A828BEE
:100A5500838CF01237EEFCBC000122BC020122BCE3
:100A65000302800CBC0502805BBC0703020B0C2251
:100A75002095012274022DFAE43EFB8F048A828BB5
:100A8500838CF01237EEF87900C004C003C002C0B1
:100A950000C00174F9C0E07439C0E0123161E5812C
:100AA50024FCF581D002D003D0048A828B838CF09C
:100AB5001237EEF5229037001220DC852210903790
:100AC500000220F090001DE0FC24FC500122EC2CDB
:100AD500900AD9738006800F80188021C281C28058
:100AE50090001D7401F022C281D28090001D740215
:100AF500F022D281D28090001D7403F022D281C2EF
:100B05008090001DE4F02275110074052DFDE43E72
:100B1500FE8D828E838FF01237EEF52AA31237EE03
:100B2500F52BA31237EEF52C852A82852B83852C90
:100B3500F01237EEF879007B007C008B30892F8826
:100B45002E8C2D7401252AFAE4352BFBAC2C8A82D8
:100B55008B838CF01237EEF9E4FAFBFCE52D4201AC
:100B6500E52E4202E52F4203E53042048B308A2F01
:100B7500892E752D007402252AF8E4352BFBAC2C43
:100B850088828B838CF01237EEF8E4FCFBFAE52DB6
:100B95004200E52E4204E52F4203E5304202C0073C
:100BA500C006C005C004C003C002C000C000C00428
:100BB500C003C002740DC0E0743AC0E0123161E5B3
:100BC5008124FAF581D000D002D003D00488828C2C
:100BD500838BF0EA122CC2D005D006D0078D828E09
:100BE500838FF01237EEF52DA31237EEF52EA312F3
:100BF50037EEF52F7402252DF8E4352EF9AC2F8844
:100C05008289838CF01237EEF87C007401252DF96A
:100C1500E4352EFAAB2F89828A838BF01237EEF9F1
:100C2500892A8C2B852D82852E83852FF01237EE10
:100C3500FA7B00C007C006C005C000C004C02AC0BA
:100C45002BC002C003741DC0E0743AC0E0123161CC
:100C5500E58124F8F581D005D006D0078D828E83F5
:100C65008FF01237EEFDA31237EEFEA31237EEFF1B
:100C750074032DFAE43EFB8F048A828B838CF01279
:100C850037EEFA74042DFDE43EFE8D828E838FF0DF
:100C95001237EEF5298A82020A00022DD643B308DF
:100CA50043B40843B31043B410C2C0439B01D2AF51
:100CB50022AF82C294C2937E007407C39EF5F005ED
:100CC500F0EF8002C313D5F0FB540124FF9294D2B8
:100CD50093C2930EBE080040E0D294D293A294E44E
:100CE50033F582C293227F00D294C2937E00D293C1
:100CF500A294E433FD8E047407C39CFC8CF005F0CC
:100D0500ED800225E0D5F0FB4207C2930EBE080038
:100D150040DCC294D293C293D2948F8222E582257D
:100D250082FFE5314FF582020CB6753100120D22B6
:100D35007F00C3EF9532501FEF2533FCE43534FDBA
:100D4500AE358C828D838EF01237EEF582C0071298
:100D55000CB6D0070F80DBD294D2932275310112E5
:100D65000D227F00C3EF9536502CEF2537FCE43577
:100D750038FDAE39C007C006C005C004120CEBAB88
:100D850082D004D005D006D0078C828D838EF0EBFF
:100D950012368A0F80CED294D29322753101120D6C
:100DA50022D29310930280FB7F00C3EF953A502C1B
:100DB500EF253BFCE4353CFDAE3DC007C006C00554
:100DC500C004120CEBAB82D004D005D006D0078C42
:100DD500828D838EF0EB12368A0F80CED294D29319
:100DE50022AE827F00AC3E7D00EC2FFFED3EFE8FF4
:100DF50019EEF51A3395E0F51BF51C90445CE4F506
:100E0500F0123780AC82AD83AEF0FF7519FF751A0D
:100E1500FFE4F51BF51C8C828D838EF0EF1235E215
:100E2500AC82AD83AEF0FF746C2CFC74EE3DFD74AA
:100E3500FF3EFE74FF3F8C828D838EF022AE82AF23
:100E4500837C007D008C028D03C3EA9EEB9F5011CD
:100E5500000000000000000000000CBC00E70D8051
:100E6500E4227542009000CCE4F09000CDF0A3F0B0
:100E75007543017544027545037546047547057547
:100E85004809754900F54A754B01754C02754D03C6
:100E9500754E04754F05755025755100F5527553FE
:100EA5000175540375550275560B7557FF75582511
:100EB500755900F55AF55BF55C1207EE122CDB123D
:100EC5000CA2900005E075F004A42448F582740096
:100ED50035F0F583E0FAA3E0FBA3E0FCA3E08A820A
:100EE5008B838CF0122C76120674538EF7D2A9D20E
:100EF5008C751100742AC0E0743AC0E01231611596
:100F0500811581751101743AC0E0743AC0E012315F
:100F150061158115817C307F750000000000EC248F
:100F2500FFFAEF34FFFB8A048B07EA4B70EBF511F0
:100F3500A282A295E433FF439B02D2AF208202D264
:100F450084903700E493F52290004175F040C00786
:100F5500120C9FE582D00770030217DB741BB541A5
:100F6500030213FB742BB54103021585742DB5419E
:100F7500030216B07431B541030210047432B54151
:100F8500030210387433B5410302106C7434B54153
:100F9500030210A07435B541030210D47436B5416F
:100FA500030210EA7437B5410302111E7438B541C6
:100FB500030211527454B541030212027462B54121
:100FC500030213B87469B54103021301746AB5418C
:100FD5000302128C746BB5410302124B7470B54158
:100FE500030212F87472B541030211BB7473B54163
:100FF500030212CC7474B541030211860217DBB2E9
:1010050096C007744AC0E0743AC0E0123161158198
:101015001581A296E433FB7C00C003C0047453C061
:10102500E0743AC0E0123161E58124FCF581D00716
:101035000217DBB294C0077458C0E0743AC0E012DE
:10104500316115811581A294E433FB7C00C003C096
:10105500047453C0E0743AC0E0123161E58124FCA8
:10106500F581D0070217DBB293C007745FC0E07447
:101075003AC0E012316115811581A293E433FB7CFE
:1010850000C003C0047453C0E0743AC0E01231617B
:10109500E58124FCF581D0070217DBB292C0077405
:1010A50066C0E0743AC0E012316115811581A292E3
:1010B500E433FB7C00C003C0047453C0E0743AC041
:1010C500E0123161E58124FCF581D0070217DBC010
:1010D50007746DC0E0743AC0E01231611581158165
:1010E500D0070217DBB280C007747BC0E0743AC03A
:1010F500E012316115811581A280E433FB7C00C0CB
:1011050003C0047453C0E0743AC0E0123161E58154
:1011150024FCF581D0070217DBB281C0077485C0B6
:10112500E0743AC0E012316115811581A281E43382
:10113500FB7C00C003C0047453C0E0743AC0E012E5
:101145003161E58124FCF581D0070217DBB284C04B
:10115500077490C0E0743AC0E012316115811581C1
:10116500A284E433FB7C00C003C0047453C0E07464
:101175003AC0E0123161E58124FCF581D007021700
:10118500DBC0079000AAE0C0E0A3E0C0E0A3E0C098
:10119500E0A3E0C0E0749CC0E0743AC0E0123161A5
:1011A500E58124FAF581D0079000AAE4F0A3F0A325
:1011B500F0A3F00217DB90004175F040C007122242
:1011C50061E582D0076020AB417C00C007C003C049
:1011D5000474A8C0E0743AC0E0123161E58124FCD2
:1011E500F581D0070217DBC00774B7C0E0743AC0B9
:1011F500E012316115811581D0070217DBC007ABFD
:10120500277C00AA287E0085255D8E5EAD267F00A1
:10121500C007C003C004C002C006C05DC05EC005F3
:10122500C00774BFC0E0743AC0E0123161E58124A3
:10123500F6F581D0077526007525007528007527F8
:1012450000D0070217DB900024E02401F0E075F0E0
:1012550004A42448F582740035F0F583E0FBA3E08F
:10126500FCA3E0FDA3E0FEC007C003C004C005C0A9
:101275000674CDC0E0743AC0E0123161E58124FA0C
:10128500F581D0070217DB900024E014F0E075F03B
:1012950004A42448F582740035F0F583E0FBA3E04F
:1012A500FCA3E0FDA3E0FEC007C003C004C005C069
:1012B5000674CDC0E0743AC0E0123161E58124FACC
:1012C500F581D0070217DB900024E075F004A42413
:1012D50048F582740035F0F583E0FBA3E0FCA3E05C
:1012E500FDA3E08B828C838DF0C007122C76D0078E
:1012F5000217DB90001E7402F00217DB90000974E0
:101305002CF090000A7406F07533097534007535B4
:101315000075320275824AC007120D2F90271012F0
:101325000E427537097538007539007536037582B3
:101335004A120D6190000BE0FE751902751AFF90B7
:10134500000975F000C0061227D5AD82D006D0077A
:10135500EEB50549C007900009E0FE90000AE0F5EA
:101365003E8E82C007120DE6AB82AC83ADF0FED097
:1013750007AA3F053F7F00C007C003C004C005C0E2
:1013850006C002C00774D3C0E0743AC0E0123161F0
:10139500E58124F8F581D007D0070217DBC0077473
:1013A500E4C0E0743AC0E012316115811581D007BF
:1013B5000217DB7E087531008E82C007C006120D4C
:1013C50022E582D006D00770208E04FDC007C00636
:1013D500C004C00574EEC0E0743AC0E0123161E5A6
:1013E5008124FCF581D006D007D293D2940EBE7825
:1013F5000040C20217DB900006E02401F0E0FE2465
:10140500FA500302156AEE2E90141173800A801E9D
:1014150080328046805A806EC00774FEC0E0743A00
:10142500C0E012316115811581D0070217DBC007B5
:101435007412C0E0743BC0E012316115811581D092
:10144500070217DBC0077426C0E0743BC0E0123109
:101455006115811581D0070217DBC0077436C0E01E
:10146500743BC0E012316115811581D0070217DB8D
:10147500C0077448C0E0743BC0E0123161158115A6
:1014850081D0070217DBC007C0077453C0E0743B67
:10149500C0E012316115811581900001E0FE7D00EB
:1014A500C006C0057475C0E0743BC0E0123161E54B
:1014B5008124FCF581900002E0FE7D00C006C00598
:1014C500748CC0E0743BC0E0123161E58124FCF509
:1014D50081900003E0C0E0A3E0C0E074A3C0E07425
:1014E5003BC0E0123161E58124FCF581D007900015
:1014F50005E0FEFC7D00EE75F004A42448F5827439
:101505000035F0F583E0FAA3E0FBA3E0FEA3E0FFDE
:10151500C007C004C005C002C003C006C00774B63A
:10152500C0E0743BC0E0123161E58124F8F581D05B
:1015350007900007E0FF7E00C007C007C00674C023
:10154500C0E0743BC0E0123161E58124FCF5817493
:1015550053C0E0743BC0E012316115811581D0079D
:10156500D0070217DB900006E4F0C00774FEC0E068
:10157500743AC0E012316115811581D0070217DB7D
:10158500900006E0FE24FB50030217DBEE2E2E90A2
:101595001598730215A70215CE0215F5021623023A
:1015A5001689900001E02401F0E0FE7D00C007C02F
:1015B50006C0057475C0E0743BC0E0123161E58179
:1015C50024FCF581D0070217DB900002E02401F02E
:1015D500E0FE7D00C007C006C005748CC0E0743B0A
:1015E500C0E0123161E58124FCF581D0070217DBEB
:1015F500900003E02401F0A3E03400F0C007900060
:1016050003E0C0E0A3E0C0E074A3C0E0743BC0E029
:10161500123161E58124FCF581D0070217DB9000CA
:1016250005E02401F0E075F004A42448F582740077
:1016350035F0F583E0FBA3E0FCA3E0FDA3E0FEC0ED
:1016450007C003C004C005C00674CDC0E0743AC02D
:10165500E0123161E58124FAF581900005E075F02D
:1016650004A42448F582740035F0F583E0FBA3E07B
:10167500FCA3E0FDA3E08B828C838DF0122C76D049
:10168500070217DB900007E02401F0E0FE7D00C0B3
:1016950007C006C00574C0C0E0743BC0E0123161EC
:1016A500E58124FCF581D0070217DB900006E0FEFA
:1016B50024FB50030217DBEE2E2E9016C373021681
:1016C500D20216F802171E0217540217B89000012D
:1016D500E014F0E0FE7D00C007C006C0057475C0CB
:1016E500E0743BC0E0123161E58124FCF581D0074F
:1016F5000217DB900002E014F0E0FE7D00C007C099
:1017050006C005748CC0E0743BC0E0123161E58110
:1017150024FCF581D0070217DB900003E024FFFDD0
:10172500A3E034FFFE900003EDF0EEA3F0C00790B8
:101735000003E0C0E0A3E0C0E074A3C0E0743BC0D8
:10174500E0123161E58124FCF581D0070217DB90B9
:101755000005E014F0E075F004A42448F582740057
:1017650035F0F583E0FBA3E0FCA3E0FDA3E0FEC0BC
:1017750007C003C004C005C00674CDC0E0743AC0FC
:10178500E0123161E58124FAF581900005E075F0FC
:1017950004A42448F582740035F0F583E0FBA3E04A
:1017A500FCA3E0FDA3E08B828C838DF0122C76D018
:1017B500078023900007E014F0E0FE7D00C007C01D
:1017C50006C00574C0C0E0743BC0E0123161E5811C
:1017D50024FCF581D0078F06A295E433FDEEB5050F
:1017E500028064751100A295E433FD7E00C005C03A
:1017F5000674CEC0E0743BC0E0123161E58124FC83
:10180500F58130950D900021E4F0A3F0900020F0D3
:10181500803090001FE4F0F5110540E540540124A7
:10182500FF9294E540035401FE24FF9293E54003A3
:10183500035401FD24FF9292EE24FF9280ED24FFD4
:101845009281A295E433FF2095030219129000219D
:10185500E0FDA3E0FE900003E0FBA3E0FCC3ED9BED
:10186500EE9C5018109602800302190BD296900038
:101875002174012DF0E43EA3F002190B900020E045
:10188500FE900001E0FDC3EE9D507B7511019000B7
:10189500F0C007122CC59000F0122CC59000F01274
:1018A5002CC59000F0122CC59000F0122CC5D00765
:1018B5007E00900007E0FDC3EE9D5032BE02109001
:1018C5000002C007C006122CC5D006D007801C8EAA
:1018D500047D009000D0E07A002CF582EA3DF58386
:1018E500C007C006122CC5D006D0070E80C49000D4
:1018F500D0E02401F0900020E02401F07511009063
:101905000021E4F0A3F090001EE4F0804790001E53
:10191500E0FE24FC403EEE2E9019217380368004B3
:10192500800B8018C007123071D0078027900023E4
:10193500E0F582C00712307AD00780187511019042
:101945000023E0FE7D008E828D83C007122CC5D05A
:1019550007751100A282E54224F85003020F4DE5F8
:1019650042240B83F582E542240C83F583E47384DA
:10197500BCB33C78D461AB19191D1A1A1A1C1C90FA
:10198500004175F040C007122261E582D00770035F
:10199500020F4D9000A8E4F0A3F0755B019000AE36
:1019A500E541F0751100900021E4F0A3F0900020CE
:1019B500F0754201020F4D90004175F040C00712CD
:1019C5002261E582D0076052AE5B1EC2D575F0027A
:1019D500EE30E704B2D5F404A430D50AF42401C5E9
:1019E500F0F43400C5F02480FD740035F0FE90005D
:1019F500A8E0FBA3E0FC8D828E83EBF0ECA3F090D6
:101A050000A8E4F0A3F0AE5B055BEE24AEF582E43E
:101A15003400F583E541F0020F4D9000A8E0FDA3E9
:101A2500E0FEC374E89D74039E4003020F4D855B81
:101A35005C754202020F4D9000CCE0FE70067542C7
:101A450004020F4DEE7003020F4DEE149000CCF022
:101A5500E0FE7D00C007C006C00574DAC0E0743B37
:101A6500C0E0123161E58124FCF581D007754203A0
:101A7500020F4DC00774DEC0E0743BC0E012316157
:101A850015811581751101900000122CC59000007B
:101A9500122CC59000F0122CC59000F0122CC590A8
:101AA50000F0122CC590005375F0401222079000EB
:101AB5005375F040122267D0077511009000AAE413
:101AC500F0A3F0A3F0A3F0F55B754205020F4D906E
:101AD500004175F040C007122261E582D0076065BC
:101AE500AE5B1EC2D575F002EE30E704B2D5F40444
:101AF500A430D50AF42401C5F0F43400C5F02480DF
:101B0500FD740035F0FE9000A8E0FBA3E0FC8D829B
:101B15008E83EBF0ECA3F09000A8E4F0A3F0AE5BAD
:101B2500055BEE24AEF582E43400F583E541F0C0B3
:101B35000774E6C0E0743BC0E01231611581158180
:101B4500D007021BE59000A8E0FDA3E0FEC37410DA
:101B55009D74279E4003021BE5855B5CAD5B7E00A3
:101B6500C007C005C00674E8C0E0743BC0E0123190
:101B750061E58124FCF581D0079000AFE0FEBE074A
:101B850005754207805A9000AAE4F0A3F0A3F0A3DC
:101B9500F0F55B758202C0071227BAAD82AE83905D
:101BA50000CDEDF0EEA3F0C006C00574FBC0E074F7
:101BB5003BC0E012316115811581D005D006AB42DD
:101BC5007C00C005C006C003C004741AC0E0743CA4
:101BD500C0E0123161E58124FAF581D0077542062E
:101BE5009000AAE0FBA3E0FCA3E0FDA3E0FEC37424
:101BF500A09B74869C74019DE49E4003020F4D904A
:101C050000AAE4F0A3F0A3F0A3F0F55B758202C08F
:101C1500071227BAAD82AE839000CDEDF0EEA3F0AA
:101C2500C006C0057438C0E0743CC0E012316115CF
:101C3500811581D005D006AB427C00C005C006C029
:101C450003C0047455C0E0743CC0E0123161E58105
:101C550024FAF581D007754206020F4D9000CDE0BC
:101C6500FDA3E0FE4D7006754204020F4DED4E706A
:101C750003020F4D1DBDFF011E9000CDEDF0EEA33B
:101C8500F0C0079000CDE0C0E0A3E0C0E074DAC08A
:101C9500E0743BC0E0123161E58124FCF581D00799
:101CA500754206020F4D9000AFE0FEBE07028003AD
:101CB500021DA39000B0E0FEBE02028003021D9645
:101CC500C0077474C0E0743CC0E012316115811521
:101CD500817561AE75620075630075644375650055
:101CE500756640855C821223D590004375F04012DD
:101CF5002567AD5C7E009000B5E0FC7B00C005C0AB
:101D050006C004C0037402C0E0E4C0E07480C0E013
:101D1500743CC0E0123161E58124F8F581D0077E7D
:101D250000C3EE955C502EEE24AEF582E43400F54A
:101D350083E0FD7C00C007C006C005C00474AAC0CE
:101D4500E0743CC0E0123161E58124FCF581D006E8
:101D5500D0070E80CC9000CFE02401F0E0F553755C
:101D65008202C00712279FAD829000CCEDF075422C
:101D750003740AC0E07438C0E01231611581158121
:101D8500740AC0E07438C0E012316115811581D044
:101D950007755B009000A8E4F0A3F0020F4D755B9A
:101DA500009000A8E4F0A3F0754205020F4DAD5C6C
:101DB5007E009000B0E0FC7B00C007C006C005C0F7
:101DC50005C006C004C00374B0C0E0743CC0E01296
:101DD5003161E58124FAF581D005D006D00774017B
:101DE500B55C409000AEE0F519758202C007120897
:101DF500C3E582D0077003020F4D9000AEE0FC7B77
:101E050000C007C004C00374C8C0E0743CC0E01241
:101E15003161E58124FCF58185418212085FD00797
:101E2500020F4D74F8255C5003021EE5C007C0057E
:101E3500C00674D0C0E0743CC0E0123161E5812475
:101E4500FCF581D0077E00C3EE955C502EEE24AEE6
:101E5500F582E43400F583E0FD7C00C007C006C0D0
:101E650005C00474AAC0E0743CC0E0123161E5818C
:101E750024FCF581D006D0070E80CCC007740AC0BB
:101E8500E07438C0E012316115811581D0077E00FC
:101E9500C3EE955C5034EE75F002A42480F582748F
:101EA5000035F0F583E0FCA3E0FDC007C006C004E3
:101EB500C00574DFC0E0743CC0E0123161E58124E7
:101EC500FCF581D006D0070E80C6C007740AC0E0B5
:101ED5007438C0E012316115811581D007020F4DAC
:101EE5009000AFE0FEBE64028003020F4D758202D2
:101EF500C00712279FAD82AE83D0079000CCEDF0CE
:091F0500755B00754203020F4DEB
:10380A000A0D0073656C66200063726F7373006241
:10381A006F74682000206F75747075743A54686903
:10382A0073206973205541525425640A0D000D0A0C
:10383A00002563000D0A696E7075743A54686973DD
:10384A00206973205541525425640049646C6520EF
:10385A00707265616D626C65206F6E2F6F66660DA2
:10386A000A004C696E65466920506F776572204F71
:10387A0066660D0A004C696E65466920506F776569
:10388A0072204F6E0D0A004C696E654669205561BB
:10389A007274205478204C6F770D0A004C696E655B
:1038AA004669205561727420547820486967680D0A
:1038BA000A004C696E65466920435343207278209A
:1038CA0046534D204F66660D0A004C696E6546697F
:1038DA00204353432072782046534D204F4E0D0A01
:1038EA000056657273696F6E20312E34206F6E2018
:1038FA0032303233313032360D0A00313A20646FB9
:10390A00776E6C696E6B207061636B657420310D24
:10391A000A00323A20646F776E6C696E6B207061B0
:10392A00636B657420320D0A00333A2075706C6936
:10393A006E6B2069646C6520707265616D626C657E
:10394A00206F6E2F6F66660D0A00702F503A204C5A
:10395A00696E65466920506F776572206F66662FBB
:10396A006F6E0D0A00742F543A204C696E654669D1
:10397A002055617274205478204C6F772F486967FC
:10398A00680D0A00732F533A204C696E65466965C3
:10399A00204353432052782046534D206F66662FAA
:1039AA006F6E0D0A00746573742070726F636564BC
:1039BA007572653A2070202D3E2050202D3E2054ED
:1039CA00202D3E2053202D3E2031206F7220320DB3
:1039DA000A004D79206164647265737320697320EB
:1039EA00307825780D0A0025733A25640D0A00738C
:1039FA006574206164647265737320617320256441
:103A0A000D0A00756172742073706565643A202529
:103A1A006C75002825782C25782C2578290A0D0024
:103A2A00546869732069732055415254300A0D0055
:103A3A00546869732069732055415254310A0D0044
:103A4A00554152545F54583D0025640A0D004C45B7
:103A5A00445F523D004C45445F473D004C45445F3E
:103A6A00423D006E6F204D4F544F525F454E0D0A36
:103A7A00004D4F544F525F43573D004D4F544F52E4
:103A8A005F4343573D0053454C5F52585F504F4C7C
:103A9A003D00636F756E743A256C750D0A00727875
:103AAA002064617461203A2025780D0A006E6F2027
:103ABA0072780D0A00256420256420256420256477
:103ACA000D0A00256C750D0A005B25645D74656D31
:103ADA0070203A20256C750D0A00637263206261BA
:103AEA00640D0A0069326320666F756E642025785A
:103AFA003A0D0A006775385050616D626C654475FD
:103B0A0072484E756D0D0A006775385050616D62C6
:103B1A006C654475724C4E756D0D0A0067753850A8
:103B2A0050616D626C654E756D0D0A006775384C93
:103B3A00696E6546695570526174650D0A0067754C
:103B4A00385478436E740D0A002D2D2D2D2D2D2DF0
:103B5A002D2D2D2D2D2D2D2D2D2D2D2D2D2D2D2D8B
:103B6A002D2D2D2D2D2D2D2D0D0A00677538505018
:103B7A00616D626C65447572484E756D3A25640DC7
:103B8A000A006775385050616D626C654475724CF5
:103B9A004E756D3A25640D0A006775385050616D8F
:103BAA00626C654E756D3A25640D0A00256C755B6D
:103BBA0025645D0D0A006775385478436E743A259A
:103BCA00640D0A005357495443483A25640A0D00C4
:103BDA002564200033333333330D0A0031000D0AD4
:103BEA00753852784C46504C656E3A2025640D0A59
:103BFA000061636B20776169742D3E77726F6E671F
:103C0A002061636B2D3E6261636B6F66660D0A000D
:103C1A000D0A2564204261636B6F66662074696DC4
:103C2A006572207365743A202564200D0A00616369
:103C3A006B20776169742D3E74696D656F75742D9B
:103C4A003E6261636B6F66660D0A000D0A25642C7D
:103C5A00204261636B6F66662074696D65722073BA
:103C6A0065743A202564200D0A0041434B41434BB9
:103C7A0041434B0D0A00536C6176652025642C2064
:103C8A00444C5F7061636B65745F6E756D3A202595
:103C9A00642C2052782073697A653A25640A0D00EB
:103CAA003078257820000D0A546F202564202D3E97
:103CBA002052782053495A453A25640A0D00527811
:103CCA003A25640A0D00313A52782073697A653AC6
:103CDA0025640A0D002564202000554C544D4F449C
:103CEA00455F494E495400554C544D4F44455F5029
:103CFA005245414D424C4500554C544D4F44455F49
:103D0A004441544100554C544D4F44455F4E4F5F1A
:103D1A004D414E4348455354455200554C544D4F1E
:083D2A0044455F4E4F4E450079
:1037000000000000000000000000000000000000B9
:1037100000000000000000000000000000000000A9
:103720000000000000000000000000000000000099
:103730000000000000000000000000000000000089
:103740000000000000000000000000000000000079
:103750000000000000000000000000000000000069
:103760000000000000000000000000000000000059
:103770000000000000000000000000000000000049
:101F0E0075C7AA75C75575FD5A75C7AA75C7557594
:101F1E00FDA575820022AC82AD83AEF0FF538EF725
:101F2E00438901D28CEC4D4E4F601A758A76758CB2
:101F3E00FF108D0280FB1CBCFF091DBDFF051EBEE0
:101F4E00FF011F80E0C28C22AC82AD83AEF0FF5346
:101F5E008EF7438901D28CEC4D4E4F601A758A98DC
:101F6E00758CFA108D0280FB1CBCFF091DBDFF0590
:101F7E001EBEFF011F80E0C28C22AC82AD83AEF08C
:101F8E00FF538EEF438910D28EEC4D4E4F601A7573
:101F9E008BF6758DC9108F0280FB1CBCFF091DBD11
:101FAE00FF051EBEFF011F80E0C28E22AC82AD83F4
:101FBE00AEF0FF53C9BF53C9DF43C910D2CAEC4DAF
:101FCE004E4F601A75CCE575CDF710CF0280FB1C15
:101FDE00BCFF091DBDFF051EBEFF011F80E0C2CA6A
:101FEE0022AC82AD83AEF0FF75C40743C408EC4D3E
:101FFE004E4F602575C55775C6CDAAC45302107BCA
:10200E0000BA10F6BB00F353C4EF1CBCFF091DBD94
:10201E00FF051EBEFF011F80D553C4F722AC82AD53
:10202E0083AEF0FF75C40743C408EC4D4E4F6025D8
:10203E0075C5D775C6FFAAC45302107B00BA10F639
:10204E00BB00F353C4EF1CBCFF091DBDFF051EBE34
:10205E00FF011F80D553C4F722AF82A2AF9200C2F8
:10206E00AF75C7AA75C755439F01A20092AFE51C75
:10207E006013A2AF9200C2AF75C7AA75C75543A52C
:10208E0001A20092AF851AA68519A7851BAE8FAF48
:10209E00A2AF9200C2AF75C7AA75C75543A401A2DD
:1020AE000092AFE51C6026A2AF9200C2AF75C7AA20
:1020BE0075C75553A5FEA20092AFA2AF9200C2AF54
:1020CE0075C7AA75C755539FFEA20092AF22AE8266
:1020DE00AF838F198E1A751BFF751C017582220234
:1020EE002067AE82AF838F198E1A85101B751C0167
:1020FE00758221022067751900751A0C751B007503
:10210E001C00758204122067AFAE751900751A0D8A
:10211E00751B00751C00758204C007122067D0075E
:10212E00E5AE540FFEA2AF9200C2AF75C7AA75C737
:10213E0055539FFEA20092AFE4C454F0CFC4CF6FAC
:10214E00CF54F0CF6FFD7C00EE2FF582EC3DF58382
:10215E002285821A751900751B00751C0075820484
:10216E0012206785AE82A2AF9200C2AF75C7AA7564
:0A217E00C755539FFEA20092AF2246
:10027100E4F55FF5609000D174CAF0743DA3F074A9
:1002810080A3F09000D474D5F0743DA3F07480A3E2
:10029100F09000D774E0F0743DA3F07480A3F09067
:1002A10000DA74EBF0743DA3F07480A3F09000DDEC
:1002B10074F8F0743DA3F07480A3F09000E074042E
:1002C100F0743EA3F07480A3F09000E37413F07413
:1002D1003EA3F07480A3F09000E67421F0743EA375
:1002E100F07480A3F09000E9742AF0743EA3F074D6
:1002F10080A3F09000EC742AF0743EA3F07480A304
:10030100F09000EF742AF0743EA3F07480A3F09093
:1003110000F2742AF0743EA3F07480A3F09000F50B
:10032100742AF0743EA3F07480A3F09000F8742A4C
:10033100F0743EA3F07480A3F09000FB742AF07473
:100341003EA3F07480A3F09000FE742AF0743EA3E3
:10035100F07480A3F0900101742AF0743EA3F0744C
:1003610080A3F0900104742AF0743EA3F07480A37A
:10037100F0900107742AF0743EA3F07480A3F0900A
:10038100010A742AF0743EA3F07480A3F090010D69
:10039100742AF0743EA3F07480A3F0900110742AC3
:1003A100F0743EA3F07480A3F0900113742AF074EA
:1003B1003EA3F07480A3F0900116742AF0743EA35A
:1003C100F07480A3F0900119742AF0743EA3F074C4
:1003D10080A3F090011C742AF0743EA3F07480A3F2
:1003E100F090011F742AF0743EA3F07480A3F09082
:0D03F1000122742AF0743EA3F07480A3F082
:10218800AD82AE83AFF074032DFDE43EFE8D828EEA
:10219800838FF01237EE2405F58222AD82AE83AF2D
:1021A800F08D028E038F04751904751AFF8A828BCD
:1021B800838CF0C007C006C0051227D585821AD0C7
:1021C80005D006D00774052DFAE43EFB8F048A82F9
:1021D8008B838CF01237EEFAA31237EEFBA312377B
:1021E800EEFC74032DFDE43EFE8D828E838FF0128B
:1021F80037EE24FBF5198A828B838CF00227D5AD44
:1022080082AE83AFF0C007C006C0051221A3AC821E
:10221800D005D006D00774042DFDE43EFE8D828ED5
:10222800838FF0EC02368AAD82AE83AFF0C007C070
:1022380006C0051221A3AC82D005D006D0077404CD
:102248002DFDE43EFE8D828E838FF01237EEB504AD
:10225800047582012275820022022F37023011ADE7
:1022680082AE83AFF0C007C006C0051221A3D00517
:10227800D006D0078D028E038F048A828B838CF060
:102288001237EEF5820ABA00010BC007C006C00576
:10229800C004C003C002122264D002D003D004D00C
:1022A80005D006D0078A828B838CF01237EEF58230
:1022B8000ABA00010BC007C006C005C004C003C0AD
:1022C80002122264D002D003D004D005D006D00771
:1022D8008A828B838CF01237EEF90ABA00010B89D7
:1022E80082C007C006C005C004C003C00212226431
:1022F800D002D003D004D005D006D0078A828B83C1
:102308008CF01237EEF5820ABA00010BC007C0063E
:10231800C005C004C003C002122264D002D003D09A
:10232800048A828B838CF01237EEF582122264D0F5
:1023380005D006D00774052DFAE43EFB8F0474031C
:102348002DFDE43EFE7900C002C003C0048D828EDC
:10235800838FF01237EE7C0024FBF8EC34FFFC8905
:10236800027B00C3EA98EB64808CF063F08095F000
:10237800D004D003D0025054C005C006C0078A82DA
:102388008B838CF01237EEF8A31237EEFEA31237C8
:10239800EEFFE928F8E43EFE88828E838FF012373C
:1023A800EEF582C007C006C005C004C003C002C065
:1023B80001122264D001D002D003D004D005D00687
:1023C800D00709D007D006D00502234F22AF82BF1D
:1023D8000500500475820322AD64AE65AF66AA613C
:1023E800AB62AC638A828B838CF01237EEF974018E
:1023F8002AF561E43BF5628C638D828E838FF0E968
:1024080012368A0DBD00010EAA61AB62AC638A82E6
:102418008B838CF01237EEF974012AF561E43BF5F1
:10242800628C638D828E838FF0E912368A0DBD002F
:10243800010EAA61AB62AC638A828B838CF012377F
:10244800EEF974012AF561E43BF5628C638D828EA6
:10245800838FF0E912368A0DBD00010EAA61AB62C6
:10246800AC638A828B838CF01237EEF974012AF5FB
:1024780061E43BF5628C638D828E838FF0E91236BE
:102488008A0DBD00010EAA61AB62AC638A828B83A0
:102498008CF01237EEF974012AF561E43BF5628C91
:1024A800638D828E838FF0E912368AAD64AE65AF94
:1024B8006674032DFAE43EFB8F04856168856269C2
:1024C80085636A756700C005C006C0078A828B836A
:1024D8008CF01237EE790024FBF8E934FFF9AE6787
:1024E8007F00C3EE98EF648089F063F08095F0D0A8
:1024F80007D006D0055053C002C003C00474052D90
:10250800F8E43EF98F04888289838CF01237EEF85C
:10251800A31237EEF9A31237EEFCE56728F8E43981
:10252800F9856882856983856AF01237EEFBA38591
:102538008268858369888289838CF0EB12368A05E4
:1025480067D004D003D0020224CE8D828E838FF010
:1025580012222FE58270047582042275820222AD50
:1025680082AE83AFF0C007C006C0057432C0E07405
:102578003DC0E012316115811581D005D006D00724
:102588008D828E838FF01237EEFC7B00C007C00669
:10259800C005C004C0037454C0E0743DC0E01231EB
:1025A80061E58124FCF581D005D006D00774012DA2
:1025B800FAE43EFB8F048A828B838CF01237EEFAA2
:1025C80075F003A424D1F582740035F0F583E0F9A1
:1025D800A3E0FBA3E0FC8A007A00C007C006C005A0
:1025E800C001C003C004C000C002745FC0E0743DF5
:1025F800C0E0123161E58124F9F581D005D006D01B
:102608000774022DFAE43EFB8F048A828B838CF0D8
:102618001237EEFA7C00C007C006C005C002C0042D
:10262800746EC0E0743DC0E0123161E58124FCF5B0
:1026380081D005D006D00774032DFAE43EFB8F0441
:102648008A828B838CF01237EEFA7C00C007C006B2
:10265800C005C002C0047479C0E0743DC0E0123106
:1026680061E58124FCF581D005D006D0078D828EE6
:10267800838FF0C007C006C0051221A3AC82D00525
:10268800D006D0077B0074042DF8E43EF98F028849
:102698008289838AF01237EEF87A00C007C006C034
:1026A80005C004C003C000C0027484C0E0743DC00B
:1026B800E0123161E58124FAF5817498C0E0743D37
:1026C800C0E012316115811581D005D006D007749C
:1026D800052DFAE43EFB8F0474032DFDE43EFE75E0
:1026E8006B00C002C003C0048D828E838FF0123746
:1026F800EE790024FBF8E934FFF9AB6B7C00C3EBFF
:1027080098EC648089F063F08095F0D004D003D011
:10271800025065C005C006C0078A828B838CF01200
:1027280037EEF8A31237EEF9A31237EEFFE56B2860
:10273800F8E439F9888289838FF01237EEF87F0040
:10274800C007C006C005C004C003C002C000C0075F
:10275800749FC0E0743DC0E0123161E58124FCF54E
:1027680081D002D003D004D005D006D007056BD0A5
:1027780007D006D0050226EA74A5C0E0743DC0E083
:10278800123161158115817432C0E0743DC0E012C8
:1027980031611581158122E58275F002A4241DF5A9
:1027A80082742B35F0F583E493FEA3E4938E82F5CF
:1027B8008322E58275F002A4241DF582742935F080
:1027C800F583E493FEA3E4938E82F58322AD82AE73
:1027D80083AFF0AC1AED4E602D7B00C3EB9519501A
:1027E800258D828E838FF01237EEFAA3AD82AE83E9
:1027F800EC6A75F002A4241DF582742935F0F5837E
:10280800E493FC0B80D58C8222AF82AD5FAE60056D
:102818005FE4B55F020560C007C005C00674A8C0C4
:10282800E0743DC0E0123161E58124FCF58174AEAD
:10283800C0E0743DC0E012316115811581D0077E7A
:1028480000C3EE9F50248E047D00C007C006C0045C
:10285800C00574B6C0E0743DC0E0123161E5812462
:10286800FCF581D006D0070E80D7C00774A5C0E05C
:10287800743DC0E01231611581158174BDC0E074EA
:102888003DC0E012316115811581D0077E00C3EE8D
:102898009F5072AB6CAC6DAD6E8B828C838DF012D9
:1028A80037EEFABA100050308A0174012BF56CE447
:1028B8003CF56D8D6E89007900C007C006C000C068
:1028C8000174C3C0E0743DC0E0123161E58124FCAD
:1028D800F581D006D007802A74012BF56CE43CF50D
:1028E8006D8D6E7D00C007C006C002C005749FC014
:1028F800E0743DC0E0123161E58124FCF581D00629
:10290800D0070E808974A5C0E0743DC0E012316123
:0529180015811581226C
:103D32002D2D2D2D2D2D2D2D2D2D2D2D2D2D2D2DB1
:103D42002D2D2D2D2D2D2D2D2D2D2D2D2D2D2D0DC1
:103D52000A00566572203A2025640D0A00547970D3
:103D6200653A202564282573290D0A00416464728E
:103D72003A2025640D0A0053697A653A2025640DBC
:103D82000A0043524320636F6D70203A202564205D
:103D92002564200D0A00444154413A200030782520
:063DA2007820000D0A006C
:10291D000000310062005300C400F500A6009700CE
:10292D00B9008800DB00EA007D004C001F002E007E
:10293D0043007200210010008700B600E500D400AE
:10294D00FA00CB009800A9003E000F005C006D005E
:10295D008600B700E400D50042007300200011008E
:10296D003F000E005D006C00FB00CA009900A8003E
:10297D00C500F400A700960001003000630052006E
:10298D007C004D001E002F00B8008900DA00EB001E
:10299D003D000C005F006E00F900C8009B00AA000E
:1029AD008400B500E600D70040007100220013003E
:1029BD007E004F001C002D00BA008B00D800E900EE
:1029CD00C700F600A500940003003200610050001E
:1029DD00BB008A00D900E8007F004E001D002C00CE
:1029ED000200330060005100C600F700A4009500FE
:1029FD00F800C9009A00AB003C000D005E006F00AE
:102A0D0041007000230012008500B400E700D600DD
:102A1D007A004B0018002900BE008F00DC00ED008D
:102A2D00C300F200A10090000700360065005400BD
:102A3D00390008005B006A00FD00CC009F00AE006D
:102A4D008000B100E200D30044007500260017009D
:102A5D00FC00CD009E00AF00380009005A006B004D
:102A6D0045007400270016008100B000E300D2007D
:102A7D00BF008E00DD00EC007B004A00190028002D
:102A8D000600370064005500C200F300A00091005D
:102A9D0047007600250014008300B200E100D0004D
:102AAD00FE00CF009C00AD003A000B0058006900FD
:102ABD000400350066005700C000F100A20093002D
:102ACD00BD008C00DF00EE00790048001B002A00DD
:102ADD00C100F000A300920005003400670056000D
:102AED00780049001A002B00BC008D00DE00EF00BD
:102AFD008200B300E000D1004600770024001500ED
:102B0D003B000A0059006800FF00CE009D00AC009C
:102B1D002D0005001F001800030014002700010000
:102B2D001C00030028003B00020012001D000300E2
:102B3D000E001F0041001E000900080025000700BF
:102B4D000500010001002B00010024000A004A00CD
:102B5D00230028001300070010001D0055000B0076
:102B6D00470014000B004800050029001300210048
:102B7D000600010006002C000200080001003400D0
:102B8D00040014000C0014000500150011001100C4
:102B9D00060008000700180001005800010013008E
:102BAD0013001F000C0018000D0019001700100075
:102BBD00160003000A000A00090018002C0001008D
:102BCD000300100011000100080005002500110090
:082BDD000B00020015000200CC
:103DA8002325640D0A00726177203A20200025320D
:103DB8006420202000646174613A003078302578EE
:103DC8002000547970655F426361737400547970A0
:103DD800655F556361737400547970655F4D636105
:103DE800737400547970655F53657441646472003C
:103DF800547970655F5365744C4544005479706517
:103E08005F4374726C4D6F746F7200547970655FA4
:103E1800526561644164647200547970655F41431E
:0C3E28004B00547970655F4E6F6E6500B2
:1003FE00900125E4F0900126F0900127F09001285D
:10040E00F0900129740AF090012A14F090012B74D7
:10041E0006F090012C14F090012D740FF090012E27
:10042E00F090012FF0900130F0900131F0900132F8
:10043E007403F090013314F0900134740FF09001B6
:10044E0035F09001367401F0900137E4F0900138E8
:10045E00740FF0900139F090013AF090013BF0905A
:10046E00013CF090013DE4F090014DF090015DF003
:10047E0090016DF090017DF090017EF090017FF083
:10048E00900180F0900181F0900182F0900183F054
:10049E00900184F0900185F0900186F0900187F034
:1004AE00900188F0900189F090018AF090018BF014
:0404BE0090018CF02D
:102BE500AC82AD83AEF0FF53B1BF53B2BF53B17FDB
:102BF50053B27F759850438920438780438E105385
:102C0500C4DF8C198D1A8E1B8F1C90D4BC75F00FE8
:102C1500E41235E2AC82C3E49CF58DD28ED29922C2
:102C2500AC82AD83AEF0FF53B1BF53B2BF53B17F9A
:102C350053B27F75985043878053C4F843C4208CA2
:102C4500198D1A8E1B8F1C90D4BC75F00FE41235AC
:102C5500E2AC82AD83AEF0FFE4C39CE49DF9740160
:102C65009EE49F89C6C3E49CFC8CC543C408D299E5
:102C750022AC82AD83AEF0FF53B1FB53B2FB53B32D
:102C8500BF53B4BF75F85875C40853C4DF8C198D8C
:102C95001A8E1B8F1C90D4BC75F00FE41235E2AC74
:102CA50082AD83AEF0FFE4C39CE49DF974019EE41C
:102CB5009F89C6C3E49CFC8CC543C40822022C76BC
:102CC500AE82E51170078E82122FD880058E821292
:102CD50030119000002290C20075F001E4122BE53E
:102CE50090C20075F001E4122C76D2AC439C01D25F
:102CF500AF22C299900180E0FFE07001227D647EE1
:102D05000000000000ED24FFFBEE34FFFC8B058C7A
:102D150006EB4C70EC900181E0FE04F0EE244DF5DD
:102D250082E43401F583E0F599EF14900180F09089
:102D35000181E0FFBF1005900181E4F022C021C0B0
:102D4500E0C0F0C082C083C007C006C005C004C093
:102D550003C002C001C000C0D075D00830983B90B8
:102D65000189E02401F090017DE0FFBF10005028AB
:102D750090017FE0FF04F0EF243DF582E43401F596
:102D850083E599F090017DE02401F090017FE0FF5B
:102D9500BF100590017FE4F0C29830991090018A28
:102DA500E02401F075D000122CF775D008D0D0D0F2
:102DB50000D001D002D003D004D005D006D007D072
:102DC50083D082D0F0D0E0D0213290017DE0F58231
:102DD50022AD82AE83AFF090017DE07003F58222D3
:102DE500C2AC90017EE0FC04F0EC243DF582E434B5
:102DF50001F583E08D828E838FF012368A90017DF6
:102E0500E014F090017EE0FFBF100590017EE4F034
:102E1500D2AC75820122AF8290017DE0FE7003F590
:102E25008222C3EE9F50028E07AC19AD1AAE1B7BF2
:102E350000C3EB9F503090017EE0FA04F0EA243D98
:102E4500F582E43401F583E08C828D838EF01236B1
:102E55008AA3AC82AD8390017EE0FABA1005900199
:102E65007EE4F00B80CB90017DE0C39FF08F822242
:102E7500C2F9900186E0FFE0700122900187E0FE33
:102E850004F0EE246DF582E43401F583E0F59AEF64
:102E950014900186F0900187E053E00FF022C021E5
:102EA500C0E0C0F0C082C083C007C006C005C00432
:102EB500C003C002C001C000C0D075D00830F83BC7
:102EC50090018BE02401F0900183E0FFBF100050DA
:102ED50028900185E0FF04F0EF245DF582E43401DC
:102EE500F583E59AF0900183E02401F0900185E0F7
:102EF500FFBF1005900185E4F0C2F830F91090018C
:102F05008CE02401F075D000122E7575D008D0D054
:102F1500D000D001D002D003D004D005D006D00710
:102F2500D083D082D0F0D0E0D02132900183E0F57B
:102F35008222AD82AE83AFF0900183E07003F5820B
:102F450022539CFE900184E0FC04F0EC245DF582A4
:102F5500E43401F583E08D828E838FF012368A90FA
:102F65000183E014F0900184E0FFBF100590018417
:102F7500E4F0439C0175820122AF82900183E0FE5B
:102F85007003F58222C3EE9F50028E07AC19AD1A6D
:102F9500AE1B7B00C3EB9F5030900184E0FA04F038
:102FA500EA245DF582E43401F583E08C828D838E1D
:102FB500F012368AA3AC82AD83900184E0FABA1090
:102FC50005900184E4F00B80CB900183E0C39FF072
:102FD5008F8222AF82900180E0FEBE100040030088
:102FE50080F3900182E0FE04F0EE244DF582E43496
:102FF50001F583EFF0900180E02401F0900182E07B
:10300500FFBF1005900182E4F0D29922AF829001B2
:1030150086E0FEBE1000400A900126E02401F00083
:1030250080EC900125E02401F0539CFE900188E09E
:10303500FE04F0EE246DF582E43401F583EFF090A3
:103045000186E02401F0900188E053E00FF0900143
:1030550086E0FFBF010B900128E02401F0D2F98042
:1030650007900127E02401F0439C0122751101908E
:1030750000F0022CC5AF82751101EF23235403FE26
:103085005306037D00EE2429F582ED3401F583E036
:10309500FEE4CEC4CE6ECE54F0CE6EFDEFC4540F1A
:1030A500FC5304037B00EC2429F582EB3401F58302
:1030B500E07B004EF582EB4DF583C007122CC5D0A1
:1030C50007EF0303543FFE5306037D00EE2429F565
:1030D50082ED3401F583E0FEE4CEC4CE6ECE54F02D
:1030E500CE6EFD5307037C00EF2429F582EC3401F5
:1030F500F583E07C004EF582EC4DF583022CC5E5A9
:1031050082FFC4540F242DF582E43401F583E0FEDB
:10311500BE0F047582002253070F7E00EF242DF5A4
:1031250082EE3401F583E0FFBF0F0475820022753E
:10313500820122E582FFC4540F242DF582E4340177
:10314500F583E025E025E0FE53070F7D00EF242DF4
:10315500F582ED3401F583E04EF58222C0188581B4
:1031650018E51824FDF8868318868218E493A3B41D
:103175002577C201C202C203C204C205C206791282
:103185007700C207E493A324C64017240A5015709C
:1031950005B51202D206D205FAE775F00AA42AF798
:1031A50080E2240A2430B46C04D20180D7B46804C8
:1031B500D20280D0B473030231F9B464061234D359
:1031C500023255B475061234D3023275B46305184C
:1031D500E6188017B47803023234B46603023389E3
:1031E500B42E0679137700809B60061235C502312F
:1031F500710235DFC083C08286F018868318868207
:1032050018300519C206C082C0831237EE6007A3C5
:103215001512E51270F41235B0D083D0821237EE54
:103225006006A31235C580F5D082D08302317112B4
:10323500324C20020C12324C30010612324C123242
:103245004C1235D7023171E61235B5E6180235B69E
:10325500ED30E71CD204E9F42401F9200212EAF466
:103265003400FA30010AEBF43400FBECF43400FCD2
:10327500200210300108EB7024EC7021C201EA70C5
:103285001CD202E97017200714300509E512600504
:1032950015121235B074301235C5023171C082C0B5
:1032A500831234ED300560790A30011DEB54F0705E
:1032B5003619EB540F703019EA54F0702A19EA5494
:1032C5000F702419EF54F0701E790520020BEF548E
:1032D5000F701419EE54F0700E7903EE540F700749
:1032E50019ED54F0700119E512A204994019F5126F
:1032F500C003C002C007C006C0051235B0D005D056
:1033050006D007D002D003300419C003C002C0079D
:10331500C006C005742D1235C5D005D006D007D01E
:1033250002D00320024030012CC005C006C0078A28
:1033350082EBF5831235B5E5831235B6E582123594
:10334500B5E5821235B6D0E0F5821235B5E582D005
:1033550083D08280058D828E83EF1235B6E5831288
:1033650035B5E58380038D82EE1235B6E5821235DB
:10337500B5E5821235B61235D7D083D08230070134
:103385002202317130050EE512D39513F51250283E
:103395007512008023E6547FFA18860308AE82AFC3
:1033A500839040007D07E4932BA3E4933A5003A355
:1033B500DDF48D138E828F83C0001234B5C082C0B8
:1033C50083EFB47E02801940112482FDC3EA33FAEB
:1033D500EB33FBEC33FCDDF48006F4247F12364737
:1033E50075F01BE4F8FFFEFD903F94E933F9EA33ED
:1033F500FAEB33FBEC33FC5017E4932DD4FD740149
:10340500933ED4FE7402933FD4FF74039338D4F8EB
:10341500A3A3A3A3D5F0D4E47C50FBFAF9E51323C9
:103425002354FC8883123647ED29D4F517EE3AD498
:10343500F516EF3BD4F515E5833CD4F51492D5D0BC
:1034450083D082D0001234B5C000C3749E9F50054E
:10345500D000023189C082123647D08230D50FE9BB
:103465002401F9E43AFAE43BFBE43CFC40E2D207F0
:1034750012327520050CE51360081234A57003D5CA
:1034850013F4E5136015742E1235C57800D20308C0
:10349500E81234A51235B6E8B513F4D0000231713F
:1034A50014C31392D52414F9E720D501C4540F226F
:1034B500E618F9E618FC33E9339204FF6003430488
:1034C50080E618FBE618FA7900C202D20122E6F975
:1034D500FD18200212AA01E6F91830010AAC02AB68
:1034E50001E6FA18E6F91822E975F06484FE740A13
:1034F500C5F084C445F0FD30020122EA540FF9906D
:103505003E34932DD4FDE94410933ED4FEEAC454D1
:103515000FF9903E54932DD4FDE94410933ED4FE0B
:10352500E94420933400D4FF20010122EB540FF924
:10353500903E84932DD4FDE94410933ED4FEE94496
:1035450020933FD4FFE43400FAEBC4540FF9903EC6
:10355500B4932DD4FDE94410933ED4FEE944209361
:103565003FD4FFE94430933AD4FAEC540FF9903E36
:10357500F47B00123583ECC4540FF9903F44932D2E
:10358500D4FDE94410933ED4FEE94420933FD4FF93
:10359500E94430933AD4FAE94440933BD4FB22748E
:1035A5002030060274301235C51512E51270F0226E
:1035B500C4540F7003300319D2032490D43440D47B
:1035C500C083C082C000F582122CC5D000D082D045
:0D35D50083222003FC74300235C5D018227B
:103E34000056126824803692480460167228844022
:103E440000020507101215172023252830333538B2
:103E54000096928884807672686460565248444022
:103E64000040812263044586276809509132731407
:103E74000000000101020202030304040405050614
:103E840000367208448016528824609632680440D2
:103E940000551066217632874298530864197530AC
:103EA400000613192632394552586572788591985F
:103EB40000765228048056320884603612886440A2
:103EC40000857157432814008671574329140086CE
:103ED4000004091419242934384348535863687278
:103EE4000001020304050607080910111213141532
:103EF4000016324864809612284460769208244062
:103F0400007244168860320577492193653810821F
:103F140000775533108866442199775432108865A8
:103F240000163350678300173450678401183451E6
:103F3400000000000000010101010101020202026F
:103F44000056126824803692480460167228844011
:103F54000054096318722781369145005409631887
:103F640000438730741761044891357922660953F8
:103F74000068360573421079471584522189582602
:103F8400000205081013161821242629323437405C
:103F9400000000500000002500005012000025061B
:103FA40000501203002556015012780025063900EE
:103FB400125319005676090028880400144402009C
:103FC40007220100046100005230000026150000A1
:103FD40063070000810300009101000095000000C8
:103FE4004800000024000000120000000600000049
:103FF4000300000001000000010000007DC5DDC3D6
:0A40040034C2E0BE38BD86BBE4B94B
:1035E200FB7A20E4FCFDFEFFE5822582F582E5837D
:1035F20033F583E5F033F5F0EB33FB4017DAE9807E
:1036020042E5822582F582E58333F583E5F033F5E1
:10361200F0EB33FBEC33FCED33FDEE33FEEF33FF27
:10362200EC9519ED951AEE951BEF951C4013EC9550
:1036320019FCED951AFDEE951BFEEF951CFF4382DA
:0536420001DABEEB22DD
:06008E00E478FFF6D8FD46
:103647006040F82582500274FFF582E824F8501E86
:10365700CCCBCAF9E4CC24F85014CBCAF9E4CB2478
:10366700F8500BCAF9E4CA24F85003790022240859
:103677006010F8C3EC13FCEB13FBEA13FAE913F938
:10368700D8F12220F71130F6138883A88220F50994
:0E369700F6A8837583002280FEF280F5F022F3
:10378000AAF0FBE5828519F0A4FCADF0E58385196C
:10379000F0A42DFDE435F0FEE582851AF0A42DFDA0
:1037A000E5F03EFEE433FFEA8519F0A42EFEE5F0D5
:1037B0003FFFE583851AF0A42EFEE5F03FFFE5828A
:1037C000851BF0A42EFEE5F03FFFEB8519F0A42F3A
:1037D000FFEA851AF0A42FFFE583851BF0A42FFFD5
:0E37E000E582851CF0A42F8EF08D838C822252
:0D00810075816E121F0EE582600302007E85
:1037EE0020F71430F6148883A88220F507E6A88304
:0C37FE0075830022E280F7E49322E022B1
:00000001FF
